{"contracts/supplier.sol":{"Supplier":{"abi":[{"anonymous":false,"inputs":[{"indexed":false,"internalType":"string","name":"message","type":"string"}],"name":"Mdispatch","type":"event"},{"anonymous":false,"inputs":[{"indexed":false,"internalType":"string","name":"message","type":"string"}],"name":"Status","type":"event"},{"anonymous":false,"inputs":[{"indexed":false,"internalType":"string","name":"message","type":"string"},{"indexed":false,"internalType":"uint256","name":"_sn","type":"uint256"}],"name":"product","type":"event"},{"inputs":[{"internalType":"uint256","name":"","type":"uint256"}],"name":"IpfsRevision","outputs":[{"internalType":"string","name":"","type":"string"}],"stateMutability":"view","type":"function"},{"inputs":[{"internalType":"uint256","name":"_serialnumber","type":"uint256"},{"internalType":"string","name":"_CID12","type":"string"}],"name":"Mandispatch","outputs":[],"stateMutability":"nonpayable","type":"function"},{"inputs":[{"internalType":"string","name":"_CID11","type":"string"}],"name":"Medicine_mapper_first","outputs":[],"stateMutability":"nonpayable","type":"function"},{"inputs":[],"name":"Serialnumbers","outputs":[{"internalType":"uint256","name":"","type":"uint256"}],"stateMutability":"view","type":"function"},{"inputs":[{"internalType":"uint256","name":"","type":"uint256"}],"name":"Sn","outputs":[{"internalType":"uint256","name":"","type":"uint256"}],"stateMutability":"view","type":"function"},{"inputs":[{"internalType":"uint256","name":"_serialnumber","type":"uint256"},{"internalType":"string","name":"revision22","type":"string"}],"name":"Supdispatch","outputs":[],"stateMutability":"nonpayable","type":"function"},{"inputs":[{"internalType":"string","name":"_name","type":"string"},{"internalType":"string","name":"_batchno","type":"string"},{"internalType":"string","name":"_manufacturer","type":"string"},{"internalType":"enum Manufacturer.SupplyChainState","name":"_state","type":"uint8"},{"internalType":"uint256","name":"_Manufacturing_date","type":"uint256"},{"internalType":"uint256","name":"_Expiring_date","type":"uint256"}],"name":"addprouct","outputs":[],"stateMutability":"nonpayable","type":"function"},{"inputs":[],"name":"checker","outputs":[{"internalType":"string","name":"","type":"string"}],"stateMutability":"view","type":"function"},{"inputs":[],"name":"dispatchedtimeBySupplier","outputs":[{"internalType":"uint256","name":"","type":"uint256"}],"stateMutability":"view","type":"function"},{"inputs":[{"internalType":"uint256","name":"","type":"uint256"}],"name":"medd","outputs":[{"internalType":"enum Manufacturer.SupplyChainState","name":"state","type":"uint8"},{"internalType":"string","name":"batchnumber","type":"string"},{"internalType":"string","name":"manufacturer","type":"string"},{"internalType":"string","name":"name","type":"string"},{"internalType":"uint256","name":"Manufacturing_date","type":"uint256"},{"internalType":"uint256","name":"Expiring_date","type":"uint256"},{"internalType":"bytes32","name":"ipfsCid","type":"bytes32"}],"stateMutability":"view","type":"function"},{"inputs":[{"internalType":"uint256","name":"","type":"uint256"}],"name":"medications","outputs":[{"internalType":"enum Manufacturer.SupplyChainState","name":"state","type":"uint8"},{"internalType":"string","name":"batchnumber","type":"string"},{"internalType":"string","name":"manufacturer","type":"string"},{"internalType":"string","name":"name","type":"string"},{"internalType":"uint256","name":"Manufacturing_date","type":"uint256"},{"internalType":"uint256","name":"Expiring_date","type":"uint256"},{"internalType":"bytes32","name":"ipfsCid","type":"bytes32"}],"stateMutability":"view","type":"function"},{"inputs":[],"name":"recievedtimeBySupplier","outputs":[{"internalType":"uint256","name":"","type":"uint256"}],"stateMutability":"view","type":"function"},{"inputs":[],"name":"serialnumber","outputs":[{"internalType":"uint256","name":"","type":"uint256"}],"stateMutability":"view","type":"function"},{"inputs":[{"internalType":"uint256","name":"_serialnumber","type":"uint256"},{"internalType":"string","name":"revision21","type":"string"}],"name":"verify","outputs":[],"stateMutability":"nonpayable","type":"function"}],"evm":{"bytecode":{"linkReferences":{},"object":"60806040526010600155600154600a6200001a9190620001be565b6002553480156200002a57600080fd5b506200020f565b7f4e487b7100000000000000000000000000000000000000000000000000000000600052601160045260246000fd5b60008160011c9050919050565b6000808291508390505b6001851115620000bf5780860481111562000097576200009662000031565b5b6001851615620000a75780820291505b8081029050620000b78562000060565b945062000077565b94509492505050565b600082620000da5760019050620001ad565b81620000ea5760009050620001ad565b81600181146200010357600281146200010e5762000144565b6001915050620001ad565b60ff84111562000123576200012262000031565b5b8360020a9150848211156200013d576200013c62000031565b5b50620001ad565b5060208310610133831016604e8410600b84101617156200017e5782820a90508381111562000178576200017762000031565b5b620001ad565b6200018d84848460016200006d565b92509050818404811115620001a757620001a662000031565b5b81810290505b9392505050565b6000819050919050565b6000620001cb82620001b4565b9150620001d883620001b4565b9250620002077fffffffffffffffffffffffffffffffffffffffffffffffffffffffffffffffff8484620000c8565b905092915050565b611a11806200021f6000396000f3fe608060405234801561001057600080fd5b50600436106100ea5760003560e01c80639bcca8571161008c578063cf5303cf11610066578063cf5303cf1461024f578063d700d2df1461026d578063e4d00fbb1461028b578063fa8547f6146102a7576100ea565b80639bcca857146101e5578063b498c57914610215578063cead807514610231576100ea565b80635ee8d98a116100c85780635ee8d98a146101595780636203d51c14610175578063857474721461019357806387ada616146101c9576100ea565b80631d9b62f2146100ef57806335e56a1e1461010d5780634942f3581461013d575b600080fd5b6100f76102dd565b6040516101049190610dcc565b60405180910390f35b61012760048036038101906101229190610e27565b6102e6565b6040516101349190610ee4565b60405180910390f35b6101576004803603810190610152919061103b565b610386565b005b610173600480360381019061016e919061103b565b6104f1565b005b61017d61061b565b60405161018a9190610dcc565b60405180910390f35b6101ad60048036038101906101a89190610e27565b610621565b6040516101c09796959493929190611127565b60405180910390f35b6101e360048036038101906101de919061103b565b610818565b005b6101ff60048036038101906101fa9190610e27565b610942565b60405161020c9190610dcc565b60405180910390f35b61022f600480360381019061022a91906111ab565b610966565b005b61023961098b565b6040516102469190610dcc565b60405180910390f35b610257610991565b6040516102649190610ee4565b60405180910390f35b610275610a1f565b6040516102829190610dcc565b60405180910390f35b6102a560048036038101906102a09190611219565b610a25565b005b6102c160048036038101906102bc9190610e27565b610bcc565b6040516102d49796959493929190611127565b60405180910390f35b60008054905090565b6008602052806000526040600020600091509050805461030590611329565b80601f016020809104026020016040519081016040528092919081815260200182805461033190611329565b801561037e5780601f106103535761010080835404028352916020019161037e565b820191906000526020600020905b81548152906001019060200180831161036157829003601f168201915b505050505081565b6001600481111561039a57610399611097565b5b6009600084815260200190815260200160002060000160009054906101000a900460ff1660048111156103d0576103cf611097565b5b14610410576040517f08c379a0000000000000000000000000000000000000000000000000000000008152600401610407906113cc565b60405180910390fd5b6000801b6008600080548152602001908152602001600020604051602001610438919061148f565b604051602081830303815290604052805190602001200361045857600080fd5b60026009600084815260200190815260200160002060000160006101000a81548160ff0219169083600481111561049257610491611097565b5b0217905550806008600084815260200190815260200160002090816104b7919061163d565b507f2844c95bf1b4598da931d527f903501abc60fe0199c65da52d5ce818c6c5e9616040516104e59061175b565b60405180910390a15050565b6002600481111561050557610504611097565b5b6009600084815260200190815260200160002060000160009054906101000a900460ff16600481111561053b5761053a611097565b5b1461057b576040517f08c379a0000000000000000000000000000000000000000000000000000000008152600401610572906117ed565b60405180910390fd5b42600b8190555060036009600084815260200190815260200160002060000160006101000a81548160ff021916908360048111156105bc576105bb611097565b5b0217905550806008600084815260200190815260200160002090816105e1919061163d565b507f2844c95bf1b4598da931d527f903501abc60fe0199c65da52d5ce818c6c5e96160405161060f9061187f565b60405180910390a15050565b600a5481565b6003818154811061063157600080fd5b90600052602060002090600702016000915090508060000160009054906101000a900460ff169080600101805461066790611329565b80601f016020809104026020016040519081016040528092919081815260200182805461069390611329565b80156106e05780601f106106b5576101008083540402835291602001916106e0565b820191906000526020600020905b8154815290600101906020018083116106c357829003601f168201915b5050505050908060020180546106f590611329565b80601f016020809104026020016040519081016040528092919081815260200182805461072190611329565b801561076e5780601f106107435761010080835404028352916020019161076e565b820191906000526020600020905b81548152906001019060200180831161075157829003601f168201915b50505050509080600301805461078390611329565b80601f01602080910402602001604051908101604052809291908181526020018280546107af90611329565b80156107fc5780601f106107d1576101008083540402835291602001916107fc565b820191906000526020600020905b8154815290600101906020018083116107df57829003601f168201915b5050505050908060040154908060050154908060060154905087565b6000600481111561082c5761082b611097565b5b6009600084815260200190815260200160002060000160009054906101000a900460ff16600481111561086257610861611097565b5b146108a2576040517f08c379a0000000000000000000000000000000000000000000000000000000008152600401610899906117ed565b60405180910390fd5b4260068190555060016009600084815260200190815260200160002060000160006101000a81548160ff021916908360048111156108e3576108e2611097565b5b021790555080600860008481526020019081526020016000209081610908919061163d565b507fdefe02112824e0ae81930c3e55aeeac58d10e8b531afdcb3bad105492ec5a5456040516109369061187f565b60405180910390a15050565b6004818154811061095257600080fd5b906000526020600020016000915090505481565b8060086000805481526020019081526020016000209081610987919061163d565b5050565b60005481565b6007805461099e90611329565b80601f01602080910402602001604051908101604052809291908181526020018280546109ca90611329565b8015610a175780601f106109ec57610100808354040283529160200191610a17565b820191906000526020600020905b8154815290600101906020018083116109fa57829003601f168201915b505050505081565b600b5481565b42600581905550858585604051602001610a41939291906118d0565b6040516020818303038152906040528051906020012060001c600081905550600254600080828254610a739190611930565b925050819055508460096000805481526020019081526020016000206001019081610a9e919061163d565b508560096000805481526020019081526020016000206003019081610ac3919061163d565b508360096000805481526020019081526020016000206002019081610ae8919061163d565b50816009600080548152602001908152602001600020600401819055508060096000805481526020019081526020016000206005018190555082600960008054815260200190815260200160002060000160006101000a81548160ff02191690836004811115610b5b57610b5a611097565b5b0217905550600460005490806001815401808255809150506001900390600052602060002001600090919091909150557fe9850cacbeabeb04673cee1b608fedf6e3163f0a8da989d484b5348563e04d02600054604051610bbc91906119ad565b60405180910390a1505050505050565b60096020528060005260406000206000915090508060000160009054906101000a900460ff1690806001018054610c0290611329565b80601f0160208091040260200160405190810160405280929190818152602001828054610c2e90611329565b8015610c7b5780601f10610c5057610100808354040283529160200191610c7b565b820191906000526020600020905b815481529060010190602001808311610c5e57829003601f168201915b505050505090806002018054610c9090611329565b80601f0160208091040260200160405190810160405280929190818152602001828054610cbc90611329565b8015610d095780601f10610cde57610100808354040283529160200191610d09565b820191906000526020600020905b815481529060010190602001808311610cec57829003601f168201915b505050505090806003018054610d1e90611329565b80601f0160208091040260200160405190810160405280929190818152602001828054610d4a90611329565b8015610d975780601f10610d6c57610100808354040283529160200191610d97565b820191906000526020600020905b815481529060010190602001808311610d7a57829003601f168201915b5050505050908060040154908060050154908060060154905087565b6000819050919050565b610dc681610db3565b82525050565b6000602082019050610de16000830184610dbd565b92915050565b6000604051905090565b600080fd5b600080fd5b610e0481610db3565b8114610e0f57600080fd5b50565b600081359050610e2181610dfb565b92915050565b600060208284031215610e3d57610e3c610df1565b5b6000610e4b84828501610e12565b91505092915050565b600081519050919050565b600082825260208201905092915050565b60005b83811015610e8e578082015181840152602081019050610e73565b60008484015250505050565b6000601f19601f8301169050919050565b6000610eb682610e54565b610ec08185610e5f565b9350610ed0818560208601610e70565b610ed981610e9a565b840191505092915050565b60006020820190508181036000830152610efe8184610eab565b905092915050565b600080fd5b600080fd5b7f4e487b7100000000000000000000000000000000000000000000000000000000600052604160045260246000fd5b610f4882610e9a565b810181811067ffffffffffffffff82111715610f6757610f66610f10565b5b80604052505050565b6000610f7a610de7565b9050610f868282610f3f565b919050565b600067ffffffffffffffff821115610fa657610fa5610f10565b5b610faf82610e9a565b9050602081019050919050565b82818337600083830152505050565b6000610fde610fd984610f8b565b610f70565b905082815260208101848484011115610ffa57610ff9610f0b565b5b611005848285610fbc565b509392505050565b600082601f83011261102257611021610f06565b5b8135611032848260208601610fcb565b91505092915050565b6000806040838503121561105257611051610df1565b5b600061106085828601610e12565b925050602083013567ffffffffffffffff81111561108157611080610df6565b5b61108d8582860161100d565b9150509250929050565b7f4e487b7100000000000000000000000000000000000000000000000000000000600052602160045260246000fd5b600581106110d7576110d6611097565b5b50565b60008190506110e8826110c6565b919050565b60006110f8826110da565b9050919050565b611108816110ed565b82525050565b6000819050919050565b6111218161110e565b82525050565b600060e08201905061113c600083018a6110ff565b818103602083015261114e8189610eab565b905081810360408301526111628188610eab565b905081810360608301526111768187610eab565b90506111856080830186610dbd565b61119260a0830185610dbd565b61119f60c0830184611118565b98975050505050505050565b6000602082840312156111c1576111c0610df1565b5b600082013567ffffffffffffffff8111156111df576111de610df6565b5b6111eb8482850161100d565b91505092915050565b6005811061120157600080fd5b50565b600081359050611213816111f4565b92915050565b60008060008060008060c0878903121561123657611235610df1565b5b600087013567ffffffffffffffff81111561125457611253610df6565b5b61126089828a0161100d565b965050602087013567ffffffffffffffff81111561128157611280610df6565b5b61128d89828a0161100d565b955050604087013567ffffffffffffffff8111156112ae576112ad610df6565b5b6112ba89828a0161100d565b94505060606112cb89828a01611204565b93505060806112dc89828a01610e12565b92505060a06112ed89828a01610e12565b9150509295509295509295565b7f4e487b7100000000000000000000000000000000000000000000000000000000600052602260045260246000fd5b6000600282049050600182168061134157607f821691505b602082108103611354576113536112fa565b5b50919050565b7f6d656469636174696f6e206973206e6f7420646973706174636865642079657460008201527f2066726f6d206d616e7566616374757265720000000000000000000000000000602082015250565b60006113b6603283610e5f565b91506113c18261135a565b604082019050919050565b600060208201905081810360008301526113e5816113a9565b9050919050565b600081905092915050565b60008190508160005260206000209050919050565b6000815461141981611329565b61142381866113ec565b9450600182166000811461143e576001811461145357611486565b60ff1983168652811515820286019350611486565b61145c856113f7565b60005b8381101561147e5781548189015260018201915060208101905061145f565b838801955050505b50505092915050565b600061149b828461140c565b915081905092915050565b60006020601f8301049050919050565b600082821b905092915050565b6000600883026114f37fffffffffffffffffffffffffffffffffffffffffffffffffffffffffffffffff826114b6565b6114fd86836114b6565b95508019841693508086168417925050509392505050565b6000819050919050565b600061153a61153561153084610db3565b611515565b610db3565b9050919050565b6000819050919050565b6115548361151f565b61156861156082611541565b8484546114c3565b825550505050565b600090565b61157d611570565b61158881848461154b565b505050565b5b818110156115ac576115a1600082611575565b60018101905061158e565b5050565b601f8211156115f1576115c2816113f7565b6115cb846114a6565b810160208510156115da578190505b6115ee6115e6856114a6565b83018261158d565b50505b505050565b600082821c905092915050565b6000611614600019846008026115f6565b1980831691505092915050565b600061162d8383611603565b9150826002028217905092915050565b61164682610e54565b67ffffffffffffffff81111561165f5761165e610f10565b5b6116698254611329565b6116748282856115b0565b600060209050601f8311600181146116a75760008415611695578287015190505b61169f8582611621565b865550611707565b601f1984166116b5866113f7565b60005b828110156116dd578489015182556001820191506020850194506020810190506116b8565b868310156116fa57848901516116f6601f891682611603565b8355505b6001600288020188555050505b505050505050565b7f7665726669636174696f6e20436f6d706c657465000000000000000000000000600082015250565b6000611745601483610e5f565b91506117508261170f565b602082019050919050565b6000602082019050818103600083015261177481611738565b9050919050565b7f6d656469636174696f6e206973206e6f74207965742075706c6f616420696e2060008201527f636861696e000000000000000000000000000000000000000000000000000000602082015250565b60006117d7602583610e5f565b91506117e28261177b565b604082019050919050565b60006020820190508181036000830152611806816117ca565b9050919050565b7f4469737061746368696e6720636f6d706c657465207375636365737366756c6c60008201527f7900000000000000000000000000000000000000000000000000000000000000602082015250565b6000611869602183610e5f565b91506118748261180d565b604082019050919050565b600060208201905081810360008301526118988161185c565b9050919050565b60006118aa82610e54565b6118b481856113ec565b93506118c4818560208601610e70565b80840191505092915050565b60006118dc828661189f565b91506118e8828561189f565b91506118f4828461189f565b9150819050949350505050565b7f4e487b7100000000000000000000000000000000000000000000000000000000600052601260045260246000fd5b600061193b82610db3565b915061194683610db3565b92508261195657611955611901565b5b828206905092915050565b7f73657269616c206e756d626572206f6620746865206d656469636174696f6e00600082015250565b6000611997601f83610e5f565b91506119a282611961565b602082019050919050565b600060408201905081810360008301526119c68161198a565b90506119d56020830184610dbd565b9291505056fea26469706673582212207cf0a4bf6e1da6cb8a0c68416e966b389e11b666105e11ee2a90dd8f1a72d26764736f6c63430008120033","opcodes":"PUSH1 0x80 PUSH1 0x40 MSTORE PUSH1 0x10 PUSH1 0x1 SSTORE PUSH1 0x1 SLOAD PUSH1 0xA PUSH3 0x1A SWAP2 SWAP1 PUSH3 0x1BE JUMP JUMPDEST PUSH1 0x2 SSTORE CALLVALUE DUP1 ISZERO PUSH3 0x2A JUMPI PUSH1 0x0 DUP1 REVERT JUMPDEST POP PUSH3 0x20F JUMP JUMPDEST PUSH32 0x4E487B7100000000000000000000000000000000000000000000000000000000 PUSH1 0x0 MSTORE PUSH1 0x11 PUSH1 0x4 MSTORE PUSH1 0x24 PUSH1 0x0 REVERT JUMPDEST PUSH1 0x0 DUP2 PUSH1 0x1 SHR SWAP1 POP SWAP2 SWAP1 POP JUMP JUMPDEST PUSH1 0x0 DUP1 DUP3 SWAP2 POP DUP4 SWAP1 POP JUMPDEST PUSH1 0x1 DUP6 GT ISZERO PUSH3 0xBF JUMPI DUP1 DUP7 DIV DUP2 GT ISZERO PUSH3 0x97 JUMPI PUSH3 0x96 PUSH3 0x31 JUMP JUMPDEST JUMPDEST PUSH1 0x1 DUP6 AND ISZERO PUSH3 0xA7 JUMPI DUP1 DUP3 MUL SWAP2 POP JUMPDEST DUP1 DUP2 MUL SWAP1 POP PUSH3 0xB7 DUP6 PUSH3 0x60 JUMP JUMPDEST SWAP5 POP PUSH3 0x77 JUMP JUMPDEST SWAP5 POP SWAP5 SWAP3 POP POP POP JUMP JUMPDEST PUSH1 0x0 DUP3 PUSH3 0xDA JUMPI PUSH1 0x1 SWAP1 POP PUSH3 0x1AD JUMP JUMPDEST DUP2 PUSH3 0xEA JUMPI PUSH1 0x0 SWAP1 POP PUSH3 0x1AD JUMP JUMPDEST DUP2 PUSH1 0x1 DUP2 EQ PUSH3 0x103 JUMPI PUSH1 0x2 DUP2 EQ PUSH3 0x10E JUMPI PUSH3 0x144 JUMP JUMPDEST PUSH1 0x1 SWAP2 POP POP PUSH3 0x1AD JUMP JUMPDEST PUSH1 0xFF DUP5 GT ISZERO PUSH3 0x123 JUMPI PUSH3 0x122 PUSH3 0x31 JUMP JUMPDEST JUMPDEST DUP4 PUSH1 0x2 EXP SWAP2 POP DUP5 DUP3 GT ISZERO PUSH3 0x13D JUMPI PUSH3 0x13C PUSH3 0x31 JUMP JUMPDEST JUMPDEST POP PUSH3 0x1AD JUMP JUMPDEST POP PUSH1 0x20 DUP4 LT PUSH2 0x133 DUP4 LT AND PUSH1 0x4E DUP5 LT PUSH1 0xB DUP5 LT AND OR ISZERO PUSH3 0x17E JUMPI DUP3 DUP3 EXP SWAP1 POP DUP4 DUP2 GT ISZERO PUSH3 0x178 JUMPI PUSH3 0x177 PUSH3 0x31 JUMP JUMPDEST JUMPDEST PUSH3 0x1AD JUMP JUMPDEST PUSH3 0x18D DUP5 DUP5 DUP5 PUSH1 0x1 PUSH3 0x6D JUMP JUMPDEST SWAP3 POP SWAP1 POP DUP2 DUP5 DIV DUP2 GT ISZERO PUSH3 0x1A7 JUMPI PUSH3 0x1A6 PUSH3 0x31 JUMP JUMPDEST JUMPDEST DUP2 DUP2 MUL SWAP1 POP JUMPDEST SWAP4 SWAP3 POP POP POP JUMP JUMPDEST PUSH1 0x0 DUP2 SWAP1 POP SWAP2 SWAP1 POP JUMP JUMPDEST PUSH1 0x0 PUSH3 0x1CB DUP3 PUSH3 0x1B4 JUMP JUMPDEST SWAP2 POP PUSH3 0x1D8 DUP4 PUSH3 0x1B4 JUMP JUMPDEST SWAP3 POP PUSH3 0x207 PUSH32 0xFFFFFFFFFFFFFFFFFFFFFFFFFFFFFFFFFFFFFFFFFFFFFFFFFFFFFFFFFFFFFFFF DUP5 DUP5 PUSH3 0xC8 JUMP JUMPDEST SWAP1 POP SWAP3 SWAP2 POP POP JUMP JUMPDEST PUSH2 0x1A11 DUP1 PUSH3 0x21F PUSH1 0x0 CODECOPY PUSH1 0x0 RETURN INVALID PUSH1 0x80 PUSH1 0x40 MSTORE CALLVALUE DUP1 ISZERO PUSH2 0x10 JUMPI PUSH1 0x0 DUP1 REVERT JUMPDEST POP PUSH1 0x4 CALLDATASIZE LT PUSH2 0xEA JUMPI PUSH1 0x0 CALLDATALOAD PUSH1 0xE0 SHR DUP1 PUSH4 0x9BCCA857 GT PUSH2 0x8C JUMPI DUP1 PUSH4 0xCF5303CF GT PUSH2 0x66 JUMPI DUP1 PUSH4 0xCF5303CF EQ PUSH2 0x24F JUMPI DUP1 PUSH4 0xD700D2DF EQ PUSH2 0x26D JUMPI DUP1 PUSH4 0xE4D00FBB EQ PUSH2 0x28B JUMPI DUP1 PUSH4 0xFA8547F6 EQ PUSH2 0x2A7 JUMPI PUSH2 0xEA JUMP JUMPDEST DUP1 PUSH4 0x9BCCA857 EQ PUSH2 0x1E5 JUMPI DUP1 PUSH4 0xB498C579 EQ PUSH2 0x215 JUMPI DUP1 PUSH4 0xCEAD8075 EQ PUSH2 0x231 JUMPI PUSH2 0xEA JUMP JUMPDEST DUP1 PUSH4 0x5EE8D98A GT PUSH2 0xC8 JUMPI DUP1 PUSH4 0x5EE8D98A EQ PUSH2 0x159 JUMPI DUP1 PUSH4 0x6203D51C EQ PUSH2 0x175 JUMPI DUP1 PUSH4 0x85747472 EQ PUSH2 0x193 JUMPI DUP1 PUSH4 0x87ADA616 EQ PUSH2 0x1C9 JUMPI PUSH2 0xEA JUMP JUMPDEST DUP1 PUSH4 0x1D9B62F2 EQ PUSH2 0xEF JUMPI DUP1 PUSH4 0x35E56A1E EQ PUSH2 0x10D JUMPI DUP1 PUSH4 0x4942F358 EQ PUSH2 0x13D JUMPI JUMPDEST PUSH1 0x0 DUP1 REVERT JUMPDEST PUSH2 0xF7 PUSH2 0x2DD JUMP JUMPDEST PUSH1 0x40 MLOAD PUSH2 0x104 SWAP2 SWAP1 PUSH2 0xDCC JUMP JUMPDEST PUSH1 0x40 MLOAD DUP1 SWAP2 SUB SWAP1 RETURN JUMPDEST PUSH2 0x127 PUSH1 0x4 DUP1 CALLDATASIZE SUB DUP2 ADD SWAP1 PUSH2 0x122 SWAP2 SWAP1 PUSH2 0xE27 JUMP JUMPDEST PUSH2 0x2E6 JUMP JUMPDEST PUSH1 0x40 MLOAD PUSH2 0x134 SWAP2 SWAP1 PUSH2 0xEE4 JUMP JUMPDEST PUSH1 0x40 MLOAD DUP1 SWAP2 SUB SWAP1 RETURN JUMPDEST PUSH2 0x157 PUSH1 0x4 DUP1 CALLDATASIZE SUB DUP2 ADD SWAP1 PUSH2 0x152 SWAP2 SWAP1 PUSH2 0x103B JUMP JUMPDEST PUSH2 0x386 JUMP JUMPDEST STOP JUMPDEST PUSH2 0x173 PUSH1 0x4 DUP1 CALLDATASIZE SUB DUP2 ADD SWAP1 PUSH2 0x16E SWAP2 SWAP1 PUSH2 0x103B JUMP JUMPDEST PUSH2 0x4F1 JUMP JUMPDEST STOP JUMPDEST PUSH2 0x17D PUSH2 0x61B JUMP JUMPDEST PUSH1 0x40 MLOAD PUSH2 0x18A SWAP2 SWAP1 PUSH2 0xDCC JUMP JUMPDEST PUSH1 0x40 MLOAD DUP1 SWAP2 SUB SWAP1 RETURN JUMPDEST PUSH2 0x1AD PUSH1 0x4 DUP1 CALLDATASIZE SUB DUP2 ADD SWAP1 PUSH2 0x1A8 SWAP2 SWAP1 PUSH2 0xE27 JUMP JUMPDEST PUSH2 0x621 JUMP JUMPDEST PUSH1 0x40 MLOAD PUSH2 0x1C0 SWAP8 SWAP7 SWAP6 SWAP5 SWAP4 SWAP3 SWAP2 SWAP1 PUSH2 0x1127 JUMP JUMPDEST PUSH1 0x40 MLOAD DUP1 SWAP2 SUB SWAP1 RETURN JUMPDEST PUSH2 0x1E3 PUSH1 0x4 DUP1 CALLDATASIZE SUB DUP2 ADD SWAP1 PUSH2 0x1DE SWAP2 SWAP1 PUSH2 0x103B JUMP JUMPDEST PUSH2 0x818 JUMP JUMPDEST STOP JUMPDEST PUSH2 0x1FF PUSH1 0x4 DUP1 CALLDATASIZE SUB DUP2 ADD SWAP1 PUSH2 0x1FA SWAP2 SWAP1 PUSH2 0xE27 JUMP JUMPDEST PUSH2 0x942 JUMP JUMPDEST PUSH1 0x40 MLOAD PUSH2 0x20C SWAP2 SWAP1 PUSH2 0xDCC JUMP JUMPDEST PUSH1 0x40 MLOAD DUP1 SWAP2 SUB SWAP1 RETURN JUMPDEST PUSH2 0x22F PUSH1 0x4 DUP1 CALLDATASIZE SUB DUP2 ADD SWAP1 PUSH2 0x22A SWAP2 SWAP1 PUSH2 0x11AB JUMP JUMPDEST PUSH2 0x966 JUMP JUMPDEST STOP JUMPDEST PUSH2 0x239 PUSH2 0x98B JUMP JUMPDEST PUSH1 0x40 MLOAD PUSH2 0x246 SWAP2 SWAP1 PUSH2 0xDCC JUMP JUMPDEST PUSH1 0x40 MLOAD DUP1 SWAP2 SUB SWAP1 RETURN JUMPDEST PUSH2 0x257 PUSH2 0x991 JUMP JUMPDEST PUSH1 0x40 MLOAD PUSH2 0x264 SWAP2 SWAP1 PUSH2 0xEE4 JUMP JUMPDEST PUSH1 0x40 MLOAD DUP1 SWAP2 SUB SWAP1 RETURN JUMPDEST PUSH2 0x275 PUSH2 0xA1F JUMP JUMPDEST PUSH1 0x40 MLOAD PUSH2 0x282 SWAP2 SWAP1 PUSH2 0xDCC JUMP JUMPDEST PUSH1 0x40 MLOAD DUP1 SWAP2 SUB SWAP1 RETURN JUMPDEST PUSH2 0x2A5 PUSH1 0x4 DUP1 CALLDATASIZE SUB DUP2 ADD SWAP1 PUSH2 0x2A0 SWAP2 SWAP1 PUSH2 0x1219 JUMP JUMPDEST PUSH2 0xA25 JUMP JUMPDEST STOP JUMPDEST PUSH2 0x2C1 PUSH1 0x4 DUP1 CALLDATASIZE SUB DUP2 ADD SWAP1 PUSH2 0x2BC SWAP2 SWAP1 PUSH2 0xE27 JUMP JUMPDEST PUSH2 0xBCC JUMP JUMPDEST PUSH1 0x40 MLOAD PUSH2 0x2D4 SWAP8 SWAP7 SWAP6 SWAP5 SWAP4 SWAP3 SWAP2 SWAP1 PUSH2 0x1127 JUMP JUMPDEST PUSH1 0x40 MLOAD DUP1 SWAP2 SUB SWAP1 RETURN JUMPDEST PUSH1 0x0 DUP1 SLOAD SWAP1 POP SWAP1 JUMP JUMPDEST PUSH1 0x8 PUSH1 0x20 MSTORE DUP1 PUSH1 0x0 MSTORE PUSH1 0x40 PUSH1 0x0 KECCAK256 PUSH1 0x0 SWAP2 POP SWAP1 POP DUP1 SLOAD PUSH2 0x305 SWAP1 PUSH2 0x1329 JUMP JUMPDEST DUP1 PUSH1 0x1F ADD PUSH1 0x20 DUP1 SWAP2 DIV MUL PUSH1 0x20 ADD PUSH1 0x40 MLOAD SWAP1 DUP2 ADD PUSH1 0x40 MSTORE DUP1 SWAP3 SWAP2 SWAP1 DUP2 DUP2 MSTORE PUSH1 0x20 ADD DUP3 DUP1 SLOAD PUSH2 0x331 SWAP1 PUSH2 0x1329 JUMP JUMPDEST DUP1 ISZERO PUSH2 0x37E JUMPI DUP1 PUSH1 0x1F LT PUSH2 0x353 JUMPI PUSH2 0x100 DUP1 DUP4 SLOAD DIV MUL DUP4 MSTORE SWAP2 PUSH1 0x20 ADD SWAP2 PUSH2 0x37E JUMP JUMPDEST DUP3 ADD SWAP2 SWAP1 PUSH1 0x0 MSTORE PUSH1 0x20 PUSH1 0x0 KECCAK256 SWAP1 JUMPDEST DUP2 SLOAD DUP2 MSTORE SWAP1 PUSH1 0x1 ADD SWAP1 PUSH1 0x20 ADD DUP1 DUP4 GT PUSH2 0x361 JUMPI DUP3 SWAP1 SUB PUSH1 0x1F AND DUP3 ADD SWAP2 JUMPDEST POP POP POP POP POP DUP2 JUMP JUMPDEST PUSH1 0x1 PUSH1 0x4 DUP2 GT ISZERO PUSH2 0x39A JUMPI PUSH2 0x399 PUSH2 0x1097 JUMP JUMPDEST JUMPDEST PUSH1 0x9 PUSH1 0x0 DUP5 DUP2 MSTORE PUSH1 0x20 ADD SWAP1 DUP2 MSTORE PUSH1 0x20 ADD PUSH1 0x0 KECCAK256 PUSH1 0x0 ADD PUSH1 0x0 SWAP1 SLOAD SWAP1 PUSH2 0x100 EXP SWAP1 DIV PUSH1 0xFF AND PUSH1 0x4 DUP2 GT ISZERO PUSH2 0x3D0 JUMPI PUSH2 0x3CF PUSH2 0x1097 JUMP JUMPDEST JUMPDEST EQ PUSH2 0x410 JUMPI PUSH1 0x40 MLOAD PUSH32 0x8C379A000000000000000000000000000000000000000000000000000000000 DUP2 MSTORE PUSH1 0x4 ADD PUSH2 0x407 SWAP1 PUSH2 0x13CC JUMP JUMPDEST PUSH1 0x40 MLOAD DUP1 SWAP2 SUB SWAP1 REVERT JUMPDEST PUSH1 0x0 DUP1 SHL PUSH1 0x8 PUSH1 0x0 DUP1 SLOAD DUP2 MSTORE PUSH1 0x20 ADD SWAP1 DUP2 MSTORE PUSH1 0x20 ADD PUSH1 0x0 KECCAK256 PUSH1 0x40 MLOAD PUSH1 0x20 ADD PUSH2 0x438 SWAP2 SWAP1 PUSH2 0x148F JUMP JUMPDEST PUSH1 0x40 MLOAD PUSH1 0x20 DUP2 DUP4 SUB SUB DUP2 MSTORE SWAP1 PUSH1 0x40 MSTORE DUP1 MLOAD SWAP1 PUSH1 0x20 ADD KECCAK256 SUB PUSH2 0x458 JUMPI PUSH1 0x0 DUP1 REVERT JUMPDEST PUSH1 0x2 PUSH1 0x9 PUSH1 0x0 DUP5 DUP2 MSTORE PUSH1 0x20 ADD SWAP1 DUP2 MSTORE PUSH1 0x20 ADD PUSH1 0x0 KECCAK256 PUSH1 0x0 ADD PUSH1 0x0 PUSH2 0x100 EXP DUP2 SLOAD DUP2 PUSH1 0xFF MUL NOT AND SWAP1 DUP4 PUSH1 0x4 DUP2 GT ISZERO PUSH2 0x492 JUMPI PUSH2 0x491 PUSH2 0x1097 JUMP JUMPDEST JUMPDEST MUL OR SWAP1 SSTORE POP DUP1 PUSH1 0x8 PUSH1 0x0 DUP5 DUP2 MSTORE PUSH1 0x20 ADD SWAP1 DUP2 MSTORE PUSH1 0x20 ADD PUSH1 0x0 KECCAK256 SWAP1 DUP2 PUSH2 0x4B7 SWAP2 SWAP1 PUSH2 0x163D JUMP JUMPDEST POP PUSH32 0x2844C95BF1B4598DA931D527F903501ABC60FE0199C65DA52D5CE818C6C5E961 PUSH1 0x40 MLOAD PUSH2 0x4E5 SWAP1 PUSH2 0x175B JUMP JUMPDEST PUSH1 0x40 MLOAD DUP1 SWAP2 SUB SWAP1 LOG1 POP POP JUMP JUMPDEST PUSH1 0x2 PUSH1 0x4 DUP2 GT ISZERO PUSH2 0x505 JUMPI PUSH2 0x504 PUSH2 0x1097 JUMP JUMPDEST JUMPDEST PUSH1 0x9 PUSH1 0x0 DUP5 DUP2 MSTORE PUSH1 0x20 ADD SWAP1 DUP2 MSTORE PUSH1 0x20 ADD PUSH1 0x0 KECCAK256 PUSH1 0x0 ADD PUSH1 0x0 SWAP1 SLOAD SWAP1 PUSH2 0x100 EXP SWAP1 DIV PUSH1 0xFF AND PUSH1 0x4 DUP2 GT ISZERO PUSH2 0x53B JUMPI PUSH2 0x53A PUSH2 0x1097 JUMP JUMPDEST JUMPDEST EQ PUSH2 0x57B JUMPI PUSH1 0x40 MLOAD PUSH32 0x8C379A000000000000000000000000000000000000000000000000000000000 DUP2 MSTORE PUSH1 0x4 ADD PUSH2 0x572 SWAP1 PUSH2 0x17ED JUMP JUMPDEST PUSH1 0x40 MLOAD DUP1 SWAP2 SUB SWAP1 REVERT JUMPDEST TIMESTAMP PUSH1 0xB DUP2 SWAP1 SSTORE POP PUSH1 0x3 PUSH1 0x9 PUSH1 0x0 DUP5 DUP2 MSTORE PUSH1 0x20 ADD SWAP1 DUP2 MSTORE PUSH1 0x20 ADD PUSH1 0x0 KECCAK256 PUSH1 0x0 ADD PUSH1 0x0 PUSH2 0x100 EXP DUP2 SLOAD DUP2 PUSH1 0xFF MUL NOT AND SWAP1 DUP4 PUSH1 0x4 DUP2 GT ISZERO PUSH2 0x5BC JUMPI PUSH2 0x5BB PUSH2 0x1097 JUMP JUMPDEST JUMPDEST MUL OR SWAP1 SSTORE POP DUP1 PUSH1 0x8 PUSH1 0x0 DUP5 DUP2 MSTORE PUSH1 0x20 ADD SWAP1 DUP2 MSTORE PUSH1 0x20 ADD PUSH1 0x0 KECCAK256 SWAP1 DUP2 PUSH2 0x5E1 SWAP2 SWAP1 PUSH2 0x163D JUMP JUMPDEST POP PUSH32 0x2844C95BF1B4598DA931D527F903501ABC60FE0199C65DA52D5CE818C6C5E961 PUSH1 0x40 MLOAD PUSH2 0x60F SWAP1 PUSH2 0x187F JUMP JUMPDEST PUSH1 0x40 MLOAD DUP1 SWAP2 SUB SWAP1 LOG1 POP POP JUMP JUMPDEST PUSH1 0xA SLOAD DUP2 JUMP JUMPDEST PUSH1 0x3 DUP2 DUP2 SLOAD DUP2 LT PUSH2 0x631 JUMPI PUSH1 0x0 DUP1 REVERT JUMPDEST SWAP1 PUSH1 0x0 MSTORE PUSH1 0x20 PUSH1 0x0 KECCAK256 SWAP1 PUSH1 0x7 MUL ADD PUSH1 0x0 SWAP2 POP SWAP1 POP DUP1 PUSH1 0x0 ADD PUSH1 0x0 SWAP1 SLOAD SWAP1 PUSH2 0x100 EXP SWAP1 DIV PUSH1 0xFF AND SWAP1 DUP1 PUSH1 0x1 ADD DUP1 SLOAD PUSH2 0x667 SWAP1 PUSH2 0x1329 JUMP JUMPDEST DUP1 PUSH1 0x1F ADD PUSH1 0x20 DUP1 SWAP2 DIV MUL PUSH1 0x20 ADD PUSH1 0x40 MLOAD SWAP1 DUP2 ADD PUSH1 0x40 MSTORE DUP1 SWAP3 SWAP2 SWAP1 DUP2 DUP2 MSTORE PUSH1 0x20 ADD DUP3 DUP1 SLOAD PUSH2 0x693 SWAP1 PUSH2 0x1329 JUMP JUMPDEST DUP1 ISZERO PUSH2 0x6E0 JUMPI DUP1 PUSH1 0x1F LT PUSH2 0x6B5 JUMPI PUSH2 0x100 DUP1 DUP4 SLOAD DIV MUL DUP4 MSTORE SWAP2 PUSH1 0x20 ADD SWAP2 PUSH2 0x6E0 JUMP JUMPDEST DUP3 ADD SWAP2 SWAP1 PUSH1 0x0 MSTORE PUSH1 0x20 PUSH1 0x0 KECCAK256 SWAP1 JUMPDEST DUP2 SLOAD DUP2 MSTORE SWAP1 PUSH1 0x1 ADD SWAP1 PUSH1 0x20 ADD DUP1 DUP4 GT PUSH2 0x6C3 JUMPI DUP3 SWAP1 SUB PUSH1 0x1F AND DUP3 ADD SWAP2 JUMPDEST POP POP POP POP POP SWAP1 DUP1 PUSH1 0x2 ADD DUP1 SLOAD PUSH2 0x6F5 SWAP1 PUSH2 0x1329 JUMP JUMPDEST DUP1 PUSH1 0x1F ADD PUSH1 0x20 DUP1 SWAP2 DIV MUL PUSH1 0x20 ADD PUSH1 0x40 MLOAD SWAP1 DUP2 ADD PUSH1 0x40 MSTORE DUP1 SWAP3 SWAP2 SWAP1 DUP2 DUP2 MSTORE PUSH1 0x20 ADD DUP3 DUP1 SLOAD PUSH2 0x721 SWAP1 PUSH2 0x1329 JUMP JUMPDEST DUP1 ISZERO PUSH2 0x76E JUMPI DUP1 PUSH1 0x1F LT PUSH2 0x743 JUMPI PUSH2 0x100 DUP1 DUP4 SLOAD DIV MUL DUP4 MSTORE SWAP2 PUSH1 0x20 ADD SWAP2 PUSH2 0x76E JUMP JUMPDEST DUP3 ADD SWAP2 SWAP1 PUSH1 0x0 MSTORE PUSH1 0x20 PUSH1 0x0 KECCAK256 SWAP1 JUMPDEST DUP2 SLOAD DUP2 MSTORE SWAP1 PUSH1 0x1 ADD SWAP1 PUSH1 0x20 ADD DUP1 DUP4 GT PUSH2 0x751 JUMPI DUP3 SWAP1 SUB PUSH1 0x1F AND DUP3 ADD SWAP2 JUMPDEST POP POP POP POP POP SWAP1 DUP1 PUSH1 0x3 ADD DUP1 SLOAD PUSH2 0x783 SWAP1 PUSH2 0x1329 JUMP JUMPDEST DUP1 PUSH1 0x1F ADD PUSH1 0x20 DUP1 SWAP2 DIV MUL PUSH1 0x20 ADD PUSH1 0x40 MLOAD SWAP1 DUP2 ADD PUSH1 0x40 MSTORE DUP1 SWAP3 SWAP2 SWAP1 DUP2 DUP2 MSTORE PUSH1 0x20 ADD DUP3 DUP1 SLOAD PUSH2 0x7AF SWAP1 PUSH2 0x1329 JUMP JUMPDEST DUP1 ISZERO PUSH2 0x7FC JUMPI DUP1 PUSH1 0x1F LT PUSH2 0x7D1 JUMPI PUSH2 0x100 DUP1 DUP4 SLOAD DIV MUL DUP4 MSTORE SWAP2 PUSH1 0x20 ADD SWAP2 PUSH2 0x7FC JUMP JUMPDEST DUP3 ADD SWAP2 SWAP1 PUSH1 0x0 MSTORE PUSH1 0x20 PUSH1 0x0 KECCAK256 SWAP1 JUMPDEST DUP2 SLOAD DUP2 MSTORE SWAP1 PUSH1 0x1 ADD SWAP1 PUSH1 0x20 ADD DUP1 DUP4 GT PUSH2 0x7DF JUMPI DUP3 SWAP1 SUB PUSH1 0x1F AND DUP3 ADD SWAP2 JUMPDEST POP POP POP POP POP SWAP1 DUP1 PUSH1 0x4 ADD SLOAD SWAP1 DUP1 PUSH1 0x5 ADD SLOAD SWAP1 DUP1 PUSH1 0x6 ADD SLOAD SWAP1 POP DUP8 JUMP JUMPDEST PUSH1 0x0 PUSH1 0x4 DUP2 GT ISZERO PUSH2 0x82C JUMPI PUSH2 0x82B PUSH2 0x1097 JUMP JUMPDEST JUMPDEST PUSH1 0x9 PUSH1 0x0 DUP5 DUP2 MSTORE PUSH1 0x20 ADD SWAP1 DUP2 MSTORE PUSH1 0x20 ADD PUSH1 0x0 KECCAK256 PUSH1 0x0 ADD PUSH1 0x0 SWAP1 SLOAD SWAP1 PUSH2 0x100 EXP SWAP1 DIV PUSH1 0xFF AND PUSH1 0x4 DUP2 GT ISZERO PUSH2 0x862 JUMPI PUSH2 0x861 PUSH2 0x1097 JUMP JUMPDEST JUMPDEST EQ PUSH2 0x8A2 JUMPI PUSH1 0x40 MLOAD PUSH32 0x8C379A000000000000000000000000000000000000000000000000000000000 DUP2 MSTORE PUSH1 0x4 ADD PUSH2 0x899 SWAP1 PUSH2 0x17ED JUMP JUMPDEST PUSH1 0x40 MLOAD DUP1 SWAP2 SUB SWAP1 REVERT JUMPDEST TIMESTAMP PUSH1 0x6 DUP2 SWAP1 SSTORE POP PUSH1 0x1 PUSH1 0x9 PUSH1 0x0 DUP5 DUP2 MSTORE PUSH1 0x20 ADD SWAP1 DUP2 MSTORE PUSH1 0x20 ADD PUSH1 0x0 KECCAK256 PUSH1 0x0 ADD PUSH1 0x0 PUSH2 0x100 EXP DUP2 SLOAD DUP2 PUSH1 0xFF MUL NOT AND SWAP1 DUP4 PUSH1 0x4 DUP2 GT ISZERO PUSH2 0x8E3 JUMPI PUSH2 0x8E2 PUSH2 0x1097 JUMP JUMPDEST JUMPDEST MUL OR SWAP1 SSTORE POP DUP1 PUSH1 0x8 PUSH1 0x0 DUP5 DUP2 MSTORE PUSH1 0x20 ADD SWAP1 DUP2 MSTORE PUSH1 0x20 ADD PUSH1 0x0 KECCAK256 SWAP1 DUP2 PUSH2 0x908 SWAP2 SWAP1 PUSH2 0x163D JUMP JUMPDEST POP PUSH32 0xDEFE02112824E0AE81930C3E55AEEAC58D10E8B531AFDCB3BAD105492EC5A545 PUSH1 0x40 MLOAD PUSH2 0x936 SWAP1 PUSH2 0x187F JUMP JUMPDEST PUSH1 0x40 MLOAD DUP1 SWAP2 SUB SWAP1 LOG1 POP POP JUMP JUMPDEST PUSH1 0x4 DUP2 DUP2 SLOAD DUP2 LT PUSH2 0x952 JUMPI PUSH1 0x0 DUP1 REVERT JUMPDEST SWAP1 PUSH1 0x0 MSTORE PUSH1 0x20 PUSH1 0x0 KECCAK256 ADD PUSH1 0x0 SWAP2 POP SWAP1 POP SLOAD DUP2 JUMP JUMPDEST DUP1 PUSH1 0x8 PUSH1 0x0 DUP1 SLOAD DUP2 MSTORE PUSH1 0x20 ADD SWAP1 DUP2 MSTORE PUSH1 0x20 ADD PUSH1 0x0 KECCAK256 SWAP1 DUP2 PUSH2 0x987 SWAP2 SWAP1 PUSH2 0x163D JUMP JUMPDEST POP POP JUMP JUMPDEST PUSH1 0x0 SLOAD DUP2 JUMP JUMPDEST PUSH1 0x7 DUP1 SLOAD PUSH2 0x99E SWAP1 PUSH2 0x1329 JUMP JUMPDEST DUP1 PUSH1 0x1F ADD PUSH1 0x20 DUP1 SWAP2 DIV MUL PUSH1 0x20 ADD PUSH1 0x40 MLOAD SWAP1 DUP2 ADD PUSH1 0x40 MSTORE DUP1 SWAP3 SWAP2 SWAP1 DUP2 DUP2 MSTORE PUSH1 0x20 ADD DUP3 DUP1 SLOAD PUSH2 0x9CA SWAP1 PUSH2 0x1329 JUMP JUMPDEST DUP1 ISZERO PUSH2 0xA17 JUMPI DUP1 PUSH1 0x1F LT PUSH2 0x9EC JUMPI PUSH2 0x100 DUP1 DUP4 SLOAD DIV MUL DUP4 MSTORE SWAP2 PUSH1 0x20 ADD SWAP2 PUSH2 0xA17 JUMP JUMPDEST DUP3 ADD SWAP2 SWAP1 PUSH1 0x0 MSTORE PUSH1 0x20 PUSH1 0x0 KECCAK256 SWAP1 JUMPDEST DUP2 SLOAD DUP2 MSTORE SWAP1 PUSH1 0x1 ADD SWAP1 PUSH1 0x20 ADD DUP1 DUP4 GT PUSH2 0x9FA JUMPI DUP3 SWAP1 SUB PUSH1 0x1F AND DUP3 ADD SWAP2 JUMPDEST POP POP POP POP POP DUP2 JUMP JUMPDEST PUSH1 0xB SLOAD DUP2 JUMP JUMPDEST TIMESTAMP PUSH1 0x5 DUP2 SWAP1 SSTORE POP DUP6 DUP6 DUP6 PUSH1 0x40 MLOAD PUSH1 0x20 ADD PUSH2 0xA41 SWAP4 SWAP3 SWAP2 SWAP1 PUSH2 0x18D0 JUMP JUMPDEST PUSH1 0x40 MLOAD PUSH1 0x20 DUP2 DUP4 SUB SUB DUP2 MSTORE SWAP1 PUSH1 0x40 MSTORE DUP1 MLOAD SWAP1 PUSH1 0x20 ADD KECCAK256 PUSH1 0x0 SHR PUSH1 0x0 DUP2 SWAP1 SSTORE POP PUSH1 0x2 SLOAD PUSH1 0x0 DUP1 DUP3 DUP3 SLOAD PUSH2 0xA73 SWAP2 SWAP1 PUSH2 0x1930 JUMP JUMPDEST SWAP3 POP POP DUP2 SWAP1 SSTORE POP DUP5 PUSH1 0x9 PUSH1 0x0 DUP1 SLOAD DUP2 MSTORE PUSH1 0x20 ADD SWAP1 DUP2 MSTORE PUSH1 0x20 ADD PUSH1 0x0 KECCAK256 PUSH1 0x1 ADD SWAP1 DUP2 PUSH2 0xA9E SWAP2 SWAP1 PUSH2 0x163D JUMP JUMPDEST POP DUP6 PUSH1 0x9 PUSH1 0x0 DUP1 SLOAD DUP2 MSTORE PUSH1 0x20 ADD SWAP1 DUP2 MSTORE PUSH1 0x20 ADD PUSH1 0x0 KECCAK256 PUSH1 0x3 ADD SWAP1 DUP2 PUSH2 0xAC3 SWAP2 SWAP1 PUSH2 0x163D JUMP JUMPDEST POP DUP4 PUSH1 0x9 PUSH1 0x0 DUP1 SLOAD DUP2 MSTORE PUSH1 0x20 ADD SWAP1 DUP2 MSTORE PUSH1 0x20 ADD PUSH1 0x0 KECCAK256 PUSH1 0x2 ADD SWAP1 DUP2 PUSH2 0xAE8 SWAP2 SWAP1 PUSH2 0x163D JUMP JUMPDEST POP DUP2 PUSH1 0x9 PUSH1 0x0 DUP1 SLOAD DUP2 MSTORE PUSH1 0x20 ADD SWAP1 DUP2 MSTORE PUSH1 0x20 ADD PUSH1 0x0 KECCAK256 PUSH1 0x4 ADD DUP2 SWAP1 SSTORE POP DUP1 PUSH1 0x9 PUSH1 0x0 DUP1 SLOAD DUP2 MSTORE PUSH1 0x20 ADD SWAP1 DUP2 MSTORE PUSH1 0x20 ADD PUSH1 0x0 KECCAK256 PUSH1 0x5 ADD DUP2 SWAP1 SSTORE POP DUP3 PUSH1 0x9 PUSH1 0x0 DUP1 SLOAD DUP2 MSTORE PUSH1 0x20 ADD SWAP1 DUP2 MSTORE PUSH1 0x20 ADD PUSH1 0x0 KECCAK256 PUSH1 0x0 ADD PUSH1 0x0 PUSH2 0x100 EXP DUP2 SLOAD DUP2 PUSH1 0xFF MUL NOT AND SWAP1 DUP4 PUSH1 0x4 DUP2 GT ISZERO PUSH2 0xB5B JUMPI PUSH2 0xB5A PUSH2 0x1097 JUMP JUMPDEST JUMPDEST MUL OR SWAP1 SSTORE POP PUSH1 0x4 PUSH1 0x0 SLOAD SWAP1 DUP1 PUSH1 0x1 DUP2 SLOAD ADD DUP1 DUP3 SSTORE DUP1 SWAP2 POP POP PUSH1 0x1 SWAP1 SUB SWAP1 PUSH1 0x0 MSTORE PUSH1 0x20 PUSH1 0x0 KECCAK256 ADD PUSH1 0x0 SWAP1 SWAP2 SWAP1 SWAP2 SWAP1 SWAP2 POP SSTORE PUSH32 0xE9850CACBEABEB04673CEE1B608FEDF6E3163F0A8DA989D484B5348563E04D02 PUSH1 0x0 SLOAD PUSH1 0x40 MLOAD PUSH2 0xBBC SWAP2 SWAP1 PUSH2 0x19AD JUMP JUMPDEST PUSH1 0x40 MLOAD DUP1 SWAP2 SUB SWAP1 LOG1 POP POP POP POP POP POP JUMP JUMPDEST PUSH1 0x9 PUSH1 0x20 MSTORE DUP1 PUSH1 0x0 MSTORE PUSH1 0x40 PUSH1 0x0 KECCAK256 PUSH1 0x0 SWAP2 POP SWAP1 POP DUP1 PUSH1 0x0 ADD PUSH1 0x0 SWAP1 SLOAD SWAP1 PUSH2 0x100 EXP SWAP1 DIV PUSH1 0xFF AND SWAP1 DUP1 PUSH1 0x1 ADD DUP1 SLOAD PUSH2 0xC02 SWAP1 PUSH2 0x1329 JUMP JUMPDEST DUP1 PUSH1 0x1F ADD PUSH1 0x20 DUP1 SWAP2 DIV MUL PUSH1 0x20 ADD PUSH1 0x40 MLOAD SWAP1 DUP2 ADD PUSH1 0x40 MSTORE DUP1 SWAP3 SWAP2 SWAP1 DUP2 DUP2 MSTORE PUSH1 0x20 ADD DUP3 DUP1 SLOAD PUSH2 0xC2E SWAP1 PUSH2 0x1329 JUMP JUMPDEST DUP1 ISZERO PUSH2 0xC7B JUMPI DUP1 PUSH1 0x1F LT PUSH2 0xC50 JUMPI PUSH2 0x100 DUP1 DUP4 SLOAD DIV MUL DUP4 MSTORE SWAP2 PUSH1 0x20 ADD SWAP2 PUSH2 0xC7B JUMP JUMPDEST DUP3 ADD SWAP2 SWAP1 PUSH1 0x0 MSTORE PUSH1 0x20 PUSH1 0x0 KECCAK256 SWAP1 JUMPDEST DUP2 SLOAD DUP2 MSTORE SWAP1 PUSH1 0x1 ADD SWAP1 PUSH1 0x20 ADD DUP1 DUP4 GT PUSH2 0xC5E JUMPI DUP3 SWAP1 SUB PUSH1 0x1F AND DUP3 ADD SWAP2 JUMPDEST POP POP POP POP POP SWAP1 DUP1 PUSH1 0x2 ADD DUP1 SLOAD PUSH2 0xC90 SWAP1 PUSH2 0x1329 JUMP JUMPDEST DUP1 PUSH1 0x1F ADD PUSH1 0x20 DUP1 SWAP2 DIV MUL PUSH1 0x20 ADD PUSH1 0x40 MLOAD SWAP1 DUP2 ADD PUSH1 0x40 MSTORE DUP1 SWAP3 SWAP2 SWAP1 DUP2 DUP2 MSTORE PUSH1 0x20 ADD DUP3 DUP1 SLOAD PUSH2 0xCBC SWAP1 PUSH2 0x1329 JUMP JUMPDEST DUP1 ISZERO PUSH2 0xD09 JUMPI DUP1 PUSH1 0x1F LT PUSH2 0xCDE JUMPI PUSH2 0x100 DUP1 DUP4 SLOAD DIV MUL DUP4 MSTORE SWAP2 PUSH1 0x20 ADD SWAP2 PUSH2 0xD09 JUMP JUMPDEST DUP3 ADD SWAP2 SWAP1 PUSH1 0x0 MSTORE PUSH1 0x20 PUSH1 0x0 KECCAK256 SWAP1 JUMPDEST DUP2 SLOAD DUP2 MSTORE SWAP1 PUSH1 0x1 ADD SWAP1 PUSH1 0x20 ADD DUP1 DUP4 GT PUSH2 0xCEC JUMPI DUP3 SWAP1 SUB PUSH1 0x1F AND DUP3 ADD SWAP2 JUMPDEST POP POP POP POP POP SWAP1 DUP1 PUSH1 0x3 ADD DUP1 SLOAD PUSH2 0xD1E SWAP1 PUSH2 0x1329 JUMP JUMPDEST DUP1 PUSH1 0x1F ADD PUSH1 0x20 DUP1 SWAP2 DIV MUL PUSH1 0x20 ADD PUSH1 0x40 MLOAD SWAP1 DUP2 ADD PUSH1 0x40 MSTORE DUP1 SWAP3 SWAP2 SWAP1 DUP2 DUP2 MSTORE PUSH1 0x20 ADD DUP3 DUP1 SLOAD PUSH2 0xD4A SWAP1 PUSH2 0x1329 JUMP JUMPDEST DUP1 ISZERO PUSH2 0xD97 JUMPI DUP1 PUSH1 0x1F LT PUSH2 0xD6C JUMPI PUSH2 0x100 DUP1 DUP4 SLOAD DIV MUL DUP4 MSTORE SWAP2 PUSH1 0x20 ADD SWAP2 PUSH2 0xD97 JUMP JUMPDEST DUP3 ADD SWAP2 SWAP1 PUSH1 0x0 MSTORE PUSH1 0x20 PUSH1 0x0 KECCAK256 SWAP1 JUMPDEST DUP2 SLOAD DUP2 MSTORE SWAP1 PUSH1 0x1 ADD SWAP1 PUSH1 0x20 ADD DUP1 DUP4 GT PUSH2 0xD7A JUMPI DUP3 SWAP1 SUB PUSH1 0x1F AND DUP3 ADD SWAP2 JUMPDEST POP POP POP POP POP SWAP1 DUP1 PUSH1 0x4 ADD SLOAD SWAP1 DUP1 PUSH1 0x5 ADD SLOAD SWAP1 DUP1 PUSH1 0x6 ADD SLOAD SWAP1 POP DUP8 JUMP JUMPDEST PUSH1 0x0 DUP2 SWAP1 POP SWAP2 SWAP1 POP JUMP JUMPDEST PUSH2 0xDC6 DUP2 PUSH2 0xDB3 JUMP JUMPDEST DUP3 MSTORE POP POP JUMP JUMPDEST PUSH1 0x0 PUSH1 0x20 DUP3 ADD SWAP1 POP PUSH2 0xDE1 PUSH1 0x0 DUP4 ADD DUP5 PUSH2 0xDBD JUMP JUMPDEST SWAP3 SWAP2 POP POP JUMP JUMPDEST PUSH1 0x0 PUSH1 0x40 MLOAD SWAP1 POP SWAP1 JUMP JUMPDEST PUSH1 0x0 DUP1 REVERT JUMPDEST PUSH1 0x0 DUP1 REVERT JUMPDEST PUSH2 0xE04 DUP2 PUSH2 0xDB3 JUMP JUMPDEST DUP2 EQ PUSH2 0xE0F JUMPI PUSH1 0x0 DUP1 REVERT JUMPDEST POP JUMP JUMPDEST PUSH1 0x0 DUP2 CALLDATALOAD SWAP1 POP PUSH2 0xE21 DUP2 PUSH2 0xDFB JUMP JUMPDEST SWAP3 SWAP2 POP POP JUMP JUMPDEST PUSH1 0x0 PUSH1 0x20 DUP3 DUP5 SUB SLT ISZERO PUSH2 0xE3D JUMPI PUSH2 0xE3C PUSH2 0xDF1 JUMP JUMPDEST JUMPDEST PUSH1 0x0 PUSH2 0xE4B DUP5 DUP3 DUP6 ADD PUSH2 0xE12 JUMP JUMPDEST SWAP2 POP POP SWAP3 SWAP2 POP POP JUMP JUMPDEST PUSH1 0x0 DUP2 MLOAD SWAP1 POP SWAP2 SWAP1 POP JUMP JUMPDEST PUSH1 0x0 DUP3 DUP3 MSTORE PUSH1 0x20 DUP3 ADD SWAP1 POP SWAP3 SWAP2 POP POP JUMP JUMPDEST PUSH1 0x0 JUMPDEST DUP4 DUP2 LT ISZERO PUSH2 0xE8E JUMPI DUP1 DUP3 ADD MLOAD DUP2 DUP5 ADD MSTORE PUSH1 0x20 DUP2 ADD SWAP1 POP PUSH2 0xE73 JUMP JUMPDEST PUSH1 0x0 DUP5 DUP5 ADD MSTORE POP POP POP POP JUMP JUMPDEST PUSH1 0x0 PUSH1 0x1F NOT PUSH1 0x1F DUP4 ADD AND SWAP1 POP SWAP2 SWAP1 POP JUMP JUMPDEST PUSH1 0x0 PUSH2 0xEB6 DUP3 PUSH2 0xE54 JUMP JUMPDEST PUSH2 0xEC0 DUP2 DUP6 PUSH2 0xE5F JUMP JUMPDEST SWAP4 POP PUSH2 0xED0 DUP2 DUP6 PUSH1 0x20 DUP7 ADD PUSH2 0xE70 JUMP JUMPDEST PUSH2 0xED9 DUP2 PUSH2 0xE9A JUMP JUMPDEST DUP5 ADD SWAP2 POP POP SWAP3 SWAP2 POP POP JUMP JUMPDEST PUSH1 0x0 PUSH1 0x20 DUP3 ADD SWAP1 POP DUP2 DUP2 SUB PUSH1 0x0 DUP4 ADD MSTORE PUSH2 0xEFE DUP2 DUP5 PUSH2 0xEAB JUMP JUMPDEST SWAP1 POP SWAP3 SWAP2 POP POP JUMP JUMPDEST PUSH1 0x0 DUP1 REVERT JUMPDEST PUSH1 0x0 DUP1 REVERT JUMPDEST PUSH32 0x4E487B7100000000000000000000000000000000000000000000000000000000 PUSH1 0x0 MSTORE PUSH1 0x41 PUSH1 0x4 MSTORE PUSH1 0x24 PUSH1 0x0 REVERT JUMPDEST PUSH2 0xF48 DUP3 PUSH2 0xE9A JUMP JUMPDEST DUP2 ADD DUP2 DUP2 LT PUSH8 0xFFFFFFFFFFFFFFFF DUP3 GT OR ISZERO PUSH2 0xF67 JUMPI PUSH2 0xF66 PUSH2 0xF10 JUMP JUMPDEST JUMPDEST DUP1 PUSH1 0x40 MSTORE POP POP POP JUMP JUMPDEST PUSH1 0x0 PUSH2 0xF7A PUSH2 0xDE7 JUMP JUMPDEST SWAP1 POP PUSH2 0xF86 DUP3 DUP3 PUSH2 0xF3F JUMP JUMPDEST SWAP2 SWAP1 POP JUMP JUMPDEST PUSH1 0x0 PUSH8 0xFFFFFFFFFFFFFFFF DUP3 GT ISZERO PUSH2 0xFA6 JUMPI PUSH2 0xFA5 PUSH2 0xF10 JUMP JUMPDEST JUMPDEST PUSH2 0xFAF DUP3 PUSH2 0xE9A JUMP JUMPDEST SWAP1 POP PUSH1 0x20 DUP2 ADD SWAP1 POP SWAP2 SWAP1 POP JUMP JUMPDEST DUP3 DUP2 DUP4 CALLDATACOPY PUSH1 0x0 DUP4 DUP4 ADD MSTORE POP POP POP JUMP JUMPDEST PUSH1 0x0 PUSH2 0xFDE PUSH2 0xFD9 DUP5 PUSH2 0xF8B JUMP JUMPDEST PUSH2 0xF70 JUMP JUMPDEST SWAP1 POP DUP3 DUP2 MSTORE PUSH1 0x20 DUP2 ADD DUP5 DUP5 DUP5 ADD GT ISZERO PUSH2 0xFFA JUMPI PUSH2 0xFF9 PUSH2 0xF0B JUMP JUMPDEST JUMPDEST PUSH2 0x1005 DUP5 DUP3 DUP6 PUSH2 0xFBC JUMP JUMPDEST POP SWAP4 SWAP3 POP POP POP JUMP JUMPDEST PUSH1 0x0 DUP3 PUSH1 0x1F DUP4 ADD SLT PUSH2 0x1022 JUMPI PUSH2 0x1021 PUSH2 0xF06 JUMP JUMPDEST JUMPDEST DUP2 CALLDATALOAD PUSH2 0x1032 DUP5 DUP3 PUSH1 0x20 DUP7 ADD PUSH2 0xFCB JUMP JUMPDEST SWAP2 POP POP SWAP3 SWAP2 POP POP JUMP JUMPDEST PUSH1 0x0 DUP1 PUSH1 0x40 DUP4 DUP6 SUB SLT ISZERO PUSH2 0x1052 JUMPI PUSH2 0x1051 PUSH2 0xDF1 JUMP JUMPDEST JUMPDEST PUSH1 0x0 PUSH2 0x1060 DUP6 DUP3 DUP7 ADD PUSH2 0xE12 JUMP JUMPDEST SWAP3 POP POP PUSH1 0x20 DUP4 ADD CALLDATALOAD PUSH8 0xFFFFFFFFFFFFFFFF DUP2 GT ISZERO PUSH2 0x1081 JUMPI PUSH2 0x1080 PUSH2 0xDF6 JUMP JUMPDEST JUMPDEST PUSH2 0x108D DUP6 DUP3 DUP7 ADD PUSH2 0x100D JUMP JUMPDEST SWAP2 POP POP SWAP3 POP SWAP3 SWAP1 POP JUMP JUMPDEST PUSH32 0x4E487B7100000000000000000000000000000000000000000000000000000000 PUSH1 0x0 MSTORE PUSH1 0x21 PUSH1 0x4 MSTORE PUSH1 0x24 PUSH1 0x0 REVERT JUMPDEST PUSH1 0x5 DUP2 LT PUSH2 0x10D7 JUMPI PUSH2 0x10D6 PUSH2 0x1097 JUMP JUMPDEST JUMPDEST POP JUMP JUMPDEST PUSH1 0x0 DUP2 SWAP1 POP PUSH2 0x10E8 DUP3 PUSH2 0x10C6 JUMP JUMPDEST SWAP2 SWAP1 POP JUMP JUMPDEST PUSH1 0x0 PUSH2 0x10F8 DUP3 PUSH2 0x10DA JUMP JUMPDEST SWAP1 POP SWAP2 SWAP1 POP JUMP JUMPDEST PUSH2 0x1108 DUP2 PUSH2 0x10ED JUMP JUMPDEST DUP3 MSTORE POP POP JUMP JUMPDEST PUSH1 0x0 DUP2 SWAP1 POP SWAP2 SWAP1 POP JUMP JUMPDEST PUSH2 0x1121 DUP2 PUSH2 0x110E JUMP JUMPDEST DUP3 MSTORE POP POP JUMP JUMPDEST PUSH1 0x0 PUSH1 0xE0 DUP3 ADD SWAP1 POP PUSH2 0x113C PUSH1 0x0 DUP4 ADD DUP11 PUSH2 0x10FF JUMP JUMPDEST DUP2 DUP2 SUB PUSH1 0x20 DUP4 ADD MSTORE PUSH2 0x114E DUP2 DUP10 PUSH2 0xEAB JUMP JUMPDEST SWAP1 POP DUP2 DUP2 SUB PUSH1 0x40 DUP4 ADD MSTORE PUSH2 0x1162 DUP2 DUP9 PUSH2 0xEAB JUMP JUMPDEST SWAP1 POP DUP2 DUP2 SUB PUSH1 0x60 DUP4 ADD MSTORE PUSH2 0x1176 DUP2 DUP8 PUSH2 0xEAB JUMP JUMPDEST SWAP1 POP PUSH2 0x1185 PUSH1 0x80 DUP4 ADD DUP7 PUSH2 0xDBD JUMP JUMPDEST PUSH2 0x1192 PUSH1 0xA0 DUP4 ADD DUP6 PUSH2 0xDBD JUMP JUMPDEST PUSH2 0x119F PUSH1 0xC0 DUP4 ADD DUP5 PUSH2 0x1118 JUMP JUMPDEST SWAP9 SWAP8 POP POP POP POP POP POP POP POP JUMP JUMPDEST PUSH1 0x0 PUSH1 0x20 DUP3 DUP5 SUB SLT ISZERO PUSH2 0x11C1 JUMPI PUSH2 0x11C0 PUSH2 0xDF1 JUMP JUMPDEST JUMPDEST PUSH1 0x0 DUP3 ADD CALLDATALOAD PUSH8 0xFFFFFFFFFFFFFFFF DUP2 GT ISZERO PUSH2 0x11DF JUMPI PUSH2 0x11DE PUSH2 0xDF6 JUMP JUMPDEST JUMPDEST PUSH2 0x11EB DUP5 DUP3 DUP6 ADD PUSH2 0x100D JUMP JUMPDEST SWAP2 POP POP SWAP3 SWAP2 POP POP JUMP JUMPDEST PUSH1 0x5 DUP2 LT PUSH2 0x1201 JUMPI PUSH1 0x0 DUP1 REVERT JUMPDEST POP JUMP JUMPDEST PUSH1 0x0 DUP2 CALLDATALOAD SWAP1 POP PUSH2 0x1213 DUP2 PUSH2 0x11F4 JUMP JUMPDEST SWAP3 SWAP2 POP POP JUMP JUMPDEST PUSH1 0x0 DUP1 PUSH1 0x0 DUP1 PUSH1 0x0 DUP1 PUSH1 0xC0 DUP8 DUP10 SUB SLT ISZERO PUSH2 0x1236 JUMPI PUSH2 0x1235 PUSH2 0xDF1 JUMP JUMPDEST JUMPDEST PUSH1 0x0 DUP8 ADD CALLDATALOAD PUSH8 0xFFFFFFFFFFFFFFFF DUP2 GT ISZERO PUSH2 0x1254 JUMPI PUSH2 0x1253 PUSH2 0xDF6 JUMP JUMPDEST JUMPDEST PUSH2 0x1260 DUP10 DUP3 DUP11 ADD PUSH2 0x100D JUMP JUMPDEST SWAP7 POP POP PUSH1 0x20 DUP8 ADD CALLDATALOAD PUSH8 0xFFFFFFFFFFFFFFFF DUP2 GT ISZERO PUSH2 0x1281 JUMPI PUSH2 0x1280 PUSH2 0xDF6 JUMP JUMPDEST JUMPDEST PUSH2 0x128D DUP10 DUP3 DUP11 ADD PUSH2 0x100D JUMP JUMPDEST SWAP6 POP POP PUSH1 0x40 DUP8 ADD CALLDATALOAD PUSH8 0xFFFFFFFFFFFFFFFF DUP2 GT ISZERO PUSH2 0x12AE JUMPI PUSH2 0x12AD PUSH2 0xDF6 JUMP JUMPDEST JUMPDEST PUSH2 0x12BA DUP10 DUP3 DUP11 ADD PUSH2 0x100D JUMP JUMPDEST SWAP5 POP POP PUSH1 0x60 PUSH2 0x12CB DUP10 DUP3 DUP11 ADD PUSH2 0x1204 JUMP JUMPDEST SWAP4 POP POP PUSH1 0x80 PUSH2 0x12DC DUP10 DUP3 DUP11 ADD PUSH2 0xE12 JUMP JUMPDEST SWAP3 POP POP PUSH1 0xA0 PUSH2 0x12ED DUP10 DUP3 DUP11 ADD PUSH2 0xE12 JUMP JUMPDEST SWAP2 POP POP SWAP3 SWAP6 POP SWAP3 SWAP6 POP SWAP3 SWAP6 JUMP JUMPDEST PUSH32 0x4E487B7100000000000000000000000000000000000000000000000000000000 PUSH1 0x0 MSTORE PUSH1 0x22 PUSH1 0x4 MSTORE PUSH1 0x24 PUSH1 0x0 REVERT JUMPDEST PUSH1 0x0 PUSH1 0x2 DUP3 DIV SWAP1 POP PUSH1 0x1 DUP3 AND DUP1 PUSH2 0x1341 JUMPI PUSH1 0x7F DUP3 AND SWAP2 POP JUMPDEST PUSH1 0x20 DUP3 LT DUP2 SUB PUSH2 0x1354 JUMPI PUSH2 0x1353 PUSH2 0x12FA JUMP JUMPDEST JUMPDEST POP SWAP2 SWAP1 POP JUMP JUMPDEST PUSH32 0x6D656469636174696F6E206973206E6F74206469737061746368656420796574 PUSH1 0x0 DUP3 ADD MSTORE PUSH32 0x2066726F6D206D616E7566616374757265720000000000000000000000000000 PUSH1 0x20 DUP3 ADD MSTORE POP JUMP JUMPDEST PUSH1 0x0 PUSH2 0x13B6 PUSH1 0x32 DUP4 PUSH2 0xE5F JUMP JUMPDEST SWAP2 POP PUSH2 0x13C1 DUP3 PUSH2 0x135A JUMP JUMPDEST PUSH1 0x40 DUP3 ADD SWAP1 POP SWAP2 SWAP1 POP JUMP JUMPDEST PUSH1 0x0 PUSH1 0x20 DUP3 ADD SWAP1 POP DUP2 DUP2 SUB PUSH1 0x0 DUP4 ADD MSTORE PUSH2 0x13E5 DUP2 PUSH2 0x13A9 JUMP JUMPDEST SWAP1 POP SWAP2 SWAP1 POP JUMP JUMPDEST PUSH1 0x0 DUP2 SWAP1 POP SWAP3 SWAP2 POP POP JUMP JUMPDEST PUSH1 0x0 DUP2 SWAP1 POP DUP2 PUSH1 0x0 MSTORE PUSH1 0x20 PUSH1 0x0 KECCAK256 SWAP1 POP SWAP2 SWAP1 POP JUMP JUMPDEST PUSH1 0x0 DUP2 SLOAD PUSH2 0x1419 DUP2 PUSH2 0x1329 JUMP JUMPDEST PUSH2 0x1423 DUP2 DUP7 PUSH2 0x13EC JUMP JUMPDEST SWAP5 POP PUSH1 0x1 DUP3 AND PUSH1 0x0 DUP2 EQ PUSH2 0x143E JUMPI PUSH1 0x1 DUP2 EQ PUSH2 0x1453 JUMPI PUSH2 0x1486 JUMP JUMPDEST PUSH1 0xFF NOT DUP4 AND DUP7 MSTORE DUP2 ISZERO ISZERO DUP3 MUL DUP7 ADD SWAP4 POP PUSH2 0x1486 JUMP JUMPDEST PUSH2 0x145C DUP6 PUSH2 0x13F7 JUMP JUMPDEST PUSH1 0x0 JUMPDEST DUP4 DUP2 LT ISZERO PUSH2 0x147E JUMPI DUP2 SLOAD DUP2 DUP10 ADD MSTORE PUSH1 0x1 DUP3 ADD SWAP2 POP PUSH1 0x20 DUP2 ADD SWAP1 POP PUSH2 0x145F JUMP JUMPDEST DUP4 DUP9 ADD SWAP6 POP POP POP JUMPDEST POP POP POP SWAP3 SWAP2 POP POP JUMP JUMPDEST PUSH1 0x0 PUSH2 0x149B DUP3 DUP5 PUSH2 0x140C JUMP JUMPDEST SWAP2 POP DUP2 SWAP1 POP SWAP3 SWAP2 POP POP JUMP JUMPDEST PUSH1 0x0 PUSH1 0x20 PUSH1 0x1F DUP4 ADD DIV SWAP1 POP SWAP2 SWAP1 POP JUMP JUMPDEST PUSH1 0x0 DUP3 DUP3 SHL SWAP1 POP SWAP3 SWAP2 POP POP JUMP JUMPDEST PUSH1 0x0 PUSH1 0x8 DUP4 MUL PUSH2 0x14F3 PUSH32 0xFFFFFFFFFFFFFFFFFFFFFFFFFFFFFFFFFFFFFFFFFFFFFFFFFFFFFFFFFFFFFFFF DUP3 PUSH2 0x14B6 JUMP JUMPDEST PUSH2 0x14FD DUP7 DUP4 PUSH2 0x14B6 JUMP JUMPDEST SWAP6 POP DUP1 NOT DUP5 AND SWAP4 POP DUP1 DUP7 AND DUP5 OR SWAP3 POP POP POP SWAP4 SWAP3 POP POP POP JUMP JUMPDEST PUSH1 0x0 DUP2 SWAP1 POP SWAP2 SWAP1 POP JUMP JUMPDEST PUSH1 0x0 PUSH2 0x153A PUSH2 0x1535 PUSH2 0x1530 DUP5 PUSH2 0xDB3 JUMP JUMPDEST PUSH2 0x1515 JUMP JUMPDEST PUSH2 0xDB3 JUMP JUMPDEST SWAP1 POP SWAP2 SWAP1 POP JUMP JUMPDEST PUSH1 0x0 DUP2 SWAP1 POP SWAP2 SWAP1 POP JUMP JUMPDEST PUSH2 0x1554 DUP4 PUSH2 0x151F JUMP JUMPDEST PUSH2 0x1568 PUSH2 0x1560 DUP3 PUSH2 0x1541 JUMP JUMPDEST DUP5 DUP5 SLOAD PUSH2 0x14C3 JUMP JUMPDEST DUP3 SSTORE POP POP POP POP JUMP JUMPDEST PUSH1 0x0 SWAP1 JUMP JUMPDEST PUSH2 0x157D PUSH2 0x1570 JUMP JUMPDEST PUSH2 0x1588 DUP2 DUP5 DUP5 PUSH2 0x154B JUMP JUMPDEST POP POP POP JUMP JUMPDEST JUMPDEST DUP2 DUP2 LT ISZERO PUSH2 0x15AC JUMPI PUSH2 0x15A1 PUSH1 0x0 DUP3 PUSH2 0x1575 JUMP JUMPDEST PUSH1 0x1 DUP2 ADD SWAP1 POP PUSH2 0x158E JUMP JUMPDEST POP POP JUMP JUMPDEST PUSH1 0x1F DUP3 GT ISZERO PUSH2 0x15F1 JUMPI PUSH2 0x15C2 DUP2 PUSH2 0x13F7 JUMP JUMPDEST PUSH2 0x15CB DUP5 PUSH2 0x14A6 JUMP JUMPDEST DUP2 ADD PUSH1 0x20 DUP6 LT ISZERO PUSH2 0x15DA JUMPI DUP2 SWAP1 POP JUMPDEST PUSH2 0x15EE PUSH2 0x15E6 DUP6 PUSH2 0x14A6 JUMP JUMPDEST DUP4 ADD DUP3 PUSH2 0x158D JUMP JUMPDEST POP POP JUMPDEST POP POP POP JUMP JUMPDEST PUSH1 0x0 DUP3 DUP3 SHR SWAP1 POP SWAP3 SWAP2 POP POP JUMP JUMPDEST PUSH1 0x0 PUSH2 0x1614 PUSH1 0x0 NOT DUP5 PUSH1 0x8 MUL PUSH2 0x15F6 JUMP JUMPDEST NOT DUP1 DUP4 AND SWAP2 POP POP SWAP3 SWAP2 POP POP JUMP JUMPDEST PUSH1 0x0 PUSH2 0x162D DUP4 DUP4 PUSH2 0x1603 JUMP JUMPDEST SWAP2 POP DUP3 PUSH1 0x2 MUL DUP3 OR SWAP1 POP SWAP3 SWAP2 POP POP JUMP JUMPDEST PUSH2 0x1646 DUP3 PUSH2 0xE54 JUMP JUMPDEST PUSH8 0xFFFFFFFFFFFFFFFF DUP2 GT ISZERO PUSH2 0x165F JUMPI PUSH2 0x165E PUSH2 0xF10 JUMP JUMPDEST JUMPDEST PUSH2 0x1669 DUP3 SLOAD PUSH2 0x1329 JUMP JUMPDEST PUSH2 0x1674 DUP3 DUP3 DUP6 PUSH2 0x15B0 JUMP JUMPDEST PUSH1 0x0 PUSH1 0x20 SWAP1 POP PUSH1 0x1F DUP4 GT PUSH1 0x1 DUP2 EQ PUSH2 0x16A7 JUMPI PUSH1 0x0 DUP5 ISZERO PUSH2 0x1695 JUMPI DUP3 DUP8 ADD MLOAD SWAP1 POP JUMPDEST PUSH2 0x169F DUP6 DUP3 PUSH2 0x1621 JUMP JUMPDEST DUP7 SSTORE POP PUSH2 0x1707 JUMP JUMPDEST PUSH1 0x1F NOT DUP5 AND PUSH2 0x16B5 DUP7 PUSH2 0x13F7 JUMP JUMPDEST PUSH1 0x0 JUMPDEST DUP3 DUP2 LT ISZERO PUSH2 0x16DD JUMPI DUP5 DUP10 ADD MLOAD DUP3 SSTORE PUSH1 0x1 DUP3 ADD SWAP2 POP PUSH1 0x20 DUP6 ADD SWAP5 POP PUSH1 0x20 DUP2 ADD SWAP1 POP PUSH2 0x16B8 JUMP JUMPDEST DUP7 DUP4 LT ISZERO PUSH2 0x16FA JUMPI DUP5 DUP10 ADD MLOAD PUSH2 0x16F6 PUSH1 0x1F DUP10 AND DUP3 PUSH2 0x1603 JUMP JUMPDEST DUP4 SSTORE POP JUMPDEST PUSH1 0x1 PUSH1 0x2 DUP9 MUL ADD DUP9 SSTORE POP POP POP JUMPDEST POP POP POP POP POP POP JUMP JUMPDEST PUSH32 0x7665726669636174696F6E20436F6D706C657465000000000000000000000000 PUSH1 0x0 DUP3 ADD MSTORE POP JUMP JUMPDEST PUSH1 0x0 PUSH2 0x1745 PUSH1 0x14 DUP4 PUSH2 0xE5F JUMP JUMPDEST SWAP2 POP PUSH2 0x1750 DUP3 PUSH2 0x170F JUMP JUMPDEST PUSH1 0x20 DUP3 ADD SWAP1 POP SWAP2 SWAP1 POP JUMP JUMPDEST PUSH1 0x0 PUSH1 0x20 DUP3 ADD SWAP1 POP DUP2 DUP2 SUB PUSH1 0x0 DUP4 ADD MSTORE PUSH2 0x1774 DUP2 PUSH2 0x1738 JUMP JUMPDEST SWAP1 POP SWAP2 SWAP1 POP JUMP JUMPDEST PUSH32 0x6D656469636174696F6E206973206E6F74207965742075706C6F616420696E20 PUSH1 0x0 DUP3 ADD MSTORE PUSH32 0x636861696E000000000000000000000000000000000000000000000000000000 PUSH1 0x20 DUP3 ADD MSTORE POP JUMP JUMPDEST PUSH1 0x0 PUSH2 0x17D7 PUSH1 0x25 DUP4 PUSH2 0xE5F JUMP JUMPDEST SWAP2 POP PUSH2 0x17E2 DUP3 PUSH2 0x177B JUMP JUMPDEST PUSH1 0x40 DUP3 ADD SWAP1 POP SWAP2 SWAP1 POP JUMP JUMPDEST PUSH1 0x0 PUSH1 0x20 DUP3 ADD SWAP1 POP DUP2 DUP2 SUB PUSH1 0x0 DUP4 ADD MSTORE PUSH2 0x1806 DUP2 PUSH2 0x17CA JUMP JUMPDEST SWAP1 POP SWAP2 SWAP1 POP JUMP JUMPDEST PUSH32 0x4469737061746368696E6720636F6D706C657465207375636365737366756C6C PUSH1 0x0 DUP3 ADD MSTORE PUSH32 0x7900000000000000000000000000000000000000000000000000000000000000 PUSH1 0x20 DUP3 ADD MSTORE POP JUMP JUMPDEST PUSH1 0x0 PUSH2 0x1869 PUSH1 0x21 DUP4 PUSH2 0xE5F JUMP JUMPDEST SWAP2 POP PUSH2 0x1874 DUP3 PUSH2 0x180D JUMP JUMPDEST PUSH1 0x40 DUP3 ADD SWAP1 POP SWAP2 SWAP1 POP JUMP JUMPDEST PUSH1 0x0 PUSH1 0x20 DUP3 ADD SWAP1 POP DUP2 DUP2 SUB PUSH1 0x0 DUP4 ADD MSTORE PUSH2 0x1898 DUP2 PUSH2 0x185C JUMP JUMPDEST SWAP1 POP SWAP2 SWAP1 POP JUMP JUMPDEST PUSH1 0x0 PUSH2 0x18AA DUP3 PUSH2 0xE54 JUMP JUMPDEST PUSH2 0x18B4 DUP2 DUP6 PUSH2 0x13EC JUMP JUMPDEST SWAP4 POP PUSH2 0x18C4 DUP2 DUP6 PUSH1 0x20 DUP7 ADD PUSH2 0xE70 JUMP JUMPDEST DUP1 DUP5 ADD SWAP2 POP POP SWAP3 SWAP2 POP POP JUMP JUMPDEST PUSH1 0x0 PUSH2 0x18DC DUP3 DUP7 PUSH2 0x189F JUMP JUMPDEST SWAP2 POP PUSH2 0x18E8 DUP3 DUP6 PUSH2 0x189F JUMP JUMPDEST SWAP2 POP PUSH2 0x18F4 DUP3 DUP5 PUSH2 0x189F JUMP JUMPDEST SWAP2 POP DUP2 SWAP1 POP SWAP5 SWAP4 POP POP POP POP JUMP JUMPDEST PUSH32 0x4E487B7100000000000000000000000000000000000000000000000000000000 PUSH1 0x0 MSTORE PUSH1 0x12 PUSH1 0x4 MSTORE PUSH1 0x24 PUSH1 0x0 REVERT JUMPDEST PUSH1 0x0 PUSH2 0x193B DUP3 PUSH2 0xDB3 JUMP JUMPDEST SWAP2 POP PUSH2 0x1946 DUP4 PUSH2 0xDB3 JUMP JUMPDEST SWAP3 POP DUP3 PUSH2 0x1956 JUMPI PUSH2 0x1955 PUSH2 0x1901 JUMP JUMPDEST JUMPDEST DUP3 DUP3 MOD SWAP1 POP SWAP3 SWAP2 POP POP JUMP JUMPDEST PUSH32 0x73657269616C206E756D626572206F6620746865206D656469636174696F6E00 PUSH1 0x0 DUP3 ADD MSTORE POP JUMP JUMPDEST PUSH1 0x0 PUSH2 0x1997 PUSH1 0x1F DUP4 PUSH2 0xE5F JUMP JUMPDEST SWAP2 POP PUSH2 0x19A2 DUP3 PUSH2 0x1961 JUMP JUMPDEST PUSH1 0x20 DUP3 ADD SWAP1 POP SWAP2 SWAP1 POP JUMP JUMPDEST PUSH1 0x0 PUSH1 0x40 DUP3 ADD SWAP1 POP DUP2 DUP2 SUB PUSH1 0x0 DUP4 ADD MSTORE PUSH2 0x19C6 DUP2 PUSH2 0x198A JUMP JUMPDEST SWAP1 POP PUSH2 0x19D5 PUSH1 0x20 DUP4 ADD DUP5 PUSH2 0xDBD JUMP JUMPDEST SWAP3 SWAP2 POP POP JUMP INVALID LOG2 PUSH5 0x6970667358 0x22 SLT KECCAK256 PUSH29 0xF0A4BF6E1DA6CB8A0C68416E966B389E11B666105E11EE2A90DD8F1A72 0xD2 PUSH8 0x64736F6C63430008 SLT STOP CALLER "},"methodIdentifiers":{"IpfsRevision(uint256)":"35e56a1e","Mandispatch(uint256,string)":"87ada616","Medicine_mapper_first(string)":"b498c579","Serialnumbers()":"1d9b62f2","Sn(uint256)":"9bcca857","Supdispatch(uint256,string)":"5ee8d98a","addprouct(string,string,string,uint8,uint256,uint256)":"e4d00fbb","checker()":"cf5303cf","dispatchedtimeBySupplier()":"d700d2df","medd(uint256)":"85747472","medications(uint256)":"fa8547f6","recievedtimeBySupplier()":"6203d51c","serialnumber()":"cead8075","verify(uint256,string)":"4942f358"}}}}}