{"contracts/pharmacist.sol":{"Pharmacist":{"abi":[{"anonymous":false,"inputs":[{"indexed":false,"internalType":"string","name":"message","type":"string"}],"name":"Mdispatch","type":"event"},{"anonymous":false,"inputs":[{"indexed":false,"internalType":"string","name":"message","type":"string"}],"name":"Pdispatch","type":"event"},{"anonymous":false,"inputs":[{"indexed":false,"internalType":"string","name":"message","type":"string"}],"name":"Status","type":"event"},{"anonymous":false,"inputs":[{"indexed":false,"internalType":"string","name":"message","type":"string"},{"indexed":false,"internalType":"uint256","name":"_sn","type":"uint256"}],"name":"product","type":"event"},{"anonymous":false,"inputs":[{"indexed":false,"internalType":"string","name":"message","type":"string"}],"name":"verification","type":"event"},{"inputs":[{"internalType":"uint256","name":"","type":"uint256"}],"name":"IpfsRevision","outputs":[{"internalType":"string","name":"","type":"string"}],"stateMutability":"view","type":"function"},{"inputs":[{"internalType":"uint256","name":"_serialnumber","type":"uint256"},{"internalType":"string","name":"_CID12","type":"string"}],"name":"Mandispatch","outputs":[],"stateMutability":"nonpayable","type":"function"},{"inputs":[{"internalType":"string","name":"_CID11","type":"string"}],"name":"Medicine_mapper_first","outputs":[],"stateMutability":"nonpayable","type":"function"},{"inputs":[{"internalType":"uint256","name":"_serialnumber","type":"uint256"},{"internalType":"string","name":"revision31","type":"string"}],"name":"Pverify","outputs":[],"stateMutability":"nonpayable","type":"function"},{"inputs":[],"name":"Serialnumbers","outputs":[{"internalType":"uint256","name":"","type":"uint256"}],"stateMutability":"view","type":"function"},{"inputs":[{"internalType":"uint256","name":"","type":"uint256"}],"name":"Sn","outputs":[{"internalType":"uint256","name":"","type":"uint256"}],"stateMutability":"view","type":"function"},{"inputs":[{"internalType":"uint256","name":"_serialnumber","type":"uint256"},{"internalType":"string","name":"revision22","type":"string"}],"name":"Supdispatch","outputs":[],"stateMutability":"nonpayable","type":"function"},{"inputs":[{"internalType":"string","name":"_name","type":"string"},{"internalType":"string","name":"_batchno","type":"string"},{"internalType":"string","name":"_manufacturer","type":"string"},{"internalType":"enum Manufacturer.SupplyChainState","name":"_state","type":"uint8"},{"internalType":"uint256","name":"_Manufacturing_date","type":"uint256"},{"internalType":"uint256","name":"_Expiring_date","type":"uint256"}],"name":"addprouct","outputs":[],"stateMutability":"nonpayable","type":"function"},{"inputs":[],"name":"checker","outputs":[{"internalType":"string","name":"","type":"string"}],"stateMutability":"view","type":"function"},{"inputs":[],"name":"dispatchedTimeByPharmacist","outputs":[{"internalType":"uint256","name":"","type":"uint256"}],"stateMutability":"view","type":"function"},{"inputs":[],"name":"dispatchedtimeBySupplier","outputs":[{"internalType":"uint256","name":"","type":"uint256"}],"stateMutability":"view","type":"function"},{"inputs":[{"internalType":"uint256","name":"","type":"uint256"}],"name":"medd","outputs":[{"internalType":"enum Manufacturer.SupplyChainState","name":"state","type":"uint8"},{"internalType":"string","name":"batchnumber","type":"string"},{"internalType":"string","name":"manufacturer","type":"string"},{"internalType":"string","name":"name","type":"string"},{"internalType":"uint256","name":"Manufacturing_date","type":"uint256"},{"internalType":"uint256","name":"Expiring_date","type":"uint256"},{"internalType":"bytes32","name":"ipfsCid","type":"bytes32"}],"stateMutability":"view","type":"function"},{"inputs":[{"internalType":"uint256","name":"","type":"uint256"}],"name":"medications","outputs":[{"internalType":"enum Manufacturer.SupplyChainState","name":"state","type":"uint8"},{"internalType":"string","name":"batchnumber","type":"string"},{"internalType":"string","name":"manufacturer","type":"string"},{"internalType":"string","name":"name","type":"string"},{"internalType":"uint256","name":"Manufacturing_date","type":"uint256"},{"internalType":"uint256","name":"Expiring_date","type":"uint256"},{"internalType":"bytes32","name":"ipfsCid","type":"bytes32"}],"stateMutability":"view","type":"function"},{"inputs":[],"name":"mssg","outputs":[{"internalType":"string","name":"","type":"string"}],"stateMutability":"view","type":"function"},{"inputs":[],"name":"recievedTimeByPharmacist","outputs":[{"internalType":"uint256","name":"","type":"uint256"}],"stateMutability":"view","type":"function"},{"inputs":[],"name":"recievedtimeBySupplier","outputs":[{"internalType":"uint256","name":"","type":"uint256"}],"stateMutability":"view","type":"function"},{"inputs":[],"name":"serialnumber","outputs":[{"internalType":"uint256","name":"","type":"uint256"}],"stateMutability":"view","type":"function"},{"inputs":[{"internalType":"uint256","name":"_serialnumber","type":"uint256"},{"internalType":"string","name":"revision21","type":"string"}],"name":"verify","outputs":[],"stateMutability":"nonpayable","type":"function"}],"evm":{"bytecode":{"linkReferences":{},"object":"60806040526010600155600154600a6200001a9190620001be565b6002553480156200002a57600080fd5b506200020f565b7f4e487b7100000000000000000000000000000000000000000000000000000000600052601160045260246000fd5b60008160011c9050919050565b6000808291508390505b6001851115620000bf5780860481111562000097576200009662000031565b5b6001851615620000a75780820291505b8081029050620000b78562000060565b945062000077565b94509492505050565b600082620000da5760019050620001ad565b81620000ea5760009050620001ad565b81600181146200010357600281146200010e5762000144565b6001915050620001ad565b60ff84111562000123576200012262000031565b5b8360020a9150848211156200013d576200013c62000031565b5b50620001ad565b5060208310610133831016604e8410600b84101617156200017e5782820a90508381111562000178576200017762000031565b5b620001ad565b6200018d84848460016200006d565b92509050818404811115620001a757620001a662000031565b5b81810290505b9392505050565b6000819050919050565b6000620001cb82620001b4565b9150620001d883620001b4565b9250620002077fffffffffffffffffffffffffffffffffffffffffffffffffffffffffffffffff8484620000c8565b905092915050565b611df7806200021f6000396000f3fe608060405234801561001057600080fd5b50600436106101165760003560e01c8063b0e51740116100a2578063cf5303cf11610071578063cf5303cf146102d3578063d700d2df146102f1578063e4d00fbb1461030f578063fa8547f61461032b578063fad568f01461036157610116565b8063b0e517401461025f578063b498c5791461027b578063bc2faa9014610297578063cead8075146102b557610116565b80636121e508116100e95780636121e508146101a15780636203d51c146101bf57806385747472146101dd57806387ada616146102135780639bcca8571461022f57610116565b80631d9b62f21461011b57806335e56a1e146101395780634942f358146101695780635ee8d98a14610185575b600080fd5b61012361037f565b6040516101309190611082565b60405180910390f35b610153600480360381019061014e91906110dd565b610388565b604051610160919061119a565b60405180910390f35b610183600480360381019061017e91906112f1565b610428565b005b61019f600480360381019061019a91906112f1565b610594565b005b6101a96106bf565b6040516101b69190611082565b60405180910390f35b6101c76106c5565b6040516101d49190611082565b60405180910390f35b6101f760048036038101906101f291906110dd565b6106cb565b60405161020a97969594939291906113dd565b60405180910390f35b61022d600480360381019061022891906112f1565b6108c2565b005b610249600480360381019061024491906110dd565b6109ed565b6040516102569190611082565b60405180910390f35b610279600480360381019061027491906112f1565b610a11565b005b61029560048036038101906102909190611461565b610b84565b005b61029f610ba9565b6040516102ac919061119a565b60405180910390f35b6102bd610c37565b6040516102ca9190611082565b60405180910390f35b6102db610c3d565b6040516102e8919061119a565b60405180910390f35b6102f9610ccb565b6040516103069190611082565b60405180910390f35b610329600480360381019061032491906114cf565b610cd1565b005b610345600480360381019061034091906110dd565b610e7c565b60405161035897969594939291906113dd565b60405180910390f35b610369611063565b6040516103769190611082565b60405180910390f35b60008054905090565b600860205280600052604060002060009150905080546103a7906115df565b80601f01602080910402602001604051908101604052809291908181526020018280546103d3906115df565b80156104205780601f106103f557610100808354040283529160200191610420565b820191906000526020600020905b81548152906001019060200180831161040357829003601f168201915b505050505081565b6001600481111561043c5761043b61134d565b5b6009600084815260200190815260200160002060000160009054906101000a900460ff1660048111156104725761047161134d565b5b146104b2576040517f08c379a00000000000000000000000000000000000000000000000000000000081526004016104a990611682565b60405180910390fd5b6000801b60086000805481526020019081526020016000206040516020016104da9190611745565b60405160208183030381529060405280519060200120036104fa57600080fd5b60026009600084815260200190815260200160002060000160006101000a81548160ff021916908360048111156105345761053361134d565b5b0217905550806008600080548152602001908152602001600020908161055a91906118f3565b507f2844c95bf1b4598da931d527f903501abc60fe0199c65da52d5ce818c6c5e96160405161058890611a11565b60405180910390a15050565b600260048111156105a8576105a761134d565b5b6009600084815260200190815260200160002060000160009054906101000a900460ff1660048111156105de576105dd61134d565b5b1461061e576040517f08c379a000000000000000000000000000000000000000000000000000000000815260040161061590611aa3565b60405180910390fd5b42600b8190555060036009600084815260200190815260200160002060000160006101000a81548160ff0219169083600481111561065f5761065e61134d565b5b0217905550806008600080548152602001908152602001600020908161068591906118f3565b507f2844c95bf1b4598da931d527f903501abc60fe0199c65da52d5ce818c6c5e9616040516106b390611b35565b60405180910390a15050565b60125481565b600a5481565b600381815481106106db57600080fd5b90600052602060002090600702016000915090508060000160009054906101000a900460ff1690806001018054610711906115df565b80601f016020809104026020016040519081016040528092919081815260200182805461073d906115df565b801561078a5780601f1061075f5761010080835404028352916020019161078a565b820191906000526020600020905b81548152906001019060200180831161076d57829003601f168201915b50505050509080600201805461079f906115df565b80601f01602080910402602001604051908101604052809291908181526020018280546107cb906115df565b80156108185780601f106107ed57610100808354040283529160200191610818565b820191906000526020600020905b8154815290600101906020018083116107fb57829003601f168201915b50505050509080600301805461082d906115df565b80601f0160208091040260200160405190810160405280929190818152602001828054610859906115df565b80156108a65780601f1061087b576101008083540402835291602001916108a6565b820191906000526020600020905b81548152906001019060200180831161088957829003601f168201915b5050505050908060040154908060050154908060060154905087565b600060048111156108d6576108d561134d565b5b6009600084815260200190815260200160002060000160009054906101000a900460ff16600481111561090c5761090b61134d565b5b1461094c576040517f08c379a000000000000000000000000000000000000000000000000000000000815260040161094390611aa3565b60405180910390fd5b4260068190555060016009600084815260200190815260200160002060000160006101000a81548160ff0219169083600481111561098d5761098c61134d565b5b021790555080600860008054815260200190815260200160002090816109b391906118f3565b507fdefe02112824e0ae81930c3e55aeeac58d10e8b531afdcb3bad105492ec5a5456040516109e190611b35565b60405180910390a15050565b600481815481106109fd57600080fd5b906000526020600020016000915090505481565b60036004811115610a2557610a2461134d565b5b6009600084815260200190815260200160002060000160009054906101000a900460ff166004811115610a5b57610a5a61134d565b5b14610a9b576040517f08c379a0000000000000000000000000000000000000000000000000000000008152600401610a9290611bc7565b60405180910390fd5b6000801b6008600080548152602001908152602001600020604051602001610ac39190611745565b6040516020818303038152906040528051906020012003610ae357600080fd5b60046009600084815260200190815260200160002060000160006101000a81548160ff02191690836004811115610b1d57610b1c61134d565b5b02179055508060086000805481526020019081526020016000209081610b4391906118f3565b50426012819055507f53ba0944807ae1d42e8a5684aa3ca1409f174f9d9a86d93409ef4379966b3eee604051610b7890611c33565b60405180910390a15050565b8060086000805481526020019081526020016000209081610ba591906118f3565b5050565b60108054610bb6906115df565b80601f0160208091040260200160405190810160405280929190818152602001828054610be2906115df565b8015610c2f5780601f10610c0457610100808354040283529160200191610c2f565b820191906000526020600020905b815481529060010190602001808311610c1257829003601f168201915b505050505081565b60005481565b60078054610c4a906115df565b80601f0160208091040260200160405190810160405280929190818152602001828054610c76906115df565b8015610cc35780601f10610c9857610100808354040283529160200191610cc3565b820191906000526020600020905b815481529060010190602001808311610ca657829003601f168201915b505050505081565b600b5481565b42600581905550858585600554604051602001610cf19493929190611ca5565b6040516020818303038152906040528051906020012060001c600081905550600254600080828254610d239190611d16565b925050819055508460096000805481526020019081526020016000206001019081610d4e91906118f3565b508560096000805481526020019081526020016000206003019081610d7391906118f3565b508360096000805481526020019081526020016000206002019081610d9891906118f3565b50816009600080548152602001908152602001600020600401819055508060096000805481526020019081526020016000206005018190555082600960008054815260200190815260200160002060000160006101000a81548160ff02191690836004811115610e0b57610e0a61134d565b5b0217905550600460005490806001815401808255809150506001900390600052602060002001600090919091909150557fe9850cacbeabeb04673cee1b608fedf6e3163f0a8da989d484b5348563e04d02600054604051610e6c9190611d93565b60405180910390a1505050505050565b60096020528060005260406000206000915090508060000160009054906101000a900460ff1690806001018054610eb2906115df565b80601f0160208091040260200160405190810160405280929190818152602001828054610ede906115df565b8015610f2b5780601f10610f0057610100808354040283529160200191610f2b565b820191906000526020600020905b815481529060010190602001808311610f0e57829003601f168201915b505050505090806002018054610f40906115df565b80601f0160208091040260200160405190810160405280929190818152602001828054610f6c906115df565b8015610fb95780601f10610f8e57610100808354040283529160200191610fb9565b820191906000526020600020905b815481529060010190602001808311610f9c57829003601f168201915b505050505090806003018054610fce906115df565b80601f0160208091040260200160405190810160405280929190818152602001828054610ffa906115df565b80156110475780601f1061101c57610100808354040283529160200191611047565b820191906000526020600020905b81548152906001019060200180831161102a57829003601f168201915b5050505050908060040154908060050154908060060154905087565b60115481565b6000819050919050565b61107c81611069565b82525050565b60006020820190506110976000830184611073565b92915050565b6000604051905090565b600080fd5b600080fd5b6110ba81611069565b81146110c557600080fd5b50565b6000813590506110d7816110b1565b92915050565b6000602082840312156110f3576110f26110a7565b5b6000611101848285016110c8565b91505092915050565b600081519050919050565b600082825260208201905092915050565b60005b83811015611144578082015181840152602081019050611129565b60008484015250505050565b6000601f19601f8301169050919050565b600061116c8261110a565b6111768185611115565b9350611186818560208601611126565b61118f81611150565b840191505092915050565b600060208201905081810360008301526111b48184611161565b905092915050565b600080fd5b600080fd5b7f4e487b7100000000000000000000000000000000000000000000000000000000600052604160045260246000fd5b6111fe82611150565b810181811067ffffffffffffffff8211171561121d5761121c6111c6565b5b80604052505050565b600061123061109d565b905061123c82826111f5565b919050565b600067ffffffffffffffff82111561125c5761125b6111c6565b5b61126582611150565b9050602081019050919050565b82818337600083830152505050565b600061129461128f84611241565b611226565b9050828152602081018484840111156112b0576112af6111c1565b5b6112bb848285611272565b509392505050565b600082601f8301126112d8576112d76111bc565b5b81356112e8848260208601611281565b91505092915050565b60008060408385031215611308576113076110a7565b5b6000611316858286016110c8565b925050602083013567ffffffffffffffff811115611337576113366110ac565b5b611343858286016112c3565b9150509250929050565b7f4e487b7100000000000000000000000000000000000000000000000000000000600052602160045260246000fd5b6005811061138d5761138c61134d565b5b50565b600081905061139e8261137c565b919050565b60006113ae82611390565b9050919050565b6113be816113a3565b82525050565b6000819050919050565b6113d7816113c4565b82525050565b600060e0820190506113f2600083018a6113b5565b81810360208301526114048189611161565b905081810360408301526114188188611161565b9050818103606083015261142c8187611161565b905061143b6080830186611073565b61144860a0830185611073565b61145560c08301846113ce565b98975050505050505050565b600060208284031215611477576114766110a7565b5b600082013567ffffffffffffffff811115611495576114946110ac565b5b6114a1848285016112c3565b91505092915050565b600581106114b757600080fd5b50565b6000813590506114c9816114aa565b92915050565b60008060008060008060c087890312156114ec576114eb6110a7565b5b600087013567ffffffffffffffff81111561150a576115096110ac565b5b61151689828a016112c3565b965050602087013567ffffffffffffffff811115611537576115366110ac565b5b61154389828a016112c3565b955050604087013567ffffffffffffffff811115611564576115636110ac565b5b61157089828a016112c3565b945050606061158189828a016114ba565b935050608061159289828a016110c8565b92505060a06115a389828a016110c8565b9150509295509295509295565b7f4e487b7100000000000000000000000000000000000000000000000000000000600052602260045260246000fd5b600060028204905060018216806115f757607f821691505b60208210810361160a576116096115b0565b5b50919050565b7f6d656469636174696f6e206973206e6f7420646973706174636865642079657460008201527f2066726f6d206d616e7566616374757265720000000000000000000000000000602082015250565b600061166c603283611115565b915061167782611610565b604082019050919050565b6000602082019050818103600083015261169b8161165f565b9050919050565b600081905092915050565b60008190508160005260206000209050919050565b600081546116cf816115df565b6116d981866116a2565b945060018216600081146116f457600181146117095761173c565b60ff198316865281151582028601935061173c565b611712856116ad565b60005b8381101561173457815481890152600182019150602081019050611715565b838801955050505b50505092915050565b600061175182846116c2565b915081905092915050565b60006020601f8301049050919050565b600082821b905092915050565b6000600883026117a97fffffffffffffffffffffffffffffffffffffffffffffffffffffffffffffffff8261176c565b6117b3868361176c565b95508019841693508086168417925050509392505050565b6000819050919050565b60006117f06117eb6117e684611069565b6117cb565b611069565b9050919050565b6000819050919050565b61180a836117d5565b61181e611816826117f7565b848454611779565b825550505050565b600090565b611833611826565b61183e818484611801565b505050565b5b818110156118625761185760008261182b565b600181019050611844565b5050565b601f8211156118a757611878816116ad565b6118818461175c565b81016020851015611890578190505b6118a461189c8561175c565b830182611843565b50505b505050565b600082821c905092915050565b60006118ca600019846008026118ac565b1980831691505092915050565b60006118e383836118b9565b9150826002028217905092915050565b6118fc8261110a565b67ffffffffffffffff811115611915576119146111c6565b5b61191f82546115df565b61192a828285611866565b600060209050601f83116001811461195d576000841561194b578287015190505b61195585826118d7565b8655506119bd565b601f19841661196b866116ad565b60005b828110156119935784890151825560018201915060208501945060208101905061196e565b868310156119b057848901516119ac601f8916826118b9565b8355505b6001600288020188555050505b505050505050565b7f7665726669636174696f6e20436f6d706c657465000000000000000000000000600082015250565b60006119fb601483611115565b9150611a06826119c5565b602082019050919050565b60006020820190508181036000830152611a2a816119ee565b9050919050565b7f6d656469636174696f6e206973206e6f74207965742075706c6f616420696e2060008201527f636861696e000000000000000000000000000000000000000000000000000000602082015250565b6000611a8d602583611115565b9150611a9882611a31565b604082019050919050565b60006020820190508181036000830152611abc81611a80565b9050919050565b7f4469737061746368696e6720636f6d706c657465207375636365737366756c6c60008201527f7900000000000000000000000000000000000000000000000000000000000000602082015250565b6000611b1f602183611115565b9150611b2a82611ac3565b604082019050919050565b60006020820190508181036000830152611b4e81611b12565b9050919050565b7f6d656469636174696f6e206973206e6f7420796574206469737061746368656460008201527f2066726f6d20537570706c696572000000000000000000000000000000000000602082015250565b6000611bb1602e83611115565b9150611bbc82611b55565b604082019050919050565b60006020820190508181036000830152611be081611ba4565b9050919050565b7f76726572696669636174696f6e20436f6d706c65746500000000000000000000600082015250565b6000611c1d601683611115565b9150611c2882611be7565b602082019050919050565b60006020820190508181036000830152611c4c81611c10565b9050919050565b6000611c5e8261110a565b611c6881856116a2565b9350611c78818560208601611126565b80840191505092915050565b6000819050919050565b611c9f611c9a82611069565b611c84565b82525050565b6000611cb18287611c53565b9150611cbd8286611c53565b9150611cc98285611c53565b9150611cd58284611c8e565b60208201915081905095945050505050565b7f4e487b7100000000000000000000000000000000000000000000000000000000600052601260045260246000fd5b6000611d2182611069565b9150611d2c83611069565b925082611d3c57611d3b611ce7565b5b828206905092915050565b7f73657269616c206e756d626572206f6620746865206d656469636174696f6e00600082015250565b6000611d7d601f83611115565b9150611d8882611d47565b602082019050919050565b60006040820190508181036000830152611dac81611d70565b9050611dbb6020830184611073565b9291505056fea264697066735822122041d16ccb11e7412a9c843fdab9179132d7e6d925e1a38103d6aa2f15c30a558564736f6c63430008120033","opcodes":"PUSH1 0x80 PUSH1 0x40 MSTORE PUSH1 0x10 PUSH1 0x1 SSTORE PUSH1 0x1 SLOAD PUSH1 0xA PUSH3 0x1A SWAP2 SWAP1 PUSH3 0x1BE JUMP JUMPDEST PUSH1 0x2 SSTORE CALLVALUE DUP1 ISZERO PUSH3 0x2A JUMPI PUSH1 0x0 DUP1 REVERT JUMPDEST POP PUSH3 0x20F JUMP JUMPDEST PUSH32 0x4E487B7100000000000000000000000000000000000000000000000000000000 PUSH1 0x0 MSTORE PUSH1 0x11 PUSH1 0x4 MSTORE PUSH1 0x24 PUSH1 0x0 REVERT JUMPDEST PUSH1 0x0 DUP2 PUSH1 0x1 SHR SWAP1 POP SWAP2 SWAP1 POP JUMP JUMPDEST PUSH1 0x0 DUP1 DUP3 SWAP2 POP DUP4 SWAP1 POP JUMPDEST PUSH1 0x1 DUP6 GT ISZERO PUSH3 0xBF JUMPI DUP1 DUP7 DIV DUP2 GT ISZERO PUSH3 0x97 JUMPI PUSH3 0x96 PUSH3 0x31 JUMP JUMPDEST JUMPDEST PUSH1 0x1 DUP6 AND ISZERO PUSH3 0xA7 JUMPI DUP1 DUP3 MUL SWAP2 POP JUMPDEST DUP1 DUP2 MUL SWAP1 POP PUSH3 0xB7 DUP6 PUSH3 0x60 JUMP JUMPDEST SWAP5 POP PUSH3 0x77 JUMP JUMPDEST SWAP5 POP SWAP5 SWAP3 POP POP POP JUMP JUMPDEST PUSH1 0x0 DUP3 PUSH3 0xDA JUMPI PUSH1 0x1 SWAP1 POP PUSH3 0x1AD JUMP JUMPDEST DUP2 PUSH3 0xEA JUMPI PUSH1 0x0 SWAP1 POP PUSH3 0x1AD JUMP JUMPDEST DUP2 PUSH1 0x1 DUP2 EQ PUSH3 0x103 JUMPI PUSH1 0x2 DUP2 EQ PUSH3 0x10E JUMPI PUSH3 0x144 JUMP JUMPDEST PUSH1 0x1 SWAP2 POP POP PUSH3 0x1AD JUMP JUMPDEST PUSH1 0xFF DUP5 GT ISZERO PUSH3 0x123 JUMPI PUSH3 0x122 PUSH3 0x31 JUMP JUMPDEST JUMPDEST DUP4 PUSH1 0x2 EXP SWAP2 POP DUP5 DUP3 GT ISZERO PUSH3 0x13D JUMPI PUSH3 0x13C PUSH3 0x31 JUMP JUMPDEST JUMPDEST POP PUSH3 0x1AD JUMP JUMPDEST POP PUSH1 0x20 DUP4 LT PUSH2 0x133 DUP4 LT AND PUSH1 0x4E DUP5 LT PUSH1 0xB DUP5 LT AND OR ISZERO PUSH3 0x17E JUMPI DUP3 DUP3 EXP SWAP1 POP DUP4 DUP2 GT ISZERO PUSH3 0x178 JUMPI PUSH3 0x177 PUSH3 0x31 JUMP JUMPDEST JUMPDEST PUSH3 0x1AD JUMP JUMPDEST PUSH3 0x18D DUP5 DUP5 DUP5 PUSH1 0x1 PUSH3 0x6D JUMP JUMPDEST SWAP3 POP SWAP1 POP DUP2 DUP5 DIV DUP2 GT ISZERO PUSH3 0x1A7 JUMPI PUSH3 0x1A6 PUSH3 0x31 JUMP JUMPDEST JUMPDEST DUP2 DUP2 MUL SWAP1 POP JUMPDEST SWAP4 SWAP3 POP POP POP JUMP JUMPDEST PUSH1 0x0 DUP2 SWAP1 POP SWAP2 SWAP1 POP JUMP JUMPDEST PUSH1 0x0 PUSH3 0x1CB DUP3 PUSH3 0x1B4 JUMP JUMPDEST SWAP2 POP PUSH3 0x1D8 DUP4 PUSH3 0x1B4 JUMP JUMPDEST SWAP3 POP PUSH3 0x207 PUSH32 0xFFFFFFFFFFFFFFFFFFFFFFFFFFFFFFFFFFFFFFFFFFFFFFFFFFFFFFFFFFFFFFFF DUP5 DUP5 PUSH3 0xC8 JUMP JUMPDEST SWAP1 POP SWAP3 SWAP2 POP POP JUMP JUMPDEST PUSH2 0x1DF7 DUP1 PUSH3 0x21F PUSH1 0x0 CODECOPY PUSH1 0x0 RETURN INVALID PUSH1 0x80 PUSH1 0x40 MSTORE CALLVALUE DUP1 ISZERO PUSH2 0x10 JUMPI PUSH1 0x0 DUP1 REVERT JUMPDEST POP PUSH1 0x4 CALLDATASIZE LT PUSH2 0x116 JUMPI PUSH1 0x0 CALLDATALOAD PUSH1 0xE0 SHR DUP1 PUSH4 0xB0E51740 GT PUSH2 0xA2 JUMPI DUP1 PUSH4 0xCF5303CF GT PUSH2 0x71 JUMPI DUP1 PUSH4 0xCF5303CF EQ PUSH2 0x2D3 JUMPI DUP1 PUSH4 0xD700D2DF EQ PUSH2 0x2F1 JUMPI DUP1 PUSH4 0xE4D00FBB EQ PUSH2 0x30F JUMPI DUP1 PUSH4 0xFA8547F6 EQ PUSH2 0x32B JUMPI DUP1 PUSH4 0xFAD568F0 EQ PUSH2 0x361 JUMPI PUSH2 0x116 JUMP JUMPDEST DUP1 PUSH4 0xB0E51740 EQ PUSH2 0x25F JUMPI DUP1 PUSH4 0xB498C579 EQ PUSH2 0x27B JUMPI DUP1 PUSH4 0xBC2FAA90 EQ PUSH2 0x297 JUMPI DUP1 PUSH4 0xCEAD8075 EQ PUSH2 0x2B5 JUMPI PUSH2 0x116 JUMP JUMPDEST DUP1 PUSH4 0x6121E508 GT PUSH2 0xE9 JUMPI DUP1 PUSH4 0x6121E508 EQ PUSH2 0x1A1 JUMPI DUP1 PUSH4 0x6203D51C EQ PUSH2 0x1BF JUMPI DUP1 PUSH4 0x85747472 EQ PUSH2 0x1DD JUMPI DUP1 PUSH4 0x87ADA616 EQ PUSH2 0x213 JUMPI DUP1 PUSH4 0x9BCCA857 EQ PUSH2 0x22F JUMPI PUSH2 0x116 JUMP JUMPDEST DUP1 PUSH4 0x1D9B62F2 EQ PUSH2 0x11B JUMPI DUP1 PUSH4 0x35E56A1E EQ PUSH2 0x139 JUMPI DUP1 PUSH4 0x4942F358 EQ PUSH2 0x169 JUMPI DUP1 PUSH4 0x5EE8D98A EQ PUSH2 0x185 JUMPI JUMPDEST PUSH1 0x0 DUP1 REVERT JUMPDEST PUSH2 0x123 PUSH2 0x37F JUMP JUMPDEST PUSH1 0x40 MLOAD PUSH2 0x130 SWAP2 SWAP1 PUSH2 0x1082 JUMP JUMPDEST PUSH1 0x40 MLOAD DUP1 SWAP2 SUB SWAP1 RETURN JUMPDEST PUSH2 0x153 PUSH1 0x4 DUP1 CALLDATASIZE SUB DUP2 ADD SWAP1 PUSH2 0x14E SWAP2 SWAP1 PUSH2 0x10DD JUMP JUMPDEST PUSH2 0x388 JUMP JUMPDEST PUSH1 0x40 MLOAD PUSH2 0x160 SWAP2 SWAP1 PUSH2 0x119A JUMP JUMPDEST PUSH1 0x40 MLOAD DUP1 SWAP2 SUB SWAP1 RETURN JUMPDEST PUSH2 0x183 PUSH1 0x4 DUP1 CALLDATASIZE SUB DUP2 ADD SWAP1 PUSH2 0x17E SWAP2 SWAP1 PUSH2 0x12F1 JUMP JUMPDEST PUSH2 0x428 JUMP JUMPDEST STOP JUMPDEST PUSH2 0x19F PUSH1 0x4 DUP1 CALLDATASIZE SUB DUP2 ADD SWAP1 PUSH2 0x19A SWAP2 SWAP1 PUSH2 0x12F1 JUMP JUMPDEST PUSH2 0x594 JUMP JUMPDEST STOP JUMPDEST PUSH2 0x1A9 PUSH2 0x6BF JUMP JUMPDEST PUSH1 0x40 MLOAD PUSH2 0x1B6 SWAP2 SWAP1 PUSH2 0x1082 JUMP JUMPDEST PUSH1 0x40 MLOAD DUP1 SWAP2 SUB SWAP1 RETURN JUMPDEST PUSH2 0x1C7 PUSH2 0x6C5 JUMP JUMPDEST PUSH1 0x40 MLOAD PUSH2 0x1D4 SWAP2 SWAP1 PUSH2 0x1082 JUMP JUMPDEST PUSH1 0x40 MLOAD DUP1 SWAP2 SUB SWAP1 RETURN JUMPDEST PUSH2 0x1F7 PUSH1 0x4 DUP1 CALLDATASIZE SUB DUP2 ADD SWAP1 PUSH2 0x1F2 SWAP2 SWAP1 PUSH2 0x10DD JUMP JUMPDEST PUSH2 0x6CB JUMP JUMPDEST PUSH1 0x40 MLOAD PUSH2 0x20A SWAP8 SWAP7 SWAP6 SWAP5 SWAP4 SWAP3 SWAP2 SWAP1 PUSH2 0x13DD JUMP JUMPDEST PUSH1 0x40 MLOAD DUP1 SWAP2 SUB SWAP1 RETURN JUMPDEST PUSH2 0x22D PUSH1 0x4 DUP1 CALLDATASIZE SUB DUP2 ADD SWAP1 PUSH2 0x228 SWAP2 SWAP1 PUSH2 0x12F1 JUMP JUMPDEST PUSH2 0x8C2 JUMP JUMPDEST STOP JUMPDEST PUSH2 0x249 PUSH1 0x4 DUP1 CALLDATASIZE SUB DUP2 ADD SWAP1 PUSH2 0x244 SWAP2 SWAP1 PUSH2 0x10DD JUMP JUMPDEST PUSH2 0x9ED JUMP JUMPDEST PUSH1 0x40 MLOAD PUSH2 0x256 SWAP2 SWAP1 PUSH2 0x1082 JUMP JUMPDEST PUSH1 0x40 MLOAD DUP1 SWAP2 SUB SWAP1 RETURN JUMPDEST PUSH2 0x279 PUSH1 0x4 DUP1 CALLDATASIZE SUB DUP2 ADD SWAP1 PUSH2 0x274 SWAP2 SWAP1 PUSH2 0x12F1 JUMP JUMPDEST PUSH2 0xA11 JUMP JUMPDEST STOP JUMPDEST PUSH2 0x295 PUSH1 0x4 DUP1 CALLDATASIZE SUB DUP2 ADD SWAP1 PUSH2 0x290 SWAP2 SWAP1 PUSH2 0x1461 JUMP JUMPDEST PUSH2 0xB84 JUMP JUMPDEST STOP JUMPDEST PUSH2 0x29F PUSH2 0xBA9 JUMP JUMPDEST PUSH1 0x40 MLOAD PUSH2 0x2AC SWAP2 SWAP1 PUSH2 0x119A JUMP JUMPDEST PUSH1 0x40 MLOAD DUP1 SWAP2 SUB SWAP1 RETURN JUMPDEST PUSH2 0x2BD PUSH2 0xC37 JUMP JUMPDEST PUSH1 0x40 MLOAD PUSH2 0x2CA SWAP2 SWAP1 PUSH2 0x1082 JUMP JUMPDEST PUSH1 0x40 MLOAD DUP1 SWAP2 SUB SWAP1 RETURN JUMPDEST PUSH2 0x2DB PUSH2 0xC3D JUMP JUMPDEST PUSH1 0x40 MLOAD PUSH2 0x2E8 SWAP2 SWAP1 PUSH2 0x119A JUMP JUMPDEST PUSH1 0x40 MLOAD DUP1 SWAP2 SUB SWAP1 RETURN JUMPDEST PUSH2 0x2F9 PUSH2 0xCCB JUMP JUMPDEST PUSH1 0x40 MLOAD PUSH2 0x306 SWAP2 SWAP1 PUSH2 0x1082 JUMP JUMPDEST PUSH1 0x40 MLOAD DUP1 SWAP2 SUB SWAP1 RETURN JUMPDEST PUSH2 0x329 PUSH1 0x4 DUP1 CALLDATASIZE SUB DUP2 ADD SWAP1 PUSH2 0x324 SWAP2 SWAP1 PUSH2 0x14CF JUMP JUMPDEST PUSH2 0xCD1 JUMP JUMPDEST STOP JUMPDEST PUSH2 0x345 PUSH1 0x4 DUP1 CALLDATASIZE SUB DUP2 ADD SWAP1 PUSH2 0x340 SWAP2 SWAP1 PUSH2 0x10DD JUMP JUMPDEST PUSH2 0xE7C JUMP JUMPDEST PUSH1 0x40 MLOAD PUSH2 0x358 SWAP8 SWAP7 SWAP6 SWAP5 SWAP4 SWAP3 SWAP2 SWAP1 PUSH2 0x13DD JUMP JUMPDEST PUSH1 0x40 MLOAD DUP1 SWAP2 SUB SWAP1 RETURN JUMPDEST PUSH2 0x369 PUSH2 0x1063 JUMP JUMPDEST PUSH1 0x40 MLOAD PUSH2 0x376 SWAP2 SWAP1 PUSH2 0x1082 JUMP JUMPDEST PUSH1 0x40 MLOAD DUP1 SWAP2 SUB SWAP1 RETURN JUMPDEST PUSH1 0x0 DUP1 SLOAD SWAP1 POP SWAP1 JUMP JUMPDEST PUSH1 0x8 PUSH1 0x20 MSTORE DUP1 PUSH1 0x0 MSTORE PUSH1 0x40 PUSH1 0x0 KECCAK256 PUSH1 0x0 SWAP2 POP SWAP1 POP DUP1 SLOAD PUSH2 0x3A7 SWAP1 PUSH2 0x15DF JUMP JUMPDEST DUP1 PUSH1 0x1F ADD PUSH1 0x20 DUP1 SWAP2 DIV MUL PUSH1 0x20 ADD PUSH1 0x40 MLOAD SWAP1 DUP2 ADD PUSH1 0x40 MSTORE DUP1 SWAP3 SWAP2 SWAP1 DUP2 DUP2 MSTORE PUSH1 0x20 ADD DUP3 DUP1 SLOAD PUSH2 0x3D3 SWAP1 PUSH2 0x15DF JUMP JUMPDEST DUP1 ISZERO PUSH2 0x420 JUMPI DUP1 PUSH1 0x1F LT PUSH2 0x3F5 JUMPI PUSH2 0x100 DUP1 DUP4 SLOAD DIV MUL DUP4 MSTORE SWAP2 PUSH1 0x20 ADD SWAP2 PUSH2 0x420 JUMP JUMPDEST DUP3 ADD SWAP2 SWAP1 PUSH1 0x0 MSTORE PUSH1 0x20 PUSH1 0x0 KECCAK256 SWAP1 JUMPDEST DUP2 SLOAD DUP2 MSTORE SWAP1 PUSH1 0x1 ADD SWAP1 PUSH1 0x20 ADD DUP1 DUP4 GT PUSH2 0x403 JUMPI DUP3 SWAP1 SUB PUSH1 0x1F AND DUP3 ADD SWAP2 JUMPDEST POP POP POP POP POP DUP2 JUMP JUMPDEST PUSH1 0x1 PUSH1 0x4 DUP2 GT ISZERO PUSH2 0x43C JUMPI PUSH2 0x43B PUSH2 0x134D JUMP JUMPDEST JUMPDEST PUSH1 0x9 PUSH1 0x0 DUP5 DUP2 MSTORE PUSH1 0x20 ADD SWAP1 DUP2 MSTORE PUSH1 0x20 ADD PUSH1 0x0 KECCAK256 PUSH1 0x0 ADD PUSH1 0x0 SWAP1 SLOAD SWAP1 PUSH2 0x100 EXP SWAP1 DIV PUSH1 0xFF AND PUSH1 0x4 DUP2 GT ISZERO PUSH2 0x472 JUMPI PUSH2 0x471 PUSH2 0x134D JUMP JUMPDEST JUMPDEST EQ PUSH2 0x4B2 JUMPI PUSH1 0x40 MLOAD PUSH32 0x8C379A000000000000000000000000000000000000000000000000000000000 DUP2 MSTORE PUSH1 0x4 ADD PUSH2 0x4A9 SWAP1 PUSH2 0x1682 JUMP JUMPDEST PUSH1 0x40 MLOAD DUP1 SWAP2 SUB SWAP1 REVERT JUMPDEST PUSH1 0x0 DUP1 SHL PUSH1 0x8 PUSH1 0x0 DUP1 SLOAD DUP2 MSTORE PUSH1 0x20 ADD SWAP1 DUP2 MSTORE PUSH1 0x20 ADD PUSH1 0x0 KECCAK256 PUSH1 0x40 MLOAD PUSH1 0x20 ADD PUSH2 0x4DA SWAP2 SWAP1 PUSH2 0x1745 JUMP JUMPDEST PUSH1 0x40 MLOAD PUSH1 0x20 DUP2 DUP4 SUB SUB DUP2 MSTORE SWAP1 PUSH1 0x40 MSTORE DUP1 MLOAD SWAP1 PUSH1 0x20 ADD KECCAK256 SUB PUSH2 0x4FA JUMPI PUSH1 0x0 DUP1 REVERT JUMPDEST PUSH1 0x2 PUSH1 0x9 PUSH1 0x0 DUP5 DUP2 MSTORE PUSH1 0x20 ADD SWAP1 DUP2 MSTORE PUSH1 0x20 ADD PUSH1 0x0 KECCAK256 PUSH1 0x0 ADD PUSH1 0x0 PUSH2 0x100 EXP DUP2 SLOAD DUP2 PUSH1 0xFF MUL NOT AND SWAP1 DUP4 PUSH1 0x4 DUP2 GT ISZERO PUSH2 0x534 JUMPI PUSH2 0x533 PUSH2 0x134D JUMP JUMPDEST JUMPDEST MUL OR SWAP1 SSTORE POP DUP1 PUSH1 0x8 PUSH1 0x0 DUP1 SLOAD DUP2 MSTORE PUSH1 0x20 ADD SWAP1 DUP2 MSTORE PUSH1 0x20 ADD PUSH1 0x0 KECCAK256 SWAP1 DUP2 PUSH2 0x55A SWAP2 SWAP1 PUSH2 0x18F3 JUMP JUMPDEST POP PUSH32 0x2844C95BF1B4598DA931D527F903501ABC60FE0199C65DA52D5CE818C6C5E961 PUSH1 0x40 MLOAD PUSH2 0x588 SWAP1 PUSH2 0x1A11 JUMP JUMPDEST PUSH1 0x40 MLOAD DUP1 SWAP2 SUB SWAP1 LOG1 POP POP JUMP JUMPDEST PUSH1 0x2 PUSH1 0x4 DUP2 GT ISZERO PUSH2 0x5A8 JUMPI PUSH2 0x5A7 PUSH2 0x134D JUMP JUMPDEST JUMPDEST PUSH1 0x9 PUSH1 0x0 DUP5 DUP2 MSTORE PUSH1 0x20 ADD SWAP1 DUP2 MSTORE PUSH1 0x20 ADD PUSH1 0x0 KECCAK256 PUSH1 0x0 ADD PUSH1 0x0 SWAP1 SLOAD SWAP1 PUSH2 0x100 EXP SWAP1 DIV PUSH1 0xFF AND PUSH1 0x4 DUP2 GT ISZERO PUSH2 0x5DE JUMPI PUSH2 0x5DD PUSH2 0x134D JUMP JUMPDEST JUMPDEST EQ PUSH2 0x61E JUMPI PUSH1 0x40 MLOAD PUSH32 0x8C379A000000000000000000000000000000000000000000000000000000000 DUP2 MSTORE PUSH1 0x4 ADD PUSH2 0x615 SWAP1 PUSH2 0x1AA3 JUMP JUMPDEST PUSH1 0x40 MLOAD DUP1 SWAP2 SUB SWAP1 REVERT JUMPDEST TIMESTAMP PUSH1 0xB DUP2 SWAP1 SSTORE POP PUSH1 0x3 PUSH1 0x9 PUSH1 0x0 DUP5 DUP2 MSTORE PUSH1 0x20 ADD SWAP1 DUP2 MSTORE PUSH1 0x20 ADD PUSH1 0x0 KECCAK256 PUSH1 0x0 ADD PUSH1 0x0 PUSH2 0x100 EXP DUP2 SLOAD DUP2 PUSH1 0xFF MUL NOT AND SWAP1 DUP4 PUSH1 0x4 DUP2 GT ISZERO PUSH2 0x65F JUMPI PUSH2 0x65E PUSH2 0x134D JUMP JUMPDEST JUMPDEST MUL OR SWAP1 SSTORE POP DUP1 PUSH1 0x8 PUSH1 0x0 DUP1 SLOAD DUP2 MSTORE PUSH1 0x20 ADD SWAP1 DUP2 MSTORE PUSH1 0x20 ADD PUSH1 0x0 KECCAK256 SWAP1 DUP2 PUSH2 0x685 SWAP2 SWAP1 PUSH2 0x18F3 JUMP JUMPDEST POP PUSH32 0x2844C95BF1B4598DA931D527F903501ABC60FE0199C65DA52D5CE818C6C5E961 PUSH1 0x40 MLOAD PUSH2 0x6B3 SWAP1 PUSH2 0x1B35 JUMP JUMPDEST PUSH1 0x40 MLOAD DUP1 SWAP2 SUB SWAP1 LOG1 POP POP JUMP JUMPDEST PUSH1 0x12 SLOAD DUP2 JUMP JUMPDEST PUSH1 0xA SLOAD DUP2 JUMP JUMPDEST PUSH1 0x3 DUP2 DUP2 SLOAD DUP2 LT PUSH2 0x6DB JUMPI PUSH1 0x0 DUP1 REVERT JUMPDEST SWAP1 PUSH1 0x0 MSTORE PUSH1 0x20 PUSH1 0x0 KECCAK256 SWAP1 PUSH1 0x7 MUL ADD PUSH1 0x0 SWAP2 POP SWAP1 POP DUP1 PUSH1 0x0 ADD PUSH1 0x0 SWAP1 SLOAD SWAP1 PUSH2 0x100 EXP SWAP1 DIV PUSH1 0xFF AND SWAP1 DUP1 PUSH1 0x1 ADD DUP1 SLOAD PUSH2 0x711 SWAP1 PUSH2 0x15DF JUMP JUMPDEST DUP1 PUSH1 0x1F ADD PUSH1 0x20 DUP1 SWAP2 DIV MUL PUSH1 0x20 ADD PUSH1 0x40 MLOAD SWAP1 DUP2 ADD PUSH1 0x40 MSTORE DUP1 SWAP3 SWAP2 SWAP1 DUP2 DUP2 MSTORE PUSH1 0x20 ADD DUP3 DUP1 SLOAD PUSH2 0x73D SWAP1 PUSH2 0x15DF JUMP JUMPDEST DUP1 ISZERO PUSH2 0x78A JUMPI DUP1 PUSH1 0x1F LT PUSH2 0x75F JUMPI PUSH2 0x100 DUP1 DUP4 SLOAD DIV MUL DUP4 MSTORE SWAP2 PUSH1 0x20 ADD SWAP2 PUSH2 0x78A JUMP JUMPDEST DUP3 ADD SWAP2 SWAP1 PUSH1 0x0 MSTORE PUSH1 0x20 PUSH1 0x0 KECCAK256 SWAP1 JUMPDEST DUP2 SLOAD DUP2 MSTORE SWAP1 PUSH1 0x1 ADD SWAP1 PUSH1 0x20 ADD DUP1 DUP4 GT PUSH2 0x76D JUMPI DUP3 SWAP1 SUB PUSH1 0x1F AND DUP3 ADD SWAP2 JUMPDEST POP POP POP POP POP SWAP1 DUP1 PUSH1 0x2 ADD DUP1 SLOAD PUSH2 0x79F SWAP1 PUSH2 0x15DF JUMP JUMPDEST DUP1 PUSH1 0x1F ADD PUSH1 0x20 DUP1 SWAP2 DIV MUL PUSH1 0x20 ADD PUSH1 0x40 MLOAD SWAP1 DUP2 ADD PUSH1 0x40 MSTORE DUP1 SWAP3 SWAP2 SWAP1 DUP2 DUP2 MSTORE PUSH1 0x20 ADD DUP3 DUP1 SLOAD PUSH2 0x7CB SWAP1 PUSH2 0x15DF JUMP JUMPDEST DUP1 ISZERO PUSH2 0x818 JUMPI DUP1 PUSH1 0x1F LT PUSH2 0x7ED JUMPI PUSH2 0x100 DUP1 DUP4 SLOAD DIV MUL DUP4 MSTORE SWAP2 PUSH1 0x20 ADD SWAP2 PUSH2 0x818 JUMP JUMPDEST DUP3 ADD SWAP2 SWAP1 PUSH1 0x0 MSTORE PUSH1 0x20 PUSH1 0x0 KECCAK256 SWAP1 JUMPDEST DUP2 SLOAD DUP2 MSTORE SWAP1 PUSH1 0x1 ADD SWAP1 PUSH1 0x20 ADD DUP1 DUP4 GT PUSH2 0x7FB JUMPI DUP3 SWAP1 SUB PUSH1 0x1F AND DUP3 ADD SWAP2 JUMPDEST POP POP POP POP POP SWAP1 DUP1 PUSH1 0x3 ADD DUP1 SLOAD PUSH2 0x82D SWAP1 PUSH2 0x15DF JUMP JUMPDEST DUP1 PUSH1 0x1F ADD PUSH1 0x20 DUP1 SWAP2 DIV MUL PUSH1 0x20 ADD PUSH1 0x40 MLOAD SWAP1 DUP2 ADD PUSH1 0x40 MSTORE DUP1 SWAP3 SWAP2 SWAP1 DUP2 DUP2 MSTORE PUSH1 0x20 ADD DUP3 DUP1 SLOAD PUSH2 0x859 SWAP1 PUSH2 0x15DF JUMP JUMPDEST DUP1 ISZERO PUSH2 0x8A6 JUMPI DUP1 PUSH1 0x1F LT PUSH2 0x87B JUMPI PUSH2 0x100 DUP1 DUP4 SLOAD DIV MUL DUP4 MSTORE SWAP2 PUSH1 0x20 ADD SWAP2 PUSH2 0x8A6 JUMP JUMPDEST DUP3 ADD SWAP2 SWAP1 PUSH1 0x0 MSTORE PUSH1 0x20 PUSH1 0x0 KECCAK256 SWAP1 JUMPDEST DUP2 SLOAD DUP2 MSTORE SWAP1 PUSH1 0x1 ADD SWAP1 PUSH1 0x20 ADD DUP1 DUP4 GT PUSH2 0x889 JUMPI DUP3 SWAP1 SUB PUSH1 0x1F AND DUP3 ADD SWAP2 JUMPDEST POP POP POP POP POP SWAP1 DUP1 PUSH1 0x4 ADD SLOAD SWAP1 DUP1 PUSH1 0x5 ADD SLOAD SWAP1 DUP1 PUSH1 0x6 ADD SLOAD SWAP1 POP DUP8 JUMP JUMPDEST PUSH1 0x0 PUSH1 0x4 DUP2 GT ISZERO PUSH2 0x8D6 JUMPI PUSH2 0x8D5 PUSH2 0x134D JUMP JUMPDEST JUMPDEST PUSH1 0x9 PUSH1 0x0 DUP5 DUP2 MSTORE PUSH1 0x20 ADD SWAP1 DUP2 MSTORE PUSH1 0x20 ADD PUSH1 0x0 KECCAK256 PUSH1 0x0 ADD PUSH1 0x0 SWAP1 SLOAD SWAP1 PUSH2 0x100 EXP SWAP1 DIV PUSH1 0xFF AND PUSH1 0x4 DUP2 GT ISZERO PUSH2 0x90C JUMPI PUSH2 0x90B PUSH2 0x134D JUMP JUMPDEST JUMPDEST EQ PUSH2 0x94C JUMPI PUSH1 0x40 MLOAD PUSH32 0x8C379A000000000000000000000000000000000000000000000000000000000 DUP2 MSTORE PUSH1 0x4 ADD PUSH2 0x943 SWAP1 PUSH2 0x1AA3 JUMP JUMPDEST PUSH1 0x40 MLOAD DUP1 SWAP2 SUB SWAP1 REVERT JUMPDEST TIMESTAMP PUSH1 0x6 DUP2 SWAP1 SSTORE POP PUSH1 0x1 PUSH1 0x9 PUSH1 0x0 DUP5 DUP2 MSTORE PUSH1 0x20 ADD SWAP1 DUP2 MSTORE PUSH1 0x20 ADD PUSH1 0x0 KECCAK256 PUSH1 0x0 ADD PUSH1 0x0 PUSH2 0x100 EXP DUP2 SLOAD DUP2 PUSH1 0xFF MUL NOT AND SWAP1 DUP4 PUSH1 0x4 DUP2 GT ISZERO PUSH2 0x98D JUMPI PUSH2 0x98C PUSH2 0x134D JUMP JUMPDEST JUMPDEST MUL OR SWAP1 SSTORE POP DUP1 PUSH1 0x8 PUSH1 0x0 DUP1 SLOAD DUP2 MSTORE PUSH1 0x20 ADD SWAP1 DUP2 MSTORE PUSH1 0x20 ADD PUSH1 0x0 KECCAK256 SWAP1 DUP2 PUSH2 0x9B3 SWAP2 SWAP1 PUSH2 0x18F3 JUMP JUMPDEST POP PUSH32 0xDEFE02112824E0AE81930C3E55AEEAC58D10E8B531AFDCB3BAD105492EC5A545 PUSH1 0x40 MLOAD PUSH2 0x9E1 SWAP1 PUSH2 0x1B35 JUMP JUMPDEST PUSH1 0x40 MLOAD DUP1 SWAP2 SUB SWAP1 LOG1 POP POP JUMP JUMPDEST PUSH1 0x4 DUP2 DUP2 SLOAD DUP2 LT PUSH2 0x9FD JUMPI PUSH1 0x0 DUP1 REVERT JUMPDEST SWAP1 PUSH1 0x0 MSTORE PUSH1 0x20 PUSH1 0x0 KECCAK256 ADD PUSH1 0x0 SWAP2 POP SWAP1 POP SLOAD DUP2 JUMP JUMPDEST PUSH1 0x3 PUSH1 0x4 DUP2 GT ISZERO PUSH2 0xA25 JUMPI PUSH2 0xA24 PUSH2 0x134D JUMP JUMPDEST JUMPDEST PUSH1 0x9 PUSH1 0x0 DUP5 DUP2 MSTORE PUSH1 0x20 ADD SWAP1 DUP2 MSTORE PUSH1 0x20 ADD PUSH1 0x0 KECCAK256 PUSH1 0x0 ADD PUSH1 0x0 SWAP1 SLOAD SWAP1 PUSH2 0x100 EXP SWAP1 DIV PUSH1 0xFF AND PUSH1 0x4 DUP2 GT ISZERO PUSH2 0xA5B JUMPI PUSH2 0xA5A PUSH2 0x134D JUMP JUMPDEST JUMPDEST EQ PUSH2 0xA9B JUMPI PUSH1 0x40 MLOAD PUSH32 0x8C379A000000000000000000000000000000000000000000000000000000000 DUP2 MSTORE PUSH1 0x4 ADD PUSH2 0xA92 SWAP1 PUSH2 0x1BC7 JUMP JUMPDEST PUSH1 0x40 MLOAD DUP1 SWAP2 SUB SWAP1 REVERT JUMPDEST PUSH1 0x0 DUP1 SHL PUSH1 0x8 PUSH1 0x0 DUP1 SLOAD DUP2 MSTORE PUSH1 0x20 ADD SWAP1 DUP2 MSTORE PUSH1 0x20 ADD PUSH1 0x0 KECCAK256 PUSH1 0x40 MLOAD PUSH1 0x20 ADD PUSH2 0xAC3 SWAP2 SWAP1 PUSH2 0x1745 JUMP JUMPDEST PUSH1 0x40 MLOAD PUSH1 0x20 DUP2 DUP4 SUB SUB DUP2 MSTORE SWAP1 PUSH1 0x40 MSTORE DUP1 MLOAD SWAP1 PUSH1 0x20 ADD KECCAK256 SUB PUSH2 0xAE3 JUMPI PUSH1 0x0 DUP1 REVERT JUMPDEST PUSH1 0x4 PUSH1 0x9 PUSH1 0x0 DUP5 DUP2 MSTORE PUSH1 0x20 ADD SWAP1 DUP2 MSTORE PUSH1 0x20 ADD PUSH1 0x0 KECCAK256 PUSH1 0x0 ADD PUSH1 0x0 PUSH2 0x100 EXP DUP2 SLOAD DUP2 PUSH1 0xFF MUL NOT AND SWAP1 DUP4 PUSH1 0x4 DUP2 GT ISZERO PUSH2 0xB1D JUMPI PUSH2 0xB1C PUSH2 0x134D JUMP JUMPDEST JUMPDEST MUL OR SWAP1 SSTORE POP DUP1 PUSH1 0x8 PUSH1 0x0 DUP1 SLOAD DUP2 MSTORE PUSH1 0x20 ADD SWAP1 DUP2 MSTORE PUSH1 0x20 ADD PUSH1 0x0 KECCAK256 SWAP1 DUP2 PUSH2 0xB43 SWAP2 SWAP1 PUSH2 0x18F3 JUMP JUMPDEST POP TIMESTAMP PUSH1 0x12 DUP2 SWAP1 SSTORE POP PUSH32 0x53BA0944807AE1D42E8A5684AA3CA1409F174F9D9A86D93409EF4379966B3EEE PUSH1 0x40 MLOAD PUSH2 0xB78 SWAP1 PUSH2 0x1C33 JUMP JUMPDEST PUSH1 0x40 MLOAD DUP1 SWAP2 SUB SWAP1 LOG1 POP POP JUMP JUMPDEST DUP1 PUSH1 0x8 PUSH1 0x0 DUP1 SLOAD DUP2 MSTORE PUSH1 0x20 ADD SWAP1 DUP2 MSTORE PUSH1 0x20 ADD PUSH1 0x0 KECCAK256 SWAP1 DUP2 PUSH2 0xBA5 SWAP2 SWAP1 PUSH2 0x18F3 JUMP JUMPDEST POP POP JUMP JUMPDEST PUSH1 0x10 DUP1 SLOAD PUSH2 0xBB6 SWAP1 PUSH2 0x15DF JUMP JUMPDEST DUP1 PUSH1 0x1F ADD PUSH1 0x20 DUP1 SWAP2 DIV MUL PUSH1 0x20 ADD PUSH1 0x40 MLOAD SWAP1 DUP2 ADD PUSH1 0x40 MSTORE DUP1 SWAP3 SWAP2 SWAP1 DUP2 DUP2 MSTORE PUSH1 0x20 ADD DUP3 DUP1 SLOAD PUSH2 0xBE2 SWAP1 PUSH2 0x15DF JUMP JUMPDEST DUP1 ISZERO PUSH2 0xC2F JUMPI DUP1 PUSH1 0x1F LT PUSH2 0xC04 JUMPI PUSH2 0x100 DUP1 DUP4 SLOAD DIV MUL DUP4 MSTORE SWAP2 PUSH1 0x20 ADD SWAP2 PUSH2 0xC2F JUMP JUMPDEST DUP3 ADD SWAP2 SWAP1 PUSH1 0x0 MSTORE PUSH1 0x20 PUSH1 0x0 KECCAK256 SWAP1 JUMPDEST DUP2 SLOAD DUP2 MSTORE SWAP1 PUSH1 0x1 ADD SWAP1 PUSH1 0x20 ADD DUP1 DUP4 GT PUSH2 0xC12 JUMPI DUP3 SWAP1 SUB PUSH1 0x1F AND DUP3 ADD SWAP2 JUMPDEST POP POP POP POP POP DUP2 JUMP JUMPDEST PUSH1 0x0 SLOAD DUP2 JUMP JUMPDEST PUSH1 0x7 DUP1 SLOAD PUSH2 0xC4A SWAP1 PUSH2 0x15DF JUMP JUMPDEST DUP1 PUSH1 0x1F ADD PUSH1 0x20 DUP1 SWAP2 DIV MUL PUSH1 0x20 ADD PUSH1 0x40 MLOAD SWAP1 DUP2 ADD PUSH1 0x40 MSTORE DUP1 SWAP3 SWAP2 SWAP1 DUP2 DUP2 MSTORE PUSH1 0x20 ADD DUP3 DUP1 SLOAD PUSH2 0xC76 SWAP1 PUSH2 0x15DF JUMP JUMPDEST DUP1 ISZERO PUSH2 0xCC3 JUMPI DUP1 PUSH1 0x1F LT PUSH2 0xC98 JUMPI PUSH2 0x100 DUP1 DUP4 SLOAD DIV MUL DUP4 MSTORE SWAP2 PUSH1 0x20 ADD SWAP2 PUSH2 0xCC3 JUMP JUMPDEST DUP3 ADD SWAP2 SWAP1 PUSH1 0x0 MSTORE PUSH1 0x20 PUSH1 0x0 KECCAK256 SWAP1 JUMPDEST DUP2 SLOAD DUP2 MSTORE SWAP1 PUSH1 0x1 ADD SWAP1 PUSH1 0x20 ADD DUP1 DUP4 GT PUSH2 0xCA6 JUMPI DUP3 SWAP1 SUB PUSH1 0x1F AND DUP3 ADD SWAP2 JUMPDEST POP POP POP POP POP DUP2 JUMP JUMPDEST PUSH1 0xB SLOAD DUP2 JUMP JUMPDEST TIMESTAMP PUSH1 0x5 DUP2 SWAP1 SSTORE POP DUP6 DUP6 DUP6 PUSH1 0x5 SLOAD PUSH1 0x40 MLOAD PUSH1 0x20 ADD PUSH2 0xCF1 SWAP5 SWAP4 SWAP3 SWAP2 SWAP1 PUSH2 0x1CA5 JUMP JUMPDEST PUSH1 0x40 MLOAD PUSH1 0x20 DUP2 DUP4 SUB SUB DUP2 MSTORE SWAP1 PUSH1 0x40 MSTORE DUP1 MLOAD SWAP1 PUSH1 0x20 ADD KECCAK256 PUSH1 0x0 SHR PUSH1 0x0 DUP2 SWAP1 SSTORE POP PUSH1 0x2 SLOAD PUSH1 0x0 DUP1 DUP3 DUP3 SLOAD PUSH2 0xD23 SWAP2 SWAP1 PUSH2 0x1D16 JUMP JUMPDEST SWAP3 POP POP DUP2 SWAP1 SSTORE POP DUP5 PUSH1 0x9 PUSH1 0x0 DUP1 SLOAD DUP2 MSTORE PUSH1 0x20 ADD SWAP1 DUP2 MSTORE PUSH1 0x20 ADD PUSH1 0x0 KECCAK256 PUSH1 0x1 ADD SWAP1 DUP2 PUSH2 0xD4E SWAP2 SWAP1 PUSH2 0x18F3 JUMP JUMPDEST POP DUP6 PUSH1 0x9 PUSH1 0x0 DUP1 SLOAD DUP2 MSTORE PUSH1 0x20 ADD SWAP1 DUP2 MSTORE PUSH1 0x20 ADD PUSH1 0x0 KECCAK256 PUSH1 0x3 ADD SWAP1 DUP2 PUSH2 0xD73 SWAP2 SWAP1 PUSH2 0x18F3 JUMP JUMPDEST POP DUP4 PUSH1 0x9 PUSH1 0x0 DUP1 SLOAD DUP2 MSTORE PUSH1 0x20 ADD SWAP1 DUP2 MSTORE PUSH1 0x20 ADD PUSH1 0x0 KECCAK256 PUSH1 0x2 ADD SWAP1 DUP2 PUSH2 0xD98 SWAP2 SWAP1 PUSH2 0x18F3 JUMP JUMPDEST POP DUP2 PUSH1 0x9 PUSH1 0x0 DUP1 SLOAD DUP2 MSTORE PUSH1 0x20 ADD SWAP1 DUP2 MSTORE PUSH1 0x20 ADD PUSH1 0x0 KECCAK256 PUSH1 0x4 ADD DUP2 SWAP1 SSTORE POP DUP1 PUSH1 0x9 PUSH1 0x0 DUP1 SLOAD DUP2 MSTORE PUSH1 0x20 ADD SWAP1 DUP2 MSTORE PUSH1 0x20 ADD PUSH1 0x0 KECCAK256 PUSH1 0x5 ADD DUP2 SWAP1 SSTORE POP DUP3 PUSH1 0x9 PUSH1 0x0 DUP1 SLOAD DUP2 MSTORE PUSH1 0x20 ADD SWAP1 DUP2 MSTORE PUSH1 0x20 ADD PUSH1 0x0 KECCAK256 PUSH1 0x0 ADD PUSH1 0x0 PUSH2 0x100 EXP DUP2 SLOAD DUP2 PUSH1 0xFF MUL NOT AND SWAP1 DUP4 PUSH1 0x4 DUP2 GT ISZERO PUSH2 0xE0B JUMPI PUSH2 0xE0A PUSH2 0x134D JUMP JUMPDEST JUMPDEST MUL OR SWAP1 SSTORE POP PUSH1 0x4 PUSH1 0x0 SLOAD SWAP1 DUP1 PUSH1 0x1 DUP2 SLOAD ADD DUP1 DUP3 SSTORE DUP1 SWAP2 POP POP PUSH1 0x1 SWAP1 SUB SWAP1 PUSH1 0x0 MSTORE PUSH1 0x20 PUSH1 0x0 KECCAK256 ADD PUSH1 0x0 SWAP1 SWAP2 SWAP1 SWAP2 SWAP1 SWAP2 POP SSTORE PUSH32 0xE9850CACBEABEB04673CEE1B608FEDF6E3163F0A8DA989D484B5348563E04D02 PUSH1 0x0 SLOAD PUSH1 0x40 MLOAD PUSH2 0xE6C SWAP2 SWAP1 PUSH2 0x1D93 JUMP JUMPDEST PUSH1 0x40 MLOAD DUP1 SWAP2 SUB SWAP1 LOG1 POP POP POP POP POP POP JUMP JUMPDEST PUSH1 0x9 PUSH1 0x20 MSTORE DUP1 PUSH1 0x0 MSTORE PUSH1 0x40 PUSH1 0x0 KECCAK256 PUSH1 0x0 SWAP2 POP SWAP1 POP DUP1 PUSH1 0x0 ADD PUSH1 0x0 SWAP1 SLOAD SWAP1 PUSH2 0x100 EXP SWAP1 DIV PUSH1 0xFF AND SWAP1 DUP1 PUSH1 0x1 ADD DUP1 SLOAD PUSH2 0xEB2 SWAP1 PUSH2 0x15DF JUMP JUMPDEST DUP1 PUSH1 0x1F ADD PUSH1 0x20 DUP1 SWAP2 DIV MUL PUSH1 0x20 ADD PUSH1 0x40 MLOAD SWAP1 DUP2 ADD PUSH1 0x40 MSTORE DUP1 SWAP3 SWAP2 SWAP1 DUP2 DUP2 MSTORE PUSH1 0x20 ADD DUP3 DUP1 SLOAD PUSH2 0xEDE SWAP1 PUSH2 0x15DF JUMP JUMPDEST DUP1 ISZERO PUSH2 0xF2B JUMPI DUP1 PUSH1 0x1F LT PUSH2 0xF00 JUMPI PUSH2 0x100 DUP1 DUP4 SLOAD DIV MUL DUP4 MSTORE SWAP2 PUSH1 0x20 ADD SWAP2 PUSH2 0xF2B JUMP JUMPDEST DUP3 ADD SWAP2 SWAP1 PUSH1 0x0 MSTORE PUSH1 0x20 PUSH1 0x0 KECCAK256 SWAP1 JUMPDEST DUP2 SLOAD DUP2 MSTORE SWAP1 PUSH1 0x1 ADD SWAP1 PUSH1 0x20 ADD DUP1 DUP4 GT PUSH2 0xF0E JUMPI DUP3 SWAP1 SUB PUSH1 0x1F AND DUP3 ADD SWAP2 JUMPDEST POP POP POP POP POP SWAP1 DUP1 PUSH1 0x2 ADD DUP1 SLOAD PUSH2 0xF40 SWAP1 PUSH2 0x15DF JUMP JUMPDEST DUP1 PUSH1 0x1F ADD PUSH1 0x20 DUP1 SWAP2 DIV MUL PUSH1 0x20 ADD PUSH1 0x40 MLOAD SWAP1 DUP2 ADD PUSH1 0x40 MSTORE DUP1 SWAP3 SWAP2 SWAP1 DUP2 DUP2 MSTORE PUSH1 0x20 ADD DUP3 DUP1 SLOAD PUSH2 0xF6C SWAP1 PUSH2 0x15DF JUMP JUMPDEST DUP1 ISZERO PUSH2 0xFB9 JUMPI DUP1 PUSH1 0x1F LT PUSH2 0xF8E JUMPI PUSH2 0x100 DUP1 DUP4 SLOAD DIV MUL DUP4 MSTORE SWAP2 PUSH1 0x20 ADD SWAP2 PUSH2 0xFB9 JUMP JUMPDEST DUP3 ADD SWAP2 SWAP1 PUSH1 0x0 MSTORE PUSH1 0x20 PUSH1 0x0 KECCAK256 SWAP1 JUMPDEST DUP2 SLOAD DUP2 MSTORE SWAP1 PUSH1 0x1 ADD SWAP1 PUSH1 0x20 ADD DUP1 DUP4 GT PUSH2 0xF9C JUMPI DUP3 SWAP1 SUB PUSH1 0x1F AND DUP3 ADD SWAP2 JUMPDEST POP POP POP POP POP SWAP1 DUP1 PUSH1 0x3 ADD DUP1 SLOAD PUSH2 0xFCE SWAP1 PUSH2 0x15DF JUMP JUMPDEST DUP1 PUSH1 0x1F ADD PUSH1 0x20 DUP1 SWAP2 DIV MUL PUSH1 0x20 ADD PUSH1 0x40 MLOAD SWAP1 DUP2 ADD PUSH1 0x40 MSTORE DUP1 SWAP3 SWAP2 SWAP1 DUP2 DUP2 MSTORE PUSH1 0x20 ADD DUP3 DUP1 SLOAD PUSH2 0xFFA SWAP1 PUSH2 0x15DF JUMP JUMPDEST DUP1 ISZERO PUSH2 0x1047 JUMPI DUP1 PUSH1 0x1F LT PUSH2 0x101C JUMPI PUSH2 0x100 DUP1 DUP4 SLOAD DIV MUL DUP4 MSTORE SWAP2 PUSH1 0x20 ADD SWAP2 PUSH2 0x1047 JUMP JUMPDEST DUP3 ADD SWAP2 SWAP1 PUSH1 0x0 MSTORE PUSH1 0x20 PUSH1 0x0 KECCAK256 SWAP1 JUMPDEST DUP2 SLOAD DUP2 MSTORE SWAP1 PUSH1 0x1 ADD SWAP1 PUSH1 0x20 ADD DUP1 DUP4 GT PUSH2 0x102A JUMPI DUP3 SWAP1 SUB PUSH1 0x1F AND DUP3 ADD SWAP2 JUMPDEST POP POP POP POP POP SWAP1 DUP1 PUSH1 0x4 ADD SLOAD SWAP1 DUP1 PUSH1 0x5 ADD SLOAD SWAP1 DUP1 PUSH1 0x6 ADD SLOAD SWAP1 POP DUP8 JUMP JUMPDEST PUSH1 0x11 SLOAD DUP2 JUMP JUMPDEST PUSH1 0x0 DUP2 SWAP1 POP SWAP2 SWAP1 POP JUMP JUMPDEST PUSH2 0x107C DUP2 PUSH2 0x1069 JUMP JUMPDEST DUP3 MSTORE POP POP JUMP JUMPDEST PUSH1 0x0 PUSH1 0x20 DUP3 ADD SWAP1 POP PUSH2 0x1097 PUSH1 0x0 DUP4 ADD DUP5 PUSH2 0x1073 JUMP JUMPDEST SWAP3 SWAP2 POP POP JUMP JUMPDEST PUSH1 0x0 PUSH1 0x40 MLOAD SWAP1 POP SWAP1 JUMP JUMPDEST PUSH1 0x0 DUP1 REVERT JUMPDEST PUSH1 0x0 DUP1 REVERT JUMPDEST PUSH2 0x10BA DUP2 PUSH2 0x1069 JUMP JUMPDEST DUP2 EQ PUSH2 0x10C5 JUMPI PUSH1 0x0 DUP1 REVERT JUMPDEST POP JUMP JUMPDEST PUSH1 0x0 DUP2 CALLDATALOAD SWAP1 POP PUSH2 0x10D7 DUP2 PUSH2 0x10B1 JUMP JUMPDEST SWAP3 SWAP2 POP POP JUMP JUMPDEST PUSH1 0x0 PUSH1 0x20 DUP3 DUP5 SUB SLT ISZERO PUSH2 0x10F3 JUMPI PUSH2 0x10F2 PUSH2 0x10A7 JUMP JUMPDEST JUMPDEST PUSH1 0x0 PUSH2 0x1101 DUP5 DUP3 DUP6 ADD PUSH2 0x10C8 JUMP JUMPDEST SWAP2 POP POP SWAP3 SWAP2 POP POP JUMP JUMPDEST PUSH1 0x0 DUP2 MLOAD SWAP1 POP SWAP2 SWAP1 POP JUMP JUMPDEST PUSH1 0x0 DUP3 DUP3 MSTORE PUSH1 0x20 DUP3 ADD SWAP1 POP SWAP3 SWAP2 POP POP JUMP JUMPDEST PUSH1 0x0 JUMPDEST DUP4 DUP2 LT ISZERO PUSH2 0x1144 JUMPI DUP1 DUP3 ADD MLOAD DUP2 DUP5 ADD MSTORE PUSH1 0x20 DUP2 ADD SWAP1 POP PUSH2 0x1129 JUMP JUMPDEST PUSH1 0x0 DUP5 DUP5 ADD MSTORE POP POP POP POP JUMP JUMPDEST PUSH1 0x0 PUSH1 0x1F NOT PUSH1 0x1F DUP4 ADD AND SWAP1 POP SWAP2 SWAP1 POP JUMP JUMPDEST PUSH1 0x0 PUSH2 0x116C DUP3 PUSH2 0x110A JUMP JUMPDEST PUSH2 0x1176 DUP2 DUP6 PUSH2 0x1115 JUMP JUMPDEST SWAP4 POP PUSH2 0x1186 DUP2 DUP6 PUSH1 0x20 DUP7 ADD PUSH2 0x1126 JUMP JUMPDEST PUSH2 0x118F DUP2 PUSH2 0x1150 JUMP JUMPDEST DUP5 ADD SWAP2 POP POP SWAP3 SWAP2 POP POP JUMP JUMPDEST PUSH1 0x0 PUSH1 0x20 DUP3 ADD SWAP1 POP DUP2 DUP2 SUB PUSH1 0x0 DUP4 ADD MSTORE PUSH2 0x11B4 DUP2 DUP5 PUSH2 0x1161 JUMP JUMPDEST SWAP1 POP SWAP3 SWAP2 POP POP JUMP JUMPDEST PUSH1 0x0 DUP1 REVERT JUMPDEST PUSH1 0x0 DUP1 REVERT JUMPDEST PUSH32 0x4E487B7100000000000000000000000000000000000000000000000000000000 PUSH1 0x0 MSTORE PUSH1 0x41 PUSH1 0x4 MSTORE PUSH1 0x24 PUSH1 0x0 REVERT JUMPDEST PUSH2 0x11FE DUP3 PUSH2 0x1150 JUMP JUMPDEST DUP2 ADD DUP2 DUP2 LT PUSH8 0xFFFFFFFFFFFFFFFF DUP3 GT OR ISZERO PUSH2 0x121D JUMPI PUSH2 0x121C PUSH2 0x11C6 JUMP JUMPDEST JUMPDEST DUP1 PUSH1 0x40 MSTORE POP POP POP JUMP JUMPDEST PUSH1 0x0 PUSH2 0x1230 PUSH2 0x109D JUMP JUMPDEST SWAP1 POP PUSH2 0x123C DUP3 DUP3 PUSH2 0x11F5 JUMP JUMPDEST SWAP2 SWAP1 POP JUMP JUMPDEST PUSH1 0x0 PUSH8 0xFFFFFFFFFFFFFFFF DUP3 GT ISZERO PUSH2 0x125C JUMPI PUSH2 0x125B PUSH2 0x11C6 JUMP JUMPDEST JUMPDEST PUSH2 0x1265 DUP3 PUSH2 0x1150 JUMP JUMPDEST SWAP1 POP PUSH1 0x20 DUP2 ADD SWAP1 POP SWAP2 SWAP1 POP JUMP JUMPDEST DUP3 DUP2 DUP4 CALLDATACOPY PUSH1 0x0 DUP4 DUP4 ADD MSTORE POP POP POP JUMP JUMPDEST PUSH1 0x0 PUSH2 0x1294 PUSH2 0x128F DUP5 PUSH2 0x1241 JUMP JUMPDEST PUSH2 0x1226 JUMP JUMPDEST SWAP1 POP DUP3 DUP2 MSTORE PUSH1 0x20 DUP2 ADD DUP5 DUP5 DUP5 ADD GT ISZERO PUSH2 0x12B0 JUMPI PUSH2 0x12AF PUSH2 0x11C1 JUMP JUMPDEST JUMPDEST PUSH2 0x12BB DUP5 DUP3 DUP6 PUSH2 0x1272 JUMP JUMPDEST POP SWAP4 SWAP3 POP POP POP JUMP JUMPDEST PUSH1 0x0 DUP3 PUSH1 0x1F DUP4 ADD SLT PUSH2 0x12D8 JUMPI PUSH2 0x12D7 PUSH2 0x11BC JUMP JUMPDEST JUMPDEST DUP2 CALLDATALOAD PUSH2 0x12E8 DUP5 DUP3 PUSH1 0x20 DUP7 ADD PUSH2 0x1281 JUMP JUMPDEST SWAP2 POP POP SWAP3 SWAP2 POP POP JUMP JUMPDEST PUSH1 0x0 DUP1 PUSH1 0x40 DUP4 DUP6 SUB SLT ISZERO PUSH2 0x1308 JUMPI PUSH2 0x1307 PUSH2 0x10A7 JUMP JUMPDEST JUMPDEST PUSH1 0x0 PUSH2 0x1316 DUP6 DUP3 DUP7 ADD PUSH2 0x10C8 JUMP JUMPDEST SWAP3 POP POP PUSH1 0x20 DUP4 ADD CALLDATALOAD PUSH8 0xFFFFFFFFFFFFFFFF DUP2 GT ISZERO PUSH2 0x1337 JUMPI PUSH2 0x1336 PUSH2 0x10AC JUMP JUMPDEST JUMPDEST PUSH2 0x1343 DUP6 DUP3 DUP7 ADD PUSH2 0x12C3 JUMP JUMPDEST SWAP2 POP POP SWAP3 POP SWAP3 SWAP1 POP JUMP JUMPDEST PUSH32 0x4E487B7100000000000000000000000000000000000000000000000000000000 PUSH1 0x0 MSTORE PUSH1 0x21 PUSH1 0x4 MSTORE PUSH1 0x24 PUSH1 0x0 REVERT JUMPDEST PUSH1 0x5 DUP2 LT PUSH2 0x138D JUMPI PUSH2 0x138C PUSH2 0x134D JUMP JUMPDEST JUMPDEST POP JUMP JUMPDEST PUSH1 0x0 DUP2 SWAP1 POP PUSH2 0x139E DUP3 PUSH2 0x137C JUMP JUMPDEST SWAP2 SWAP1 POP JUMP JUMPDEST PUSH1 0x0 PUSH2 0x13AE DUP3 PUSH2 0x1390 JUMP JUMPDEST SWAP1 POP SWAP2 SWAP1 POP JUMP JUMPDEST PUSH2 0x13BE DUP2 PUSH2 0x13A3 JUMP JUMPDEST DUP3 MSTORE POP POP JUMP JUMPDEST PUSH1 0x0 DUP2 SWAP1 POP SWAP2 SWAP1 POP JUMP JUMPDEST PUSH2 0x13D7 DUP2 PUSH2 0x13C4 JUMP JUMPDEST DUP3 MSTORE POP POP JUMP JUMPDEST PUSH1 0x0 PUSH1 0xE0 DUP3 ADD SWAP1 POP PUSH2 0x13F2 PUSH1 0x0 DUP4 ADD DUP11 PUSH2 0x13B5 JUMP JUMPDEST DUP2 DUP2 SUB PUSH1 0x20 DUP4 ADD MSTORE PUSH2 0x1404 DUP2 DUP10 PUSH2 0x1161 JUMP JUMPDEST SWAP1 POP DUP2 DUP2 SUB PUSH1 0x40 DUP4 ADD MSTORE PUSH2 0x1418 DUP2 DUP9 PUSH2 0x1161 JUMP JUMPDEST SWAP1 POP DUP2 DUP2 SUB PUSH1 0x60 DUP4 ADD MSTORE PUSH2 0x142C DUP2 DUP8 PUSH2 0x1161 JUMP JUMPDEST SWAP1 POP PUSH2 0x143B PUSH1 0x80 DUP4 ADD DUP7 PUSH2 0x1073 JUMP JUMPDEST PUSH2 0x1448 PUSH1 0xA0 DUP4 ADD DUP6 PUSH2 0x1073 JUMP JUMPDEST PUSH2 0x1455 PUSH1 0xC0 DUP4 ADD DUP5 PUSH2 0x13CE JUMP JUMPDEST SWAP9 SWAP8 POP POP POP POP POP POP POP POP JUMP JUMPDEST PUSH1 0x0 PUSH1 0x20 DUP3 DUP5 SUB SLT ISZERO PUSH2 0x1477 JUMPI PUSH2 0x1476 PUSH2 0x10A7 JUMP JUMPDEST JUMPDEST PUSH1 0x0 DUP3 ADD CALLDATALOAD PUSH8 0xFFFFFFFFFFFFFFFF DUP2 GT ISZERO PUSH2 0x1495 JUMPI PUSH2 0x1494 PUSH2 0x10AC JUMP JUMPDEST JUMPDEST PUSH2 0x14A1 DUP5 DUP3 DUP6 ADD PUSH2 0x12C3 JUMP JUMPDEST SWAP2 POP POP SWAP3 SWAP2 POP POP JUMP JUMPDEST PUSH1 0x5 DUP2 LT PUSH2 0x14B7 JUMPI PUSH1 0x0 DUP1 REVERT JUMPDEST POP JUMP JUMPDEST PUSH1 0x0 DUP2 CALLDATALOAD SWAP1 POP PUSH2 0x14C9 DUP2 PUSH2 0x14AA JUMP JUMPDEST SWAP3 SWAP2 POP POP JUMP JUMPDEST PUSH1 0x0 DUP1 PUSH1 0x0 DUP1 PUSH1 0x0 DUP1 PUSH1 0xC0 DUP8 DUP10 SUB SLT ISZERO PUSH2 0x14EC JUMPI PUSH2 0x14EB PUSH2 0x10A7 JUMP JUMPDEST JUMPDEST PUSH1 0x0 DUP8 ADD CALLDATALOAD PUSH8 0xFFFFFFFFFFFFFFFF DUP2 GT ISZERO PUSH2 0x150A JUMPI PUSH2 0x1509 PUSH2 0x10AC JUMP JUMPDEST JUMPDEST PUSH2 0x1516 DUP10 DUP3 DUP11 ADD PUSH2 0x12C3 JUMP JUMPDEST SWAP7 POP POP PUSH1 0x20 DUP8 ADD CALLDATALOAD PUSH8 0xFFFFFFFFFFFFFFFF DUP2 GT ISZERO PUSH2 0x1537 JUMPI PUSH2 0x1536 PUSH2 0x10AC JUMP JUMPDEST JUMPDEST PUSH2 0x1543 DUP10 DUP3 DUP11 ADD PUSH2 0x12C3 JUMP JUMPDEST SWAP6 POP POP PUSH1 0x40 DUP8 ADD CALLDATALOAD PUSH8 0xFFFFFFFFFFFFFFFF DUP2 GT ISZERO PUSH2 0x1564 JUMPI PUSH2 0x1563 PUSH2 0x10AC JUMP JUMPDEST JUMPDEST PUSH2 0x1570 DUP10 DUP3 DUP11 ADD PUSH2 0x12C3 JUMP JUMPDEST SWAP5 POP POP PUSH1 0x60 PUSH2 0x1581 DUP10 DUP3 DUP11 ADD PUSH2 0x14BA JUMP JUMPDEST SWAP4 POP POP PUSH1 0x80 PUSH2 0x1592 DUP10 DUP3 DUP11 ADD PUSH2 0x10C8 JUMP JUMPDEST SWAP3 POP POP PUSH1 0xA0 PUSH2 0x15A3 DUP10 DUP3 DUP11 ADD PUSH2 0x10C8 JUMP JUMPDEST SWAP2 POP POP SWAP3 SWAP6 POP SWAP3 SWAP6 POP SWAP3 SWAP6 JUMP JUMPDEST PUSH32 0x4E487B7100000000000000000000000000000000000000000000000000000000 PUSH1 0x0 MSTORE PUSH1 0x22 PUSH1 0x4 MSTORE PUSH1 0x24 PUSH1 0x0 REVERT JUMPDEST PUSH1 0x0 PUSH1 0x2 DUP3 DIV SWAP1 POP PUSH1 0x1 DUP3 AND DUP1 PUSH2 0x15F7 JUMPI PUSH1 0x7F DUP3 AND SWAP2 POP JUMPDEST PUSH1 0x20 DUP3 LT DUP2 SUB PUSH2 0x160A JUMPI PUSH2 0x1609 PUSH2 0x15B0 JUMP JUMPDEST JUMPDEST POP SWAP2 SWAP1 POP JUMP JUMPDEST PUSH32 0x6D656469636174696F6E206973206E6F74206469737061746368656420796574 PUSH1 0x0 DUP3 ADD MSTORE PUSH32 0x2066726F6D206D616E7566616374757265720000000000000000000000000000 PUSH1 0x20 DUP3 ADD MSTORE POP JUMP JUMPDEST PUSH1 0x0 PUSH2 0x166C PUSH1 0x32 DUP4 PUSH2 0x1115 JUMP JUMPDEST SWAP2 POP PUSH2 0x1677 DUP3 PUSH2 0x1610 JUMP JUMPDEST PUSH1 0x40 DUP3 ADD SWAP1 POP SWAP2 SWAP1 POP JUMP JUMPDEST PUSH1 0x0 PUSH1 0x20 DUP3 ADD SWAP1 POP DUP2 DUP2 SUB PUSH1 0x0 DUP4 ADD MSTORE PUSH2 0x169B DUP2 PUSH2 0x165F JUMP JUMPDEST SWAP1 POP SWAP2 SWAP1 POP JUMP JUMPDEST PUSH1 0x0 DUP2 SWAP1 POP SWAP3 SWAP2 POP POP JUMP JUMPDEST PUSH1 0x0 DUP2 SWAP1 POP DUP2 PUSH1 0x0 MSTORE PUSH1 0x20 PUSH1 0x0 KECCAK256 SWAP1 POP SWAP2 SWAP1 POP JUMP JUMPDEST PUSH1 0x0 DUP2 SLOAD PUSH2 0x16CF DUP2 PUSH2 0x15DF JUMP JUMPDEST PUSH2 0x16D9 DUP2 DUP7 PUSH2 0x16A2 JUMP JUMPDEST SWAP5 POP PUSH1 0x1 DUP3 AND PUSH1 0x0 DUP2 EQ PUSH2 0x16F4 JUMPI PUSH1 0x1 DUP2 EQ PUSH2 0x1709 JUMPI PUSH2 0x173C JUMP JUMPDEST PUSH1 0xFF NOT DUP4 AND DUP7 MSTORE DUP2 ISZERO ISZERO DUP3 MUL DUP7 ADD SWAP4 POP PUSH2 0x173C JUMP JUMPDEST PUSH2 0x1712 DUP6 PUSH2 0x16AD JUMP JUMPDEST PUSH1 0x0 JUMPDEST DUP4 DUP2 LT ISZERO PUSH2 0x1734 JUMPI DUP2 SLOAD DUP2 DUP10 ADD MSTORE PUSH1 0x1 DUP3 ADD SWAP2 POP PUSH1 0x20 DUP2 ADD SWAP1 POP PUSH2 0x1715 JUMP JUMPDEST DUP4 DUP9 ADD SWAP6 POP POP POP JUMPDEST POP POP POP SWAP3 SWAP2 POP POP JUMP JUMPDEST PUSH1 0x0 PUSH2 0x1751 DUP3 DUP5 PUSH2 0x16C2 JUMP JUMPDEST SWAP2 POP DUP2 SWAP1 POP SWAP3 SWAP2 POP POP JUMP JUMPDEST PUSH1 0x0 PUSH1 0x20 PUSH1 0x1F DUP4 ADD DIV SWAP1 POP SWAP2 SWAP1 POP JUMP JUMPDEST PUSH1 0x0 DUP3 DUP3 SHL SWAP1 POP SWAP3 SWAP2 POP POP JUMP JUMPDEST PUSH1 0x0 PUSH1 0x8 DUP4 MUL PUSH2 0x17A9 PUSH32 0xFFFFFFFFFFFFFFFFFFFFFFFFFFFFFFFFFFFFFFFFFFFFFFFFFFFFFFFFFFFFFFFF DUP3 PUSH2 0x176C JUMP JUMPDEST PUSH2 0x17B3 DUP7 DUP4 PUSH2 0x176C JUMP JUMPDEST SWAP6 POP DUP1 NOT DUP5 AND SWAP4 POP DUP1 DUP7 AND DUP5 OR SWAP3 POP POP POP SWAP4 SWAP3 POP POP POP JUMP JUMPDEST PUSH1 0x0 DUP2 SWAP1 POP SWAP2 SWAP1 POP JUMP JUMPDEST PUSH1 0x0 PUSH2 0x17F0 PUSH2 0x17EB PUSH2 0x17E6 DUP5 PUSH2 0x1069 JUMP JUMPDEST PUSH2 0x17CB JUMP JUMPDEST PUSH2 0x1069 JUMP JUMPDEST SWAP1 POP SWAP2 SWAP1 POP JUMP JUMPDEST PUSH1 0x0 DUP2 SWAP1 POP SWAP2 SWAP1 POP JUMP JUMPDEST PUSH2 0x180A DUP4 PUSH2 0x17D5 JUMP JUMPDEST PUSH2 0x181E PUSH2 0x1816 DUP3 PUSH2 0x17F7 JUMP JUMPDEST DUP5 DUP5 SLOAD PUSH2 0x1779 JUMP JUMPDEST DUP3 SSTORE POP POP POP POP JUMP JUMPDEST PUSH1 0x0 SWAP1 JUMP JUMPDEST PUSH2 0x1833 PUSH2 0x1826 JUMP JUMPDEST PUSH2 0x183E DUP2 DUP5 DUP5 PUSH2 0x1801 JUMP JUMPDEST POP POP POP JUMP JUMPDEST JUMPDEST DUP2 DUP2 LT ISZERO PUSH2 0x1862 JUMPI PUSH2 0x1857 PUSH1 0x0 DUP3 PUSH2 0x182B JUMP JUMPDEST PUSH1 0x1 DUP2 ADD SWAP1 POP PUSH2 0x1844 JUMP JUMPDEST POP POP JUMP JUMPDEST PUSH1 0x1F DUP3 GT ISZERO PUSH2 0x18A7 JUMPI PUSH2 0x1878 DUP2 PUSH2 0x16AD JUMP JUMPDEST PUSH2 0x1881 DUP5 PUSH2 0x175C JUMP JUMPDEST DUP2 ADD PUSH1 0x20 DUP6 LT ISZERO PUSH2 0x1890 JUMPI DUP2 SWAP1 POP JUMPDEST PUSH2 0x18A4 PUSH2 0x189C DUP6 PUSH2 0x175C JUMP JUMPDEST DUP4 ADD DUP3 PUSH2 0x1843 JUMP JUMPDEST POP POP JUMPDEST POP POP POP JUMP JUMPDEST PUSH1 0x0 DUP3 DUP3 SHR SWAP1 POP SWAP3 SWAP2 POP POP JUMP JUMPDEST PUSH1 0x0 PUSH2 0x18CA PUSH1 0x0 NOT DUP5 PUSH1 0x8 MUL PUSH2 0x18AC JUMP JUMPDEST NOT DUP1 DUP4 AND SWAP2 POP POP SWAP3 SWAP2 POP POP JUMP JUMPDEST PUSH1 0x0 PUSH2 0x18E3 DUP4 DUP4 PUSH2 0x18B9 JUMP JUMPDEST SWAP2 POP DUP3 PUSH1 0x2 MUL DUP3 OR SWAP1 POP SWAP3 SWAP2 POP POP JUMP JUMPDEST PUSH2 0x18FC DUP3 PUSH2 0x110A JUMP JUMPDEST PUSH8 0xFFFFFFFFFFFFFFFF DUP2 GT ISZERO PUSH2 0x1915 JUMPI PUSH2 0x1914 PUSH2 0x11C6 JUMP JUMPDEST JUMPDEST PUSH2 0x191F DUP3 SLOAD PUSH2 0x15DF JUMP JUMPDEST PUSH2 0x192A DUP3 DUP3 DUP6 PUSH2 0x1866 JUMP JUMPDEST PUSH1 0x0 PUSH1 0x20 SWAP1 POP PUSH1 0x1F DUP4 GT PUSH1 0x1 DUP2 EQ PUSH2 0x195D JUMPI PUSH1 0x0 DUP5 ISZERO PUSH2 0x194B JUMPI DUP3 DUP8 ADD MLOAD SWAP1 POP JUMPDEST PUSH2 0x1955 DUP6 DUP3 PUSH2 0x18D7 JUMP JUMPDEST DUP7 SSTORE POP PUSH2 0x19BD JUMP JUMPDEST PUSH1 0x1F NOT DUP5 AND PUSH2 0x196B DUP7 PUSH2 0x16AD JUMP JUMPDEST PUSH1 0x0 JUMPDEST DUP3 DUP2 LT ISZERO PUSH2 0x1993 JUMPI DUP5 DUP10 ADD MLOAD DUP3 SSTORE PUSH1 0x1 DUP3 ADD SWAP2 POP PUSH1 0x20 DUP6 ADD SWAP5 POP PUSH1 0x20 DUP2 ADD SWAP1 POP PUSH2 0x196E JUMP JUMPDEST DUP7 DUP4 LT ISZERO PUSH2 0x19B0 JUMPI DUP5 DUP10 ADD MLOAD PUSH2 0x19AC PUSH1 0x1F DUP10 AND DUP3 PUSH2 0x18B9 JUMP JUMPDEST DUP4 SSTORE POP JUMPDEST PUSH1 0x1 PUSH1 0x2 DUP9 MUL ADD DUP9 SSTORE POP POP POP JUMPDEST POP POP POP POP POP POP JUMP JUMPDEST PUSH32 0x7665726669636174696F6E20436F6D706C657465000000000000000000000000 PUSH1 0x0 DUP3 ADD MSTORE POP JUMP JUMPDEST PUSH1 0x0 PUSH2 0x19FB PUSH1 0x14 DUP4 PUSH2 0x1115 JUMP JUMPDEST SWAP2 POP PUSH2 0x1A06 DUP3 PUSH2 0x19C5 JUMP JUMPDEST PUSH1 0x20 DUP3 ADD SWAP1 POP SWAP2 SWAP1 POP JUMP JUMPDEST PUSH1 0x0 PUSH1 0x20 DUP3 ADD SWAP1 POP DUP2 DUP2 SUB PUSH1 0x0 DUP4 ADD MSTORE PUSH2 0x1A2A DUP2 PUSH2 0x19EE JUMP JUMPDEST SWAP1 POP SWAP2 SWAP1 POP JUMP JUMPDEST PUSH32 0x6D656469636174696F6E206973206E6F74207965742075706C6F616420696E20 PUSH1 0x0 DUP3 ADD MSTORE PUSH32 0x636861696E000000000000000000000000000000000000000000000000000000 PUSH1 0x20 DUP3 ADD MSTORE POP JUMP JUMPDEST PUSH1 0x0 PUSH2 0x1A8D PUSH1 0x25 DUP4 PUSH2 0x1115 JUMP JUMPDEST SWAP2 POP PUSH2 0x1A98 DUP3 PUSH2 0x1A31 JUMP JUMPDEST PUSH1 0x40 DUP3 ADD SWAP1 POP SWAP2 SWAP1 POP JUMP JUMPDEST PUSH1 0x0 PUSH1 0x20 DUP3 ADD SWAP1 POP DUP2 DUP2 SUB PUSH1 0x0 DUP4 ADD MSTORE PUSH2 0x1ABC DUP2 PUSH2 0x1A80 JUMP JUMPDEST SWAP1 POP SWAP2 SWAP1 POP JUMP JUMPDEST PUSH32 0x4469737061746368696E6720636F6D706C657465207375636365737366756C6C PUSH1 0x0 DUP3 ADD MSTORE PUSH32 0x7900000000000000000000000000000000000000000000000000000000000000 PUSH1 0x20 DUP3 ADD MSTORE POP JUMP JUMPDEST PUSH1 0x0 PUSH2 0x1B1F PUSH1 0x21 DUP4 PUSH2 0x1115 JUMP JUMPDEST SWAP2 POP PUSH2 0x1B2A DUP3 PUSH2 0x1AC3 JUMP JUMPDEST PUSH1 0x40 DUP3 ADD SWAP1 POP SWAP2 SWAP1 POP JUMP JUMPDEST PUSH1 0x0 PUSH1 0x20 DUP3 ADD SWAP1 POP DUP2 DUP2 SUB PUSH1 0x0 DUP4 ADD MSTORE PUSH2 0x1B4E DUP2 PUSH2 0x1B12 JUMP JUMPDEST SWAP1 POP SWAP2 SWAP1 POP JUMP JUMPDEST PUSH32 0x6D656469636174696F6E206973206E6F74207965742064697370617463686564 PUSH1 0x0 DUP3 ADD MSTORE PUSH32 0x2066726F6D20537570706C696572000000000000000000000000000000000000 PUSH1 0x20 DUP3 ADD MSTORE POP JUMP JUMPDEST PUSH1 0x0 PUSH2 0x1BB1 PUSH1 0x2E DUP4 PUSH2 0x1115 JUMP JUMPDEST SWAP2 POP PUSH2 0x1BBC DUP3 PUSH2 0x1B55 JUMP JUMPDEST PUSH1 0x40 DUP3 ADD SWAP1 POP SWAP2 SWAP1 POP JUMP JUMPDEST PUSH1 0x0 PUSH1 0x20 DUP3 ADD SWAP1 POP DUP2 DUP2 SUB PUSH1 0x0 DUP4 ADD MSTORE PUSH2 0x1BE0 DUP2 PUSH2 0x1BA4 JUMP JUMPDEST SWAP1 POP SWAP2 SWAP1 POP JUMP JUMPDEST PUSH32 0x76726572696669636174696F6E20436F6D706C65746500000000000000000000 PUSH1 0x0 DUP3 ADD MSTORE POP JUMP JUMPDEST PUSH1 0x0 PUSH2 0x1C1D PUSH1 0x16 DUP4 PUSH2 0x1115 JUMP JUMPDEST SWAP2 POP PUSH2 0x1C28 DUP3 PUSH2 0x1BE7 JUMP JUMPDEST PUSH1 0x20 DUP3 ADD SWAP1 POP SWAP2 SWAP1 POP JUMP JUMPDEST PUSH1 0x0 PUSH1 0x20 DUP3 ADD SWAP1 POP DUP2 DUP2 SUB PUSH1 0x0 DUP4 ADD MSTORE PUSH2 0x1C4C DUP2 PUSH2 0x1C10 JUMP JUMPDEST SWAP1 POP SWAP2 SWAP1 POP JUMP JUMPDEST PUSH1 0x0 PUSH2 0x1C5E DUP3 PUSH2 0x110A JUMP JUMPDEST PUSH2 0x1C68 DUP2 DUP6 PUSH2 0x16A2 JUMP JUMPDEST SWAP4 POP PUSH2 0x1C78 DUP2 DUP6 PUSH1 0x20 DUP7 ADD PUSH2 0x1126 JUMP JUMPDEST DUP1 DUP5 ADD SWAP2 POP POP SWAP3 SWAP2 POP POP JUMP JUMPDEST PUSH1 0x0 DUP2 SWAP1 POP SWAP2 SWAP1 POP JUMP JUMPDEST PUSH2 0x1C9F PUSH2 0x1C9A DUP3 PUSH2 0x1069 JUMP JUMPDEST PUSH2 0x1C84 JUMP JUMPDEST DUP3 MSTORE POP POP JUMP JUMPDEST PUSH1 0x0 PUSH2 0x1CB1 DUP3 DUP8 PUSH2 0x1C53 JUMP JUMPDEST SWAP2 POP PUSH2 0x1CBD DUP3 DUP7 PUSH2 0x1C53 JUMP JUMPDEST SWAP2 POP PUSH2 0x1CC9 DUP3 DUP6 PUSH2 0x1C53 JUMP JUMPDEST SWAP2 POP PUSH2 0x1CD5 DUP3 DUP5 PUSH2 0x1C8E JUMP JUMPDEST PUSH1 0x20 DUP3 ADD SWAP2 POP DUP2 SWAP1 POP SWAP6 SWAP5 POP POP POP POP POP JUMP JUMPDEST PUSH32 0x4E487B7100000000000000000000000000000000000000000000000000000000 PUSH1 0x0 MSTORE PUSH1 0x12 PUSH1 0x4 MSTORE PUSH1 0x24 PUSH1 0x0 REVERT JUMPDEST PUSH1 0x0 PUSH2 0x1D21 DUP3 PUSH2 0x1069 JUMP JUMPDEST SWAP2 POP PUSH2 0x1D2C DUP4 PUSH2 0x1069 JUMP JUMPDEST SWAP3 POP DUP3 PUSH2 0x1D3C JUMPI PUSH2 0x1D3B PUSH2 0x1CE7 JUMP JUMPDEST JUMPDEST DUP3 DUP3 MOD SWAP1 POP SWAP3 SWAP2 POP POP JUMP JUMPDEST PUSH32 0x73657269616C206E756D626572206F6620746865206D656469636174696F6E00 PUSH1 0x0 DUP3 ADD MSTORE POP JUMP JUMPDEST PUSH1 0x0 PUSH2 0x1D7D PUSH1 0x1F DUP4 PUSH2 0x1115 JUMP JUMPDEST SWAP2 POP PUSH2 0x1D88 DUP3 PUSH2 0x1D47 JUMP JUMPDEST PUSH1 0x20 DUP3 ADD SWAP1 POP SWAP2 SWAP1 POP JUMP JUMPDEST PUSH1 0x0 PUSH1 0x40 DUP3 ADD SWAP1 POP DUP2 DUP2 SUB PUSH1 0x0 DUP4 ADD MSTORE PUSH2 0x1DAC DUP2 PUSH2 0x1D70 JUMP JUMPDEST SWAP1 POP PUSH2 0x1DBB PUSH1 0x20 DUP4 ADD DUP5 PUSH2 0x1073 JUMP JUMPDEST SWAP3 SWAP2 POP POP JUMP INVALID LOG2 PUSH5 0x6970667358 0x22 SLT KECCAK256 COINBASE 0xD1 PUSH13 0xCB11E7412A9C843FDAB9179132 0xD7 0xE6 0xD9 0x25 0xE1 LOG3 DUP2 SUB 0xD6 0xAA 0x2F ISZERO 0xC3 EXP SSTORE DUP6 PUSH5 0x736F6C6343 STOP ADDMOD SLT STOP CALLER "},"methodIdentifiers":{"IpfsRevision(uint256)":"35e56a1e","Mandispatch(uint256,string)":"87ada616","Medicine_mapper_first(string)":"b498c579","Pverify(uint256,string)":"b0e51740","Serialnumbers()":"1d9b62f2","Sn(uint256)":"9bcca857","Supdispatch(uint256,string)":"5ee8d98a","addprouct(string,string,string,uint8,uint256,uint256)":"e4d00fbb","checker()":"cf5303cf","dispatchedTimeByPharmacist()":"6121e508","dispatchedtimeBySupplier()":"d700d2df","medd(uint256)":"85747472","medications(uint256)":"fa8547f6","mssg()":"bc2faa90","recievedTimeByPharmacist()":"fad568f0","recievedtimeBySupplier()":"6203d51c","serialnumber()":"cead8075","verify(uint256,string)":"4942f358"}}}}}