{
  "_format": "hh-sol-artifact-1",
  "contractName": "Public",
  "sourceName": "contracts/Public.sol",
  "abi": [
    {
      "anonymous": false,
      "inputs": [
        {
          "indexed": false,
          "internalType": "string",
          "name": "message",
          "type": "string"
        }
      ],
      "name": "Mdispatch",
      "type": "event"
    },
    {
      "anonymous": false,
      "inputs": [
        {
          "indexed": false,
          "internalType": "string",
          "name": "message",
          "type": "string"
        }
      ],
      "name": "Pdispatch",
      "type": "event"
    },
    {
      "anonymous": false,
      "inputs": [
        {
          "indexed": false,
          "internalType": "string",
          "name": "message",
          "type": "string"
        }
      ],
      "name": "Pubverification",
      "type": "event"
    },
    {
      "anonymous": false,
      "inputs": [
        {
          "indexed": false,
          "internalType": "string",
          "name": "message",
          "type": "string"
        }
      ],
      "name": "Status",
      "type": "event"
    },
    {
      "anonymous": false,
      "inputs": [
        {
          "indexed": false,
          "internalType": "string",
          "name": "message",
          "type": "string"
        },
        {
          "indexed": false,
          "internalType": "uint256",
          "name": "_sn",
          "type": "uint256"
        }
      ],
      "name": "product",
      "type": "event"
    },
    {
      "anonymous": false,
      "inputs": [
        {
          "indexed": false,
          "internalType": "string",
          "name": "message",
          "type": "string"
        }
      ],
      "name": "verification",
      "type": "event"
    },
    {
      "inputs": [
        {
          "internalType": "uint256",
          "name": "_serialnumber",
          "type": "uint256"
        }
      ],
      "name": "History",
      "outputs": [
        {
          "components": [
            {
              "internalType": "enum Manufacturer.SupplyChainState",
              "name": "state",
              "type": "uint8"
            },
            {
              "internalType": "string",
              "name": "batchnumber",
              "type": "string"
            },
            {
              "internalType": "string",
              "name": "manufacturer",
              "type": "string"
            },
            {
              "internalType": "string",
              "name": "name",
              "type": "string"
            },
            {
              "internalType": "uint256",
              "name": "Manufacturing_date",
              "type": "uint256"
            },
            {
              "internalType": "uint256",
              "name": "Expiring_date",
              "type": "uint256"
            },
            {
              "internalType": "bytes32",
              "name": "ipfsCid",
              "type": "bytes32"
            }
          ],
          "internalType": "struct Manufacturer.Medication",
          "name": "",
          "type": "tuple"
        },
        {
          "internalType": "string",
          "name": "",
          "type": "string"
        },
        {
          "internalType": "uint256",
          "name": "",
          "type": "uint256"
        },
        {
          "internalType": "uint256",
          "name": "",
          "type": "uint256"
        },
        {
          "internalType": "uint256",
          "name": "",
          "type": "uint256"
        }
      ],
      "stateMutability": "view",
      "type": "function"
    },
    {
      "inputs": [
        {
          "internalType": "uint256",
          "name": "",
          "type": "uint256"
        }
      ],
      "name": "IpfsRevision",
      "outputs": [
        {
          "internalType": "string",
          "name": "",
          "type": "string"
        }
      ],
      "stateMutability": "view",
      "type": "function"
    },
    {
      "inputs": [
        {
          "internalType": "uint256",
          "name": "_serialnumber",
          "type": "uint256"
        },
        {
          "internalType": "string",
          "name": "_CID12",
          "type": "string"
        }
      ],
      "name": "Mandispatch",
      "outputs": [],
      "stateMutability": "nonpayable",
      "type": "function"
    },
    {
      "inputs": [
        {
          "internalType": "string",
          "name": "_CID11",
          "type": "string"
        }
      ],
      "name": "Medicine_mapper_first",
      "outputs": [],
      "stateMutability": "nonpayable",
      "type": "function"
    },
    {
      "inputs": [
        {
          "internalType": "uint256",
          "name": "_serialnumber",
          "type": "uint256"
        },
        {
          "internalType": "string",
          "name": "revision31",
          "type": "string"
        }
      ],
      "name": "Pverify",
      "outputs": [],
      "stateMutability": "nonpayable",
      "type": "function"
    },
    {
      "inputs": [],
      "name": "Serialnumbers",
      "outputs": [
        {
          "internalType": "uint256",
          "name": "",
          "type": "uint256"
        }
      ],
      "stateMutability": "view",
      "type": "function"
    },
    {
      "inputs": [
        {
          "internalType": "uint256",
          "name": "",
          "type": "uint256"
        }
      ],
      "name": "Sn",
      "outputs": [
        {
          "internalType": "uint256",
          "name": "",
          "type": "uint256"
        }
      ],
      "stateMutability": "view",
      "type": "function"
    },
    {
      "inputs": [
        {
          "internalType": "uint256",
          "name": "_serialnumber",
          "type": "uint256"
        },
        {
          "internalType": "string",
          "name": "revision22",
          "type": "string"
        }
      ],
      "name": "Supdispatch",
      "outputs": [],
      "stateMutability": "nonpayable",
      "type": "function"
    },
    {
      "inputs": [
        {
          "internalType": "string",
          "name": "_name",
          "type": "string"
        },
        {
          "internalType": "string",
          "name": "_batchno",
          "type": "string"
        },
        {
          "internalType": "string",
          "name": "_manufacturer",
          "type": "string"
        },
        {
          "internalType": "enum Manufacturer.SupplyChainState",
          "name": "_state",
          "type": "uint8"
        },
        {
          "internalType": "uint256",
          "name": "_Manufacturing_date",
          "type": "uint256"
        },
        {
          "internalType": "uint256",
          "name": "_Expiring_date",
          "type": "uint256"
        }
      ],
      "name": "addprouct",
      "outputs": [],
      "stateMutability": "nonpayable",
      "type": "function"
    },
    {
      "inputs": [],
      "name": "checker",
      "outputs": [
        {
          "internalType": "string",
          "name": "",
          "type": "string"
        }
      ],
      "stateMutability": "view",
      "type": "function"
    },
    {
      "inputs": [],
      "name": "dispatchedTimeByPharmacist",
      "outputs": [
        {
          "internalType": "uint256",
          "name": "",
          "type": "uint256"
        }
      ],
      "stateMutability": "view",
      "type": "function"
    },
    {
      "inputs": [],
      "name": "dispatchedtimeBySupplier",
      "outputs": [
        {
          "internalType": "uint256",
          "name": "",
          "type": "uint256"
        }
      ],
      "stateMutability": "view",
      "type": "function"
    },
    {
      "inputs": [
        {
          "internalType": "uint256",
          "name": "",
          "type": "uint256"
        }
      ],
      "name": "medd",
      "outputs": [
        {
          "internalType": "enum Manufacturer.SupplyChainState",
          "name": "state",
          "type": "uint8"
        },
        {
          "internalType": "string",
          "name": "batchnumber",
          "type": "string"
        },
        {
          "internalType": "string",
          "name": "manufacturer",
          "type": "string"
        },
        {
          "internalType": "string",
          "name": "name",
          "type": "string"
        },
        {
          "internalType": "uint256",
          "name": "Manufacturing_date",
          "type": "uint256"
        },
        {
          "internalType": "uint256",
          "name": "Expiring_date",
          "type": "uint256"
        },
        {
          "internalType": "bytes32",
          "name": "ipfsCid",
          "type": "bytes32"
        }
      ],
      "stateMutability": "view",
      "type": "function"
    },
    {
      "inputs": [
        {
          "internalType": "uint256",
          "name": "",
          "type": "uint256"
        }
      ],
      "name": "medications",
      "outputs": [
        {
          "internalType": "enum Manufacturer.SupplyChainState",
          "name": "state",
          "type": "uint8"
        },
        {
          "internalType": "string",
          "name": "batchnumber",
          "type": "string"
        },
        {
          "internalType": "string",
          "name": "manufacturer",
          "type": "string"
        },
        {
          "internalType": "string",
          "name": "name",
          "type": "string"
        },
        {
          "internalType": "uint256",
          "name": "Manufacturing_date",
          "type": "uint256"
        },
        {
          "internalType": "uint256",
          "name": "Expiring_date",
          "type": "uint256"
        },
        {
          "internalType": "bytes32",
          "name": "ipfsCid",
          "type": "bytes32"
        }
      ],
      "stateMutability": "view",
      "type": "function"
    },
    {
      "inputs": [],
      "name": "mssg",
      "outputs": [
        {
          "internalType": "string",
          "name": "",
          "type": "string"
        }
      ],
      "stateMutability": "view",
      "type": "function"
    },
    {
      "inputs": [],
      "name": "recievedTimeByPharmacist",
      "outputs": [
        {
          "internalType": "uint256",
          "name": "",
          "type": "uint256"
        }
      ],
      "stateMutability": "view",
      "type": "function"
    },
    {
      "inputs": [],
      "name": "recievedtimeBySupplier",
      "outputs": [
        {
          "internalType": "uint256",
          "name": "",
          "type": "uint256"
        }
      ],
      "stateMutability": "view",
      "type": "function"
    },
    {
      "inputs": [],
      "name": "serialnumber",
      "outputs": [
        {
          "internalType": "uint256",
          "name": "",
          "type": "uint256"
        }
      ],
      "stateMutability": "view",
      "type": "function"
    },
    {
      "inputs": [
        {
          "internalType": "uint256",
          "name": "_serialnumber",
          "type": "uint256"
        },
        {
          "internalType": "string",
          "name": "revision21",
          "type": "string"
        }
      ],
      "name": "verify",
      "outputs": [],
      "stateMutability": "nonpayable",
      "type": "function"
    }
  ],
  "bytecode": "0x60806040526010600155600154600a6200001a9190620001be565b6002553480156200002a57600080fd5b506200020f565b7f4e487b7100000000000000000000000000000000000000000000000000000000600052601160045260246000fd5b60008160011c9050919050565b6000808291508390505b6001851115620000bf5780860481111562000097576200009662000031565b5b6001851615620000a75780820291505b8081029050620000b78562000060565b945062000077565b94509492505050565b600082620000da5760019050620001ad565b81620000ea5760009050620001ad565b81600181146200010357600281146200010e5762000144565b6001915050620001ad565b60ff84111562000123576200012262000031565b5b8360020a9150848211156200013d576200013c62000031565b5b50620001ad565b5060208310610133831016604e8410600b84101617156200017e5782820a90508381111562000178576200017762000031565b5b620001ad565b6200018d84848460016200006d565b92509050818404811115620001a757620001a662000031565b5b81810290505b9392505050565b6000819050919050565b6000620001cb82620001b4565b9150620001d883620001b4565b9250620002077fffffffffffffffffffffffffffffffffffffffffffffffffffffffffffffffff8484620000c8565b905092915050565b612468806200021f6000396000f3fe608060405234801561001057600080fd5b50600436106101215760003560e01c8063a21f0368116100ad578063cf5303cf11610071578063cf5303cf14610312578063d700d2df14610330578063e4d00fbb1461034e578063fa8547f61461036a578063fad568f0146103a057610121565b8063a21f03681461026a578063b0e517401461029e578063b498c579146102ba578063bc2faa90146102d6578063cead8075146102f457610121565b80636121e508116100f45780636121e508146101ac5780636203d51c146101ca57806385747472146101e857806387ada6161461021e5780639bcca8571461023a57610121565b80631d9b62f21461012657806335e56a1e146101445780634942f358146101745780635ee8d98a14610190575b600080fd5b61012e6103be565b60405161013b91906114df565b60405180910390f35b61015e6004803603810190610159919061153a565b6103c7565b60405161016b91906115f7565b60405180910390f35b61018e6004803603810190610189919061174e565b610467565b005b6101aa60048036038101906101a5919061174e565b6105d3565b005b6101b46106fe565b6040516101c191906114df565b60405180910390f35b6101d2610704565b6040516101df91906114df565b60405180910390f35b61020260048036038101906101fd919061153a565b61070a565b604051610215979695949392919061183a565b60405180910390f35b6102386004803603810190610233919061174e565b610901565b005b610254600480360381019061024f919061153a565b610a2c565b60405161026191906114df565b60405180910390f35b610284600480360381019061027f919061153a565b610a50565b6040516102959594939291906119df565b60405180910390f35b6102b860048036038101906102b3919061174e565b610e1c565b005b6102d460048036038101906102cf9190611a40565b610f8f565b005b6102de610fb4565b6040516102eb91906115f7565b60405180910390f35b6102fc611042565b60405161030991906114df565b60405180910390f35b61031a611048565b60405161032791906115f7565b60405180910390f35b6103386110d6565b60405161034591906114df565b60405180910390f35b61036860048036038101906103639190611aae565b6110dc565b005b610384600480360381019061037f919061153a565b611287565b604051610397979695949392919061183a565b60405180910390f35b6103a861146e565b6040516103b591906114df565b60405180910390f35b60008054905090565b600860205280600052604060002060009150905080546103e690611bbe565b80601f016020809104026020016040519081016040528092919081815260200182805461041290611bbe565b801561045f5780601f106104345761010080835404028352916020019161045f565b820191906000526020600020905b81548152906001019060200180831161044257829003601f168201915b505050505081565b6001600481111561047b5761047a6117aa565b5b6009600084815260200190815260200160002060000160009054906101000a900460ff1660048111156104b1576104b06117aa565b5b146104f1576040517f08c379a00000000000000000000000000000000000000000000000000000000081526004016104e890611c61565b60405180910390fd5b6000801b60086000805481526020019081526020016000206040516020016105199190611d24565b604051602081830303815290604052805190602001200361053957600080fd5b60026009600084815260200190815260200160002060000160006101000a81548160ff02191690836004811115610573576105726117aa565b5b021790555080600860008054815260200190815260200160002090816105999190611ed2565b507f2844c95bf1b4598da931d527f903501abc60fe0199c65da52d5ce818c6c5e9616040516105c790611ff0565b60405180910390a15050565b600260048111156105e7576105e66117aa565b5b6009600084815260200190815260200160002060000160009054906101000a900460ff16600481111561061d5761061c6117aa565b5b1461065d576040517f08c379a000000000000000000000000000000000000000000000000000000000815260040161065490612082565b60405180910390fd5b42600b8190555060036009600084815260200190815260200160002060000160006101000a81548160ff0219169083600481111561069e5761069d6117aa565b5b021790555080600860008054815260200190815260200160002090816106c49190611ed2565b507f2844c95bf1b4598da931d527f903501abc60fe0199c65da52d5ce818c6c5e9616040516106f290612114565b60405180910390a15050565b60125481565b600a5481565b6003818154811061071a57600080fd5b90600052602060002090600702016000915090508060000160009054906101000a900460ff169080600101805461075090611bbe565b80601f016020809104026020016040519081016040528092919081815260200182805461077c90611bbe565b80156107c95780601f1061079e576101008083540402835291602001916107c9565b820191906000526020600020905b8154815290600101906020018083116107ac57829003601f168201915b5050505050908060020180546107de90611bbe565b80601f016020809104026020016040519081016040528092919081815260200182805461080a90611bbe565b80156108575780601f1061082c57610100808354040283529160200191610857565b820191906000526020600020905b81548152906001019060200180831161083a57829003601f168201915b50505050509080600301805461086c90611bbe565b80601f016020809104026020016040519081016040528092919081815260200182805461089890611bbe565b80156108e55780601f106108ba576101008083540402835291602001916108e5565b820191906000526020600020905b8154815290600101906020018083116108c857829003601f168201915b5050505050908060040154908060050154908060060154905087565b60006004811115610915576109146117aa565b5b6009600084815260200190815260200160002060000160009054906101000a900460ff16600481111561094b5761094a6117aa565b5b1461098b576040517f08c379a000000000000000000000000000000000000000000000000000000000815260040161098290612082565b60405180910390fd5b4260068190555060016009600084815260200190815260200160002060000160006101000a81548160ff021916908360048111156109cc576109cb6117aa565b5b021790555080600860008054815260200190815260200160002090816109f29190611ed2565b507fdefe02112824e0ae81930c3e55aeeac58d10e8b531afdcb3bad105492ec5a545604051610a2090612114565b60405180910390a15050565b60048181548110610a3c57600080fd5b906000526020600020016000915090505481565b610a58611474565b60606000806000600480811115610a7257610a716117aa565b5b6009600088815260200190815260200160002060000160009054906101000a900460ff166004811115610aa857610aa76117aa565b5b14610ae8576040517f08c379a0000000000000000000000000000000000000000000000000000000008152600401610adf906121a6565b60405180910390fd5b6000801b6008600080548152602001908152602001600020604051602001610b109190611d24565b6040516020818303038152906040528051906020012003610b3057600080fd5b600960008781526020019081526020016000206008600080548152602001908152602001600020600654600b54601254846040518060e00160405290816000820160009054906101000a900460ff166004811115610b9157610b906117aa565b5b6004811115610ba357610ba26117aa565b5b8152602001600182018054610bb790611bbe565b80601f0160208091040260200160405190810160405280929190818152602001828054610be390611bbe565b8015610c305780601f10610c0557610100808354040283529160200191610c30565b820191906000526020600020905b815481529060010190602001808311610c1357829003601f168201915b50505050508152602001600282018054610c4990611bbe565b80601f0160208091040260200160405190810160405280929190818152602001828054610c7590611bbe565b8015610cc25780601f10610c9757610100808354040283529160200191610cc2565b820191906000526020600020905b815481529060010190602001808311610ca557829003601f168201915b50505050508152602001600382018054610cdb90611bbe565b80601f0160208091040260200160405190810160405280929190818152602001828054610d0790611bbe565b8015610d545780601f10610d2957610100808354040283529160200191610d54565b820191906000526020600020905b815481529060010190602001808311610d3757829003601f168201915b5050505050815260200160048201548152602001600582015481526020016006820154815250509450838054610d8990611bbe565b80601f0160208091040260200160405190810160405280929190818152602001828054610db590611bbe565b8015610e025780601f10610dd757610100808354040283529160200191610e02565b820191906000526020600020905b815481529060010190602001808311610de557829003601f168201915b505050505093509450945094509450945091939590929450565b60036004811115610e3057610e2f6117aa565b5b6009600084815260200190815260200160002060000160009054906101000a900460ff166004811115610e6657610e656117aa565b5b14610ea6576040517f08c379a0000000000000000000000000000000000000000000000000000000008152600401610e9d90612238565b60405180910390fd5b6000801b6008600080548152602001908152602001600020604051602001610ece9190611d24565b6040516020818303038152906040528051906020012003610eee57600080fd5b60046009600084815260200190815260200160002060000160006101000a81548160ff02191690836004811115610f2857610f276117aa565b5b02179055508060086000805481526020019081526020016000209081610f4e9190611ed2565b50426012819055507f53ba0944807ae1d42e8a5684aa3ca1409f174f9d9a86d93409ef4379966b3eee604051610f83906122a4565b60405180910390a15050565b8060086000805481526020019081526020016000209081610fb09190611ed2565b5050565b60108054610fc190611bbe565b80601f0160208091040260200160405190810160405280929190818152602001828054610fed90611bbe565b801561103a5780601f1061100f5761010080835404028352916020019161103a565b820191906000526020600020905b81548152906001019060200180831161101d57829003601f168201915b505050505081565b60005481565b6007805461105590611bbe565b80601f016020809104026020016040519081016040528092919081815260200182805461108190611bbe565b80156110ce5780601f106110a3576101008083540402835291602001916110ce565b820191906000526020600020905b8154815290600101906020018083116110b157829003601f168201915b505050505081565b600b5481565b426005819055508585856005546040516020016110fc9493929190612316565b6040516020818303038152906040528051906020012060001c60008190555060025460008082825461112e9190612387565b9250508190555084600960008054815260200190815260200160002060010190816111599190611ed2565b50856009600080548152602001908152602001600020600301908161117e9190611ed2565b5083600960008054815260200190815260200160002060020190816111a39190611ed2565b50816009600080548152602001908152602001600020600401819055508060096000805481526020019081526020016000206005018190555082600960008054815260200190815260200160002060000160006101000a81548160ff02191690836004811115611216576112156117aa565b5b0217905550600460005490806001815401808255809150506001900390600052602060002001600090919091909150557fe9850cacbeabeb04673cee1b608fedf6e3163f0a8da989d484b5348563e04d026000546040516112779190612404565b60405180910390a1505050505050565b60096020528060005260406000206000915090508060000160009054906101000a900460ff16908060010180546112bd90611bbe565b80601f01602080910402602001604051908101604052809291908181526020018280546112e990611bbe565b80156113365780601f1061130b57610100808354040283529160200191611336565b820191906000526020600020905b81548152906001019060200180831161131957829003601f168201915b50505050509080600201805461134b90611bbe565b80601f016020809104026020016040519081016040528092919081815260200182805461137790611bbe565b80156113c45780601f10611399576101008083540402835291602001916113c4565b820191906000526020600020905b8154815290600101906020018083116113a757829003601f168201915b5050505050908060030180546113d990611bbe565b80601f016020809104026020016040519081016040528092919081815260200182805461140590611bbe565b80156114525780601f1061142757610100808354040283529160200191611452565b820191906000526020600020905b81548152906001019060200180831161143557829003601f168201915b5050505050908060040154908060050154908060060154905087565b60115481565b6040518060e0016040528060006004811115611493576114926117aa565b5b81526020016060815260200160608152602001606081526020016000815260200160008152602001600080191681525090565b6000819050919050565b6114d9816114c6565b82525050565b60006020820190506114f460008301846114d0565b92915050565b6000604051905090565b600080fd5b600080fd5b611517816114c6565b811461152257600080fd5b50565b6000813590506115348161150e565b92915050565b6000602082840312156115505761154f611504565b5b600061155e84828501611525565b91505092915050565b600081519050919050565b600082825260208201905092915050565b60005b838110156115a1578082015181840152602081019050611586565b60008484015250505050565b6000601f19601f8301169050919050565b60006115c982611567565b6115d38185611572565b93506115e3818560208601611583565b6115ec816115ad565b840191505092915050565b6000602082019050818103600083015261161181846115be565b905092915050565b600080fd5b600080fd5b7f4e487b7100000000000000000000000000000000000000000000000000000000600052604160045260246000fd5b61165b826115ad565b810181811067ffffffffffffffff8211171561167a57611679611623565b5b80604052505050565b600061168d6114fa565b90506116998282611652565b919050565b600067ffffffffffffffff8211156116b9576116b8611623565b5b6116c2826115ad565b9050602081019050919050565b82818337600083830152505050565b60006116f16116ec8461169e565b611683565b90508281526020810184848401111561170d5761170c61161e565b5b6117188482856116cf565b509392505050565b600082601f83011261173557611734611619565b5b81356117458482602086016116de565b91505092915050565b6000806040838503121561176557611764611504565b5b600061177385828601611525565b925050602083013567ffffffffffffffff81111561179457611793611509565b5b6117a085828601611720565b9150509250929050565b7f4e487b7100000000000000000000000000000000000000000000000000000000600052602160045260246000fd5b600581106117ea576117e96117aa565b5b50565b60008190506117fb826117d9565b919050565b600061180b826117ed565b9050919050565b61181b81611800565b82525050565b6000819050919050565b61183481611821565b82525050565b600060e08201905061184f600083018a611812565b818103602083015261186181896115be565b9050818103604083015261187581886115be565b9050818103606083015261188981876115be565b905061189860808301866114d0565b6118a560a08301856114d0565b6118b260c083018461182b565b98975050505050505050565b6118c781611800565b82525050565b600082825260208201905092915050565b60006118e982611567565b6118f381856118cd565b9350611903818560208601611583565b61190c816115ad565b840191505092915050565b611920816114c6565b82525050565b61192f81611821565b82525050565b600060e08301600083015161194d60008601826118be565b506020830151848203602086015261196582826118de565b9150506040830151848203604086015261197f82826118de565b9150506060830151848203606086015261199982826118de565b91505060808301516119ae6080860182611917565b5060a08301516119c160a0860182611917565b5060c08301516119d460c0860182611926565b508091505092915050565b600060a08201905081810360008301526119f98188611935565b90508181036020830152611a0d81876115be565b9050611a1c60408301866114d0565b611a2960608301856114d0565b611a3660808301846114d0565b9695505050505050565b600060208284031215611a5657611a55611504565b5b600082013567ffffffffffffffff811115611a7457611a73611509565b5b611a8084828501611720565b91505092915050565b60058110611a9657600080fd5b50565b600081359050611aa881611a89565b92915050565b60008060008060008060c08789031215611acb57611aca611504565b5b600087013567ffffffffffffffff811115611ae957611ae8611509565b5b611af589828a01611720565b965050602087013567ffffffffffffffff811115611b1657611b15611509565b5b611b2289828a01611720565b955050604087013567ffffffffffffffff811115611b4357611b42611509565b5b611b4f89828a01611720565b9450506060611b6089828a01611a99565b9350506080611b7189828a01611525565b92505060a0611b8289828a01611525565b9150509295509295509295565b7f4e487b7100000000000000000000000000000000000000000000000000000000600052602260045260246000fd5b60006002820490506001821680611bd657607f821691505b602082108103611be957611be8611b8f565b5b50919050565b7f6d656469636174696f6e206973206e6f7420646973706174636865642079657460008201527f2066726f6d206d616e7566616374757265720000000000000000000000000000602082015250565b6000611c4b603283611572565b9150611c5682611bef565b604082019050919050565b60006020820190508181036000830152611c7a81611c3e565b9050919050565b600081905092915050565b60008190508160005260206000209050919050565b60008154611cae81611bbe565b611cb88186611c81565b94506001821660008114611cd35760018114611ce857611d1b565b60ff1983168652811515820286019350611d1b565b611cf185611c8c565b60005b83811015611d1357815481890152600182019150602081019050611cf4565b838801955050505b50505092915050565b6000611d308284611ca1565b915081905092915050565b60006020601f8301049050919050565b600082821b905092915050565b600060088302611d887fffffffffffffffffffffffffffffffffffffffffffffffffffffffffffffffff82611d4b565b611d928683611d4b565b95508019841693508086168417925050509392505050565b6000819050919050565b6000611dcf611dca611dc5846114c6565b611daa565b6114c6565b9050919050565b6000819050919050565b611de983611db4565b611dfd611df582611dd6565b848454611d58565b825550505050565b600090565b611e12611e05565b611e1d818484611de0565b505050565b5b81811015611e4157611e36600082611e0a565b600181019050611e23565b5050565b601f821115611e8657611e5781611c8c565b611e6084611d3b565b81016020851015611e6f578190505b611e83611e7b85611d3b565b830182611e22565b50505b505050565b600082821c905092915050565b6000611ea960001984600802611e8b565b1980831691505092915050565b6000611ec28383611e98565b9150826002028217905092915050565b611edb82611567565b67ffffffffffffffff811115611ef457611ef3611623565b5b611efe8254611bbe565b611f09828285611e45565b600060209050601f831160018114611f3c5760008415611f2a578287015190505b611f348582611eb6565b865550611f9c565b601f198416611f4a86611c8c565b60005b82811015611f7257848901518255600182019150602085019450602081019050611f4d565b86831015611f8f5784890151611f8b601f891682611e98565b8355505b6001600288020188555050505b505050505050565b7f7665726669636174696f6e20436f6d706c657465000000000000000000000000600082015250565b6000611fda601483611572565b9150611fe582611fa4565b602082019050919050565b6000602082019050818103600083015261200981611fcd565b9050919050565b7f6d656469636174696f6e206973206e6f74207965742075706c6f616420696e2060008201527f636861696e000000000000000000000000000000000000000000000000000000602082015250565b600061206c602583611572565b915061207782612010565b604082019050919050565b6000602082019050818103600083015261209b8161205f565b9050919050565b7f4469737061746368696e6720636f6d706c657465207375636365737366756c6c60008201527f7900000000000000000000000000000000000000000000000000000000000000602082015250565b60006120fe602183611572565b9150612109826120a2565b604082019050919050565b6000602082019050818103600083015261212d816120f1565b9050919050565b7f6d656469636174696f6e206973206e6f7420796574205665726966696564206660008201527f726f6d20506861726d6163697374000000000000000000000000000000000000602082015250565b6000612190602e83611572565b915061219b82612134565b604082019050919050565b600060208201905081810360008301526121bf81612183565b9050919050565b7f6d656469636174696f6e206973206e6f7420796574206469737061746368656460008201527f2066726f6d20537570706c696572000000000000000000000000000000000000602082015250565b6000612222602e83611572565b915061222d826121c6565b604082019050919050565b6000602082019050818103600083015261225181612215565b9050919050565b7f76726572696669636174696f6e20436f6d706c65746500000000000000000000600082015250565b600061228e601683611572565b915061229982612258565b602082019050919050565b600060208201905081810360008301526122bd81612281565b9050919050565b60006122cf82611567565b6122d98185611c81565b93506122e9818560208601611583565b80840191505092915050565b6000819050919050565b61231061230b826114c6565b6122f5565b82525050565b600061232282876122c4565b915061232e82866122c4565b915061233a82856122c4565b915061234682846122ff565b60208201915081905095945050505050565b7f4e487b7100000000000000000000000000000000000000000000000000000000600052601260045260246000fd5b6000612392826114c6565b915061239d836114c6565b9250826123ad576123ac612358565b5b828206905092915050565b7f73657269616c206e756d626572206f6620746865206d656469636174696f6e00600082015250565b60006123ee601f83611572565b91506123f9826123b8565b602082019050919050565b6000604082019050818103600083015261241d816123e1565b905061242c60208301846114d0565b9291505056fea2646970667358221220753285ec6bc8001083e841815a719245f6c6bc1c7a7e8115480e886b14216df964736f6c63430008120033",
  "linkReferences": {},
  "deployedLinkReferences": {}
}