{
  "_format": "hh-sol-artifact-1",
  "contractName": "Public",
  "sourceName": "contracts/Public.sol",
  "abi": [
    {
      "anonymous": false,
      "inputs": [
        {
          "indexed": false,
          "internalType": "string",
          "name": "message",
          "type": "string"
        }
      ],
      "name": "Mdispatch",
      "type": "event"
    },
    {
      "anonymous": false,
      "inputs": [
        {
          "indexed": false,
          "internalType": "string",
          "name": "message",
          "type": "string"
        }
      ],
      "name": "Pdispatch",
      "type": "event"
    },
    {
      "anonymous": false,
      "inputs": [
        {
          "indexed": false,
          "internalType": "string",
          "name": "message",
          "type": "string"
        }
      ],
      "name": "Pubverification",
      "type": "event"
    },
    {
      "anonymous": false,
      "inputs": [
        {
          "indexed": false,
          "internalType": "string",
          "name": "message",
          "type": "string"
        }
      ],
      "name": "Status",
      "type": "event"
    },
    {
      "anonymous": false,
      "inputs": [
        {
          "indexed": false,
          "internalType": "string",
          "name": "message",
          "type": "string"
        },
        {
          "indexed": false,
          "internalType": "uint256",
          "name": "_sn",
          "type": "uint256"
        }
      ],
      "name": "product",
      "type": "event"
    },
    {
      "anonymous": false,
      "inputs": [
        {
          "indexed": false,
          "internalType": "string",
          "name": "message",
          "type": "string"
        }
      ],
      "name": "verification",
      "type": "event"
    },
    {
      "inputs": [
        {
          "internalType": "uint256",
          "name": "_serialnumber",
          "type": "uint256"
        }
      ],
      "name": "History",
      "outputs": [
        {
          "components": [
            {
              "internalType": "enum Manufacturer.SupplyChainState",
              "name": "state",
              "type": "uint8"
            },
            {
              "internalType": "string",
              "name": "batchnumber",
              "type": "string"
            },
            {
              "internalType": "string",
              "name": "manufacturer",
              "type": "string"
            },
            {
              "internalType": "string",
              "name": "name",
              "type": "string"
            },
            {
              "internalType": "uint256",
              "name": "Manufacturing_date",
              "type": "uint256"
            },
            {
              "internalType": "uint256",
              "name": "Expiring_date",
              "type": "uint256"
            },
            {
              "internalType": "bytes32",
              "name": "ipfsCid",
              "type": "bytes32"
            }
          ],
          "internalType": "struct Manufacturer.Medication",
          "name": "",
          "type": "tuple"
        },
        {
          "internalType": "string",
          "name": "",
          "type": "string"
        },
        {
          "internalType": "uint256",
          "name": "",
          "type": "uint256"
        },
        {
          "internalType": "uint256",
          "name": "",
          "type": "uint256"
        },
        {
          "internalType": "uint256",
          "name": "",
          "type": "uint256"
        }
      ],
      "stateMutability": "view",
      "type": "function"
    },
    {
      "inputs": [
        {
          "internalType": "uint256",
          "name": "",
          "type": "uint256"
        }
      ],
      "name": "IpfsRevision",
      "outputs": [
        {
          "internalType": "string",
          "name": "",
          "type": "string"
        }
      ],
      "stateMutability": "view",
      "type": "function"
    },
    {
      "inputs": [
        {
          "internalType": "uint256",
          "name": "_serialnumber",
          "type": "uint256"
        },
        {
          "internalType": "string",
          "name": "_CID12",
          "type": "string"
        }
      ],
      "name": "Mandispatch",
      "outputs": [],
      "stateMutability": "nonpayable",
      "type": "function"
    },
    {
      "inputs": [
        {
          "internalType": "string",
          "name": "_CID11",
          "type": "string"
        }
      ],
      "name": "Medicine_mapper_first",
      "outputs": [],
      "stateMutability": "nonpayable",
      "type": "function"
    },
    {
      "inputs": [
        {
          "internalType": "uint256",
          "name": "_serialnumber",
          "type": "uint256"
        },
        {
          "internalType": "string",
          "name": "revision31",
          "type": "string"
        }
      ],
      "name": "Pverify",
      "outputs": [],
      "stateMutability": "nonpayable",
      "type": "function"
    },
    {
      "inputs": [],
      "name": "Serialnumbers",
      "outputs": [
        {
          "internalType": "uint256",
          "name": "",
          "type": "uint256"
        }
      ],
      "stateMutability": "view",
      "type": "function"
    },
    {
      "inputs": [
        {
          "internalType": "uint256",
          "name": "",
          "type": "uint256"
        }
      ],
      "name": "Sn",
      "outputs": [
        {
          "internalType": "uint256",
          "name": "",
          "type": "uint256"
        }
      ],
      "stateMutability": "view",
      "type": "function"
    },
    {
      "inputs": [
        {
          "internalType": "uint256",
          "name": "_serialnumber",
          "type": "uint256"
        },
        {
          "internalType": "string",
          "name": "revision22",
          "type": "string"
        }
      ],
      "name": "Supdispatch",
      "outputs": [],
      "stateMutability": "nonpayable",
      "type": "function"
    },
    {
      "inputs": [
        {
          "internalType": "string",
          "name": "_name",
          "type": "string"
        },
        {
          "internalType": "string",
          "name": "_batchno",
          "type": "string"
        },
        {
          "internalType": "string",
          "name": "_manufacturer",
          "type": "string"
        },
        {
          "internalType": "enum Manufacturer.SupplyChainState",
          "name": "_state",
          "type": "uint8"
        },
        {
          "internalType": "uint256",
          "name": "_Manufacturing_date",
          "type": "uint256"
        },
        {
          "internalType": "uint256",
          "name": "_Expiring_date",
          "type": "uint256"
        }
      ],
      "name": "addprouct",
      "outputs": [],
      "stateMutability": "nonpayable",
      "type": "function"
    },
    {
      "inputs": [],
      "name": "checker",
      "outputs": [
        {
          "internalType": "string",
          "name": "",
          "type": "string"
        }
      ],
      "stateMutability": "view",
      "type": "function"
    },
    {
      "inputs": [],
      "name": "dispatchedTimeByPharmacist",
      "outputs": [
        {
          "internalType": "uint256",
          "name": "",
          "type": "uint256"
        }
      ],
      "stateMutability": "view",
      "type": "function"
    },
    {
      "inputs": [],
      "name": "dispatchedtimeBySupplier",
      "outputs": [
        {
          "internalType": "uint256",
          "name": "",
          "type": "uint256"
        }
      ],
      "stateMutability": "view",
      "type": "function"
    },
    {
      "inputs": [
        {
          "internalType": "uint256",
          "name": "",
          "type": "uint256"
        }
      ],
      "name": "medd",
      "outputs": [
        {
          "internalType": "enum Manufacturer.SupplyChainState",
          "name": "state",
          "type": "uint8"
        },
        {
          "internalType": "string",
          "name": "batchnumber",
          "type": "string"
        },
        {
          "internalType": "string",
          "name": "manufacturer",
          "type": "string"
        },
        {
          "internalType": "string",
          "name": "name",
          "type": "string"
        },
        {
          "internalType": "uint256",
          "name": "Manufacturing_date",
          "type": "uint256"
        },
        {
          "internalType": "uint256",
          "name": "Expiring_date",
          "type": "uint256"
        },
        {
          "internalType": "bytes32",
          "name": "ipfsCid",
          "type": "bytes32"
        }
      ],
      "stateMutability": "view",
      "type": "function"
    },
    {
      "inputs": [
        {
          "internalType": "uint256",
          "name": "",
          "type": "uint256"
        }
      ],
      "name": "medications",
      "outputs": [
        {
          "internalType": "enum Manufacturer.SupplyChainState",
          "name": "state",
          "type": "uint8"
        },
        {
          "internalType": "string",
          "name": "batchnumber",
          "type": "string"
        },
        {
          "internalType": "string",
          "name": "manufacturer",
          "type": "string"
        },
        {
          "internalType": "string",
          "name": "name",
          "type": "string"
        },
        {
          "internalType": "uint256",
          "name": "Manufacturing_date",
          "type": "uint256"
        },
        {
          "internalType": "uint256",
          "name": "Expiring_date",
          "type": "uint256"
        },
        {
          "internalType": "bytes32",
          "name": "ipfsCid",
          "type": "bytes32"
        }
      ],
      "stateMutability": "view",
      "type": "function"
    },
    {
      "inputs": [],
      "name": "mssg",
      "outputs": [
        {
          "internalType": "string",
          "name": "",
          "type": "string"
        }
      ],
      "stateMutability": "view",
      "type": "function"
    },
    {
      "inputs": [],
      "name": "recievedTimeByPharmacist",
      "outputs": [
        {
          "internalType": "uint256",
          "name": "",
          "type": "uint256"
        }
      ],
      "stateMutability": "view",
      "type": "function"
    },
    {
      "inputs": [],
      "name": "recievedtimeBySupplier",
      "outputs": [
        {
          "internalType": "uint256",
          "name": "",
          "type": "uint256"
        }
      ],
      "stateMutability": "view",
      "type": "function"
    },
    {
      "inputs": [],
      "name": "serialnumber",
      "outputs": [
        {
          "internalType": "uint256",
          "name": "",
          "type": "uint256"
        }
      ],
      "stateMutability": "view",
      "type": "function"
    },
    {
      "inputs": [
        {
          "internalType": "uint256",
          "name": "_serialnumber",
          "type": "uint256"
        },
        {
          "internalType": "string",
          "name": "revision21",
          "type": "string"
        }
      ],
      "name": "verify",
      "outputs": [],
      "stateMutability": "nonpayable",
      "type": "function"
    }
  ],
  "bytecode": "0x60806040526010600155600154600a6200001a9190620001be565b6002553480156200002a57600080fd5b506200020f565b7f4e487b7100000000000000000000000000000000000000000000000000000000600052601160045260246000fd5b60008160011c9050919050565b6000808291508390505b6001851115620000bf5780860481111562000097576200009662000031565b5b6001851615620000a75780820291505b8081029050620000b78562000060565b945062000077565b94509492505050565b600082620000da5760019050620001ad565b81620000ea5760009050620001ad565b81600181146200010357600281146200010e5762000144565b6001915050620001ad565b60ff84111562000123576200012262000031565b5b8360020a9150848211156200013d576200013c62000031565b5b50620001ad565b5060208310610133831016604e8410600b84101617156200017e5782820a90508381111562000178576200017762000031565b5b620001ad565b6200018d84848460016200006d565b92509050818404811115620001a757620001a662000031565b5b81810290505b9392505050565b6000819050919050565b6000620001cb82620001b4565b9150620001d883620001b4565b9250620002077fffffffffffffffffffffffffffffffffffffffffffffffffffffffffffffffff8484620000c8565b905092915050565b61242e806200021f6000396000f3fe608060405234801561001057600080fd5b50600436106101215760003560e01c8063a21f0368116100ad578063cf5303cf11610071578063cf5303cf14610312578063d700d2df14610330578063e4d00fbb1461034e578063fa8547f61461036a578063fad568f0146103a057610121565b8063a21f03681461026a578063b0e517401461029e578063b498c579146102ba578063bc2faa90146102d6578063cead8075146102f457610121565b80636121e508116100f45780636121e508146101ac5780636203d51c146101ca57806385747472146101e857806387ada6161461021e5780639bcca8571461023a57610121565b80631d9b62f21461012657806335e56a1e146101445780634942f358146101745780635ee8d98a14610190575b600080fd5b61012e6103be565b60405161013b91906114d7565b60405180910390f35b61015e60048036038101906101599190611532565b6103c7565b60405161016b91906115ef565b60405180910390f35b61018e60048036038101906101899190611746565b610467565b005b6101aa60048036038101906101a59190611746565b6105d2565b005b6101b46106fc565b6040516101c191906114d7565b60405180910390f35b6101d2610702565b6040516101df91906114d7565b60405180910390f35b61020260048036038101906101fd9190611532565b610708565b6040516102159796959493929190611832565b60405180910390f35b61023860048036038101906102339190611746565b6108ff565b005b610254600480360381019061024f9190611532565b610a29565b60405161026191906114d7565b60405180910390f35b610284600480360381019061027f9190611532565b610a4d565b6040516102959594939291906119d7565b60405180910390f35b6102b860048036038101906102b39190611746565b610e19565b005b6102d460048036038101906102cf9190611a38565b610f8b565b005b6102de610fb0565b6040516102eb91906115ef565b60405180910390f35b6102fc61103e565b60405161030991906114d7565b60405180910390f35b61031a611044565b60405161032791906115ef565b60405180910390f35b6103386110d2565b60405161034591906114d7565b60405180910390f35b61036860048036038101906103639190611aa6565b6110d8565b005b610384600480360381019061037f9190611532565b61127f565b6040516103979796959493929190611832565b60405180910390f35b6103a8611466565b6040516103b591906114d7565b60405180910390f35b60008054905090565b600860205280600052604060002060009150905080546103e690611bb6565b80601f016020809104026020016040519081016040528092919081815260200182805461041290611bb6565b801561045f5780601f106104345761010080835404028352916020019161045f565b820191906000526020600020905b81548152906001019060200180831161044257829003601f168201915b505050505081565b6001600481111561047b5761047a6117a2565b5b6009600084815260200190815260200160002060000160009054906101000a900460ff1660048111156104b1576104b06117a2565b5b146104f1576040517f08c379a00000000000000000000000000000000000000000000000000000000081526004016104e890611c59565b60405180910390fd5b6000801b60086000805481526020019081526020016000206040516020016105199190611d1c565b604051602081830303815290604052805190602001200361053957600080fd5b60026009600084815260200190815260200160002060000160006101000a81548160ff02191690836004811115610573576105726117a2565b5b0217905550806008600084815260200190815260200160002090816105989190611eca565b507f2844c95bf1b4598da931d527f903501abc60fe0199c65da52d5ce818c6c5e9616040516105c690611fe8565b60405180910390a15050565b600260048111156105e6576105e56117a2565b5b6009600084815260200190815260200160002060000160009054906101000a900460ff16600481111561061c5761061b6117a2565b5b1461065c576040517f08c379a00000000000000000000000000000000000000000000000000000000081526004016106539061207a565b60405180910390fd5b42600b8190555060036009600084815260200190815260200160002060000160006101000a81548160ff0219169083600481111561069d5761069c6117a2565b5b0217905550806008600084815260200190815260200160002090816106c29190611eca565b507f2844c95bf1b4598da931d527f903501abc60fe0199c65da52d5ce818c6c5e9616040516106f09061210c565b60405180910390a15050565b60125481565b600a5481565b6003818154811061071857600080fd5b90600052602060002090600702016000915090508060000160009054906101000a900460ff169080600101805461074e90611bb6565b80601f016020809104026020016040519081016040528092919081815260200182805461077a90611bb6565b80156107c75780601f1061079c576101008083540402835291602001916107c7565b820191906000526020600020905b8154815290600101906020018083116107aa57829003601f168201915b5050505050908060020180546107dc90611bb6565b80601f016020809104026020016040519081016040528092919081815260200182805461080890611bb6565b80156108555780601f1061082a57610100808354040283529160200191610855565b820191906000526020600020905b81548152906001019060200180831161083857829003601f168201915b50505050509080600301805461086a90611bb6565b80601f016020809104026020016040519081016040528092919081815260200182805461089690611bb6565b80156108e35780601f106108b8576101008083540402835291602001916108e3565b820191906000526020600020905b8154815290600101906020018083116108c657829003601f168201915b5050505050908060040154908060050154908060060154905087565b60006004811115610913576109126117a2565b5b6009600084815260200190815260200160002060000160009054906101000a900460ff166004811115610949576109486117a2565b5b14610989576040517f08c379a00000000000000000000000000000000000000000000000000000000081526004016109809061207a565b60405180910390fd5b4260068190555060016009600084815260200190815260200160002060000160006101000a81548160ff021916908360048111156109ca576109c96117a2565b5b0217905550806008600084815260200190815260200160002090816109ef9190611eca565b507fdefe02112824e0ae81930c3e55aeeac58d10e8b531afdcb3bad105492ec5a545604051610a1d9061210c565b60405180910390a15050565b60048181548110610a3957600080fd5b906000526020600020016000915090505481565b610a5561146c565b60606000806000600480811115610a6f57610a6e6117a2565b5b6009600088815260200190815260200160002060000160009054906101000a900460ff166004811115610aa557610aa46117a2565b5b14610ae5576040517f08c379a0000000000000000000000000000000000000000000000000000000008152600401610adc9061219e565b60405180910390fd5b6000801b6008600080548152602001908152602001600020604051602001610b0d9190611d1c565b6040516020818303038152906040528051906020012003610b2d57600080fd5b600960008781526020019081526020016000206008600080548152602001908152602001600020600654600b54601254846040518060e00160405290816000820160009054906101000a900460ff166004811115610b8e57610b8d6117a2565b5b6004811115610ba057610b9f6117a2565b5b8152602001600182018054610bb490611bb6565b80601f0160208091040260200160405190810160405280929190818152602001828054610be090611bb6565b8015610c2d5780601f10610c0257610100808354040283529160200191610c2d565b820191906000526020600020905b815481529060010190602001808311610c1057829003601f168201915b50505050508152602001600282018054610c4690611bb6565b80601f0160208091040260200160405190810160405280929190818152602001828054610c7290611bb6565b8015610cbf5780601f10610c9457610100808354040283529160200191610cbf565b820191906000526020600020905b815481529060010190602001808311610ca257829003601f168201915b50505050508152602001600382018054610cd890611bb6565b80601f0160208091040260200160405190810160405280929190818152602001828054610d0490611bb6565b8015610d515780601f10610d2657610100808354040283529160200191610d51565b820191906000526020600020905b815481529060010190602001808311610d3457829003601f168201915b5050505050815260200160048201548152602001600582015481526020016006820154815250509450838054610d8690611bb6565b80601f0160208091040260200160405190810160405280929190818152602001828054610db290611bb6565b8015610dff5780601f10610dd457610100808354040283529160200191610dff565b820191906000526020600020905b815481529060010190602001808311610de257829003601f168201915b505050505093509450945094509450945091939590929450565b60036004811115610e2d57610e2c6117a2565b5b6009600084815260200190815260200160002060000160009054906101000a900460ff166004811115610e6357610e626117a2565b5b14610ea3576040517f08c379a0000000000000000000000000000000000000000000000000000000008152600401610e9a90612230565b60405180910390fd5b6000801b6008600080548152602001908152602001600020604051602001610ecb9190611d1c565b6040516020818303038152906040528051906020012003610eeb57600080fd5b60046009600084815260200190815260200160002060000160006101000a81548160ff02191690836004811115610f2557610f246117a2565b5b021790555080600860008481526020019081526020016000209081610f4a9190611eca565b50426012819055507f53ba0944807ae1d42e8a5684aa3ca1409f174f9d9a86d93409ef4379966b3eee604051610f7f9061229c565b60405180910390a15050565b8060086000805481526020019081526020016000209081610fac9190611eca565b5050565b60108054610fbd90611bb6565b80601f0160208091040260200160405190810160405280929190818152602001828054610fe990611bb6565b80156110365780601f1061100b57610100808354040283529160200191611036565b820191906000526020600020905b81548152906001019060200180831161101957829003601f168201915b505050505081565b60005481565b6007805461105190611bb6565b80601f016020809104026020016040519081016040528092919081815260200182805461107d90611bb6565b80156110ca5780601f1061109f576101008083540402835291602001916110ca565b820191906000526020600020905b8154815290600101906020018083116110ad57829003601f168201915b505050505081565b600b5481565b426005819055508585856040516020016110f4939291906122ed565b6040516020818303038152906040528051906020012060001c600081905550600254600080828254611126919061234d565b9250508190555084600960008054815260200190815260200160002060010190816111519190611eca565b5085600960008054815260200190815260200160002060030190816111769190611eca565b50836009600080548152602001908152602001600020600201908161119b9190611eca565b50816009600080548152602001908152602001600020600401819055508060096000805481526020019081526020016000206005018190555082600960008054815260200190815260200160002060000160006101000a81548160ff0219169083600481111561120e5761120d6117a2565b5b0217905550600460005490806001815401808255809150506001900390600052602060002001600090919091909150557fe9850cacbeabeb04673cee1b608fedf6e3163f0a8da989d484b5348563e04d0260005460405161126f91906123ca565b60405180910390a1505050505050565b60096020528060005260406000206000915090508060000160009054906101000a900460ff16908060010180546112b590611bb6565b80601f01602080910402602001604051908101604052809291908181526020018280546112e190611bb6565b801561132e5780601f106113035761010080835404028352916020019161132e565b820191906000526020600020905b81548152906001019060200180831161131157829003601f168201915b50505050509080600201805461134390611bb6565b80601f016020809104026020016040519081016040528092919081815260200182805461136f90611bb6565b80156113bc5780601f10611391576101008083540402835291602001916113bc565b820191906000526020600020905b81548152906001019060200180831161139f57829003601f168201915b5050505050908060030180546113d190611bb6565b80601f01602080910402602001604051908101604052809291908181526020018280546113fd90611bb6565b801561144a5780601f1061141f5761010080835404028352916020019161144a565b820191906000526020600020905b81548152906001019060200180831161142d57829003601f168201915b5050505050908060040154908060050154908060060154905087565b60115481565b6040518060e001604052806000600481111561148b5761148a6117a2565b5b81526020016060815260200160608152602001606081526020016000815260200160008152602001600080191681525090565b6000819050919050565b6114d1816114be565b82525050565b60006020820190506114ec60008301846114c8565b92915050565b6000604051905090565b600080fd5b600080fd5b61150f816114be565b811461151a57600080fd5b50565b60008135905061152c81611506565b92915050565b600060208284031215611548576115476114fc565b5b60006115568482850161151d565b91505092915050565b600081519050919050565b600082825260208201905092915050565b60005b8381101561159957808201518184015260208101905061157e565b60008484015250505050565b6000601f19601f8301169050919050565b60006115c18261155f565b6115cb818561156a565b93506115db81856020860161157b565b6115e4816115a5565b840191505092915050565b6000602082019050818103600083015261160981846115b6565b905092915050565b600080fd5b600080fd5b7f4e487b7100000000000000000000000000000000000000000000000000000000600052604160045260246000fd5b611653826115a5565b810181811067ffffffffffffffff821117156116725761167161161b565b5b80604052505050565b60006116856114f2565b9050611691828261164a565b919050565b600067ffffffffffffffff8211156116b1576116b061161b565b5b6116ba826115a5565b9050602081019050919050565b82818337600083830152505050565b60006116e96116e484611696565b61167b565b90508281526020810184848401111561170557611704611616565b5b6117108482856116c7565b509392505050565b600082601f83011261172d5761172c611611565b5b813561173d8482602086016116d6565b91505092915050565b6000806040838503121561175d5761175c6114fc565b5b600061176b8582860161151d565b925050602083013567ffffffffffffffff81111561178c5761178b611501565b5b61179885828601611718565b9150509250929050565b7f4e487b7100000000000000000000000000000000000000000000000000000000600052602160045260246000fd5b600581106117e2576117e16117a2565b5b50565b60008190506117f3826117d1565b919050565b6000611803826117e5565b9050919050565b611813816117f8565b82525050565b6000819050919050565b61182c81611819565b82525050565b600060e082019050611847600083018a61180a565b818103602083015261185981896115b6565b9050818103604083015261186d81886115b6565b9050818103606083015261188181876115b6565b905061189060808301866114c8565b61189d60a08301856114c8565b6118aa60c0830184611823565b98975050505050505050565b6118bf816117f8565b82525050565b600082825260208201905092915050565b60006118e18261155f565b6118eb81856118c5565b93506118fb81856020860161157b565b611904816115a5565b840191505092915050565b611918816114be565b82525050565b61192781611819565b82525050565b600060e08301600083015161194560008601826118b6565b506020830151848203602086015261195d82826118d6565b9150506040830151848203604086015261197782826118d6565b9150506060830151848203606086015261199182826118d6565b91505060808301516119a6608086018261190f565b5060a08301516119b960a086018261190f565b5060c08301516119cc60c086018261191e565b508091505092915050565b600060a08201905081810360008301526119f1818861192d565b90508181036020830152611a0581876115b6565b9050611a1460408301866114c8565b611a2160608301856114c8565b611a2e60808301846114c8565b9695505050505050565b600060208284031215611a4e57611a4d6114fc565b5b600082013567ffffffffffffffff811115611a6c57611a6b611501565b5b611a7884828501611718565b91505092915050565b60058110611a8e57600080fd5b50565b600081359050611aa081611a81565b92915050565b60008060008060008060c08789031215611ac357611ac26114fc565b5b600087013567ffffffffffffffff811115611ae157611ae0611501565b5b611aed89828a01611718565b965050602087013567ffffffffffffffff811115611b0e57611b0d611501565b5b611b1a89828a01611718565b955050604087013567ffffffffffffffff811115611b3b57611b3a611501565b5b611b4789828a01611718565b9450506060611b5889828a01611a91565b9350506080611b6989828a0161151d565b92505060a0611b7a89828a0161151d565b9150509295509295509295565b7f4e487b7100000000000000000000000000000000000000000000000000000000600052602260045260246000fd5b60006002820490506001821680611bce57607f821691505b602082108103611be157611be0611b87565b5b50919050565b7f6d656469636174696f6e206973206e6f7420646973706174636865642079657460008201527f2066726f6d206d616e7566616374757265720000000000000000000000000000602082015250565b6000611c4360328361156a565b9150611c4e82611be7565b604082019050919050565b60006020820190508181036000830152611c7281611c36565b9050919050565b600081905092915050565b60008190508160005260206000209050919050565b60008154611ca681611bb6565b611cb08186611c79565b94506001821660008114611ccb5760018114611ce057611d13565b60ff1983168652811515820286019350611d13565b611ce985611c84565b60005b83811015611d0b57815481890152600182019150602081019050611cec565b838801955050505b50505092915050565b6000611d288284611c99565b915081905092915050565b60006020601f8301049050919050565b600082821b905092915050565b600060088302611d807fffffffffffffffffffffffffffffffffffffffffffffffffffffffffffffffff82611d43565b611d8a8683611d43565b95508019841693508086168417925050509392505050565b6000819050919050565b6000611dc7611dc2611dbd846114be565b611da2565b6114be565b9050919050565b6000819050919050565b611de183611dac565b611df5611ded82611dce565b848454611d50565b825550505050565b600090565b611e0a611dfd565b611e15818484611dd8565b505050565b5b81811015611e3957611e2e600082611e02565b600181019050611e1b565b5050565b601f821115611e7e57611e4f81611c84565b611e5884611d33565b81016020851015611e67578190505b611e7b611e7385611d33565b830182611e1a565b50505b505050565b600082821c905092915050565b6000611ea160001984600802611e83565b1980831691505092915050565b6000611eba8383611e90565b9150826002028217905092915050565b611ed38261155f565b67ffffffffffffffff811115611eec57611eeb61161b565b5b611ef68254611bb6565b611f01828285611e3d565b600060209050601f831160018114611f345760008415611f22578287015190505b611f2c8582611eae565b865550611f94565b601f198416611f4286611c84565b60005b82811015611f6a57848901518255600182019150602085019450602081019050611f45565b86831015611f875784890151611f83601f891682611e90565b8355505b6001600288020188555050505b505050505050565b7f7665726669636174696f6e20436f6d706c657465000000000000000000000000600082015250565b6000611fd260148361156a565b9150611fdd82611f9c565b602082019050919050565b6000602082019050818103600083015261200181611fc5565b9050919050565b7f6d656469636174696f6e206973206e6f74207965742075706c6f616420696e2060008201527f636861696e000000000000000000000000000000000000000000000000000000602082015250565b600061206460258361156a565b915061206f82612008565b604082019050919050565b6000602082019050818103600083015261209381612057565b9050919050565b7f4469737061746368696e6720636f6d706c657465207375636365737366756c6c60008201527f7900000000000000000000000000000000000000000000000000000000000000602082015250565b60006120f660218361156a565b91506121018261209a565b604082019050919050565b60006020820190508181036000830152612125816120e9565b9050919050565b7f6d656469636174696f6e206973206e6f7420796574205665726966696564206660008201527f726f6d20506861726d6163697374000000000000000000000000000000000000602082015250565b6000612188602e8361156a565b91506121938261212c565b604082019050919050565b600060208201905081810360008301526121b78161217b565b9050919050565b7f6d656469636174696f6e206973206e6f7420796574206469737061746368656460008201527f2066726f6d20537570706c696572000000000000000000000000000000000000602082015250565b600061221a602e8361156a565b9150612225826121be565b604082019050919050565b600060208201905081810360008301526122498161220d565b9050919050565b7f76726572696669636174696f6e20436f6d706c65746500000000000000000000600082015250565b600061228660168361156a565b915061229182612250565b602082019050919050565b600060208201905081810360008301526122b581612279565b9050919050565b60006122c78261155f565b6122d18185611c79565b93506122e181856020860161157b565b80840191505092915050565b60006122f982866122bc565b915061230582856122bc565b915061231182846122bc565b9150819050949350505050565b7f4e487b7100000000000000000000000000000000000000000000000000000000600052601260045260246000fd5b6000612358826114be565b9150612363836114be565b9250826123735761237261231e565b5b828206905092915050565b7f73657269616c206e756d626572206f6620746865206d656469636174696f6e00600082015250565b60006123b4601f8361156a565b91506123bf8261237e565b602082019050919050565b600060408201905081810360008301526123e3816123a7565b90506123f260208301846114c8565b9291505056fea26469706673582212209060c4c6f8f8aceb363da8bc960f06fb5d5c36fd2e88ea1a481e18ac2fe6a07764736f6c63430008120033",
  "linkReferences": {},
  "deployedLinkReferences": {}
}