{
    "_format": "hh-sol-artifact-1",
    "contractName": "Supplier",
    "sourceName": "contracts/supplier.sol",
    "abi": [
        {
            "anonymous": false,
            "inputs": [
                {
                    "indexed": false,
                    "internalType": "string",
                    "name": "message",
                    "type": "string"
                }
            ],
            "name": "Mdispatch",
            "type": "event"
        },
        {
            "anonymous": false,
            "inputs": [
                {
                    "indexed": false,
                    "internalType": "string",
                    "name": "message",
                    "type": "string"
                }
            ],
            "name": "Status",
            "type": "event"
        },
        {
            "anonymous": false,
            "inputs": [
                {
                    "indexed": false,
                    "internalType": "string",
                    "name": "message",
                    "type": "string"
                },
                {
                    "indexed": false,
                    "internalType": "uint256",
                    "name": "_sn",
                    "type": "uint256"
                }
            ],
            "name": "product",
            "type": "event"
        },
        {
            "inputs": [
                {
                    "internalType": "uint256",
                    "name": "",
                    "type": "uint256"
                }
            ],
            "name": "IpfsRevision",
            "outputs": [
                {
                    "internalType": "string",
                    "name": "",
                    "type": "string"
                }
            ],
            "stateMutability": "view",
            "type": "function"
        },
        {
            "inputs": [
                {
                    "internalType": "uint256",
                    "name": "_serialnumber",
                    "type": "uint256"
                },
                {
                    "internalType": "string",
                    "name": "_CID12",
                    "type": "string"
                }
            ],
            "name": "Mandispatch",
            "outputs": [],
            "stateMutability": "nonpayable",
            "type": "function"
        },
        {
            "inputs": [
                {
                    "internalType": "string",
                    "name": "_CID11",
                    "type": "string"
                }
            ],
            "name": "Medicine_mapper_first",
            "outputs": [],
            "stateMutability": "nonpayable",
            "type": "function"
        },
        {
            "inputs": [],
            "name": "Serialnumbers",
            "outputs": [
                {
                    "internalType": "uint256",
                    "name": "",
                    "type": "uint256"
                }
            ],
            "stateMutability": "view",
            "type": "function"
        },
        {
            "inputs": [
                {
                    "internalType": "uint256",
                    "name": "",
                    "type": "uint256"
                }
            ],
            "name": "Sn",
            "outputs": [
                {
                    "internalType": "uint256",
                    "name": "",
                    "type": "uint256"
                }
            ],
            "stateMutability": "view",
            "type": "function"
        },
        {
            "inputs": [
                {
                    "internalType": "uint256",
                    "name": "_serialnumber",
                    "type": "uint256"
                },
                {
                    "internalType": "string",
                    "name": "revision22",
                    "type": "string"
                }
            ],
            "name": "Supdispatch",
            "outputs": [],
            "stateMutability": "nonpayable",
            "type": "function"
        },
        {
            "inputs": [
                {
                    "internalType": "string",
                    "name": "_name",
                    "type": "string"
                },
                {
                    "internalType": "string",
                    "name": "_batchno",
                    "type": "string"
                },
                {
                    "internalType": "string",
                    "name": "_manufacturer",
                    "type": "string"
                },
                {
                    "internalType": "enum Manufacturer.SupplyChainState",
                    "name": "_state",
                    "type": "uint8"
                },
                {
                    "internalType": "uint256",
                    "name": "_Manufacturing_date",
                    "type": "uint256"
                },
                {
                    "internalType": "uint256",
                    "name": "_Expiring_date",
                    "type": "uint256"
                }
            ],
            "name": "addprouct",
            "outputs": [],
            "stateMutability": "nonpayable",
            "type": "function"
        },
        {
            "inputs": [],
            "name": "checker",
            "outputs": [
                {
                    "internalType": "string",
                    "name": "",
                    "type": "string"
                }
            ],
            "stateMutability": "view",
            "type": "function"
        },
        {
            "inputs": [],
            "name": "dispatchedtimeBySupplier",
            "outputs": [
                {
                    "internalType": "uint256",
                    "name": "",
                    "type": "uint256"
                }
            ],
            "stateMutability": "view",
            "type": "function"
        },
        {
            "inputs": [
                {
                    "internalType": "uint256",
                    "name": "",
                    "type": "uint256"
                }
            ],
            "name": "medd",
            "outputs": [
                {
                    "internalType": "enum Manufacturer.SupplyChainState",
                    "name": "state",
                    "type": "uint8"
                },
                {
                    "internalType": "string",
                    "name": "batchnumber",
                    "type": "string"
                },
                {
                    "internalType": "string",
                    "name": "manufacturer",
                    "type": "string"
                },
                {
                    "internalType": "string",
                    "name": "name",
                    "type": "string"
                },
                {
                    "internalType": "uint256",
                    "name": "Manufacturing_date",
                    "type": "uint256"
                },
                {
                    "internalType": "uint256",
                    "name": "Expiring_date",
                    "type": "uint256"
                },
                {
                    "internalType": "bytes32",
                    "name": "ipfsCid",
                    "type": "bytes32"
                }
            ],
            "stateMutability": "view",
            "type": "function"
        },
        {
            "inputs": [
                {
                    "internalType": "uint256",
                    "name": "",
                    "type": "uint256"
                }
            ],
            "name": "medications",
            "outputs": [
                {
                    "internalType": "enum Manufacturer.SupplyChainState",
                    "name": "state",
                    "type": "uint8"
                },
                {
                    "internalType": "string",
                    "name": "batchnumber",
                    "type": "string"
                },
                {
                    "internalType": "string",
                    "name": "manufacturer",
                    "type": "string"
                },
                {
                    "internalType": "string",
                    "name": "name",
                    "type": "string"
                },
                {
                    "internalType": "uint256",
                    "name": "Manufacturing_date",
                    "type": "uint256"
                },
                {
                    "internalType": "uint256",
                    "name": "Expiring_date",
                    "type": "uint256"
                },
                {
                    "internalType": "bytes32",
                    "name": "ipfsCid",
                    "type": "bytes32"
                }
            ],
            "stateMutability": "view",
            "type": "function"
        },
        {
            "inputs": [],
            "name": "recievedtimeBySupplier",
            "outputs": [
                {
                    "internalType": "uint256",
                    "name": "",
                    "type": "uint256"
                }
            ],
            "stateMutability": "view",
            "type": "function"
        },
        {
            "inputs": [],
            "name": "serialnumber",
            "outputs": [
                {
                    "internalType": "uint256",
                    "name": "",
                    "type": "uint256"
                }
            ],
            "stateMutability": "view",
            "type": "function"
        },
        {
            "inputs": [
                {
                    "internalType": "uint256",
                    "name": "_serialnumber",
                    "type": "uint256"
                },
                {
                    "internalType": "string",
                    "name": "revision21",
                    "type": "string"
                }
            ],
            "name": "verify",
            "outputs": [],
            "stateMutability": "nonpayable",
            "type": "function"
        }
    ],
    "bytecode": "0x60806040526010600155600154600a6200001a9190620001be565b6002553480156200002a57600080fd5b506200020f565b7f4e487b7100000000000000000000000000000000000000000000000000000000600052601160045260246000fd5b60008160011c9050919050565b6000808291508390505b6001851115620000bf5780860481111562000097576200009662000031565b5b6001851615620000a75780820291505b8081029050620000b78562000060565b945062000077565b94509492505050565b600082620000da5760019050620001ad565b81620000ea5760009050620001ad565b81600181146200010357600281146200010e5762000144565b6001915050620001ad565b60ff84111562000123576200012262000031565b5b8360020a9150848211156200013d576200013c62000031565b5b50620001ad565b5060208310610133831016604e8410600b84101617156200017e5782820a90508381111562000178576200017762000031565b5b620001ad565b6200018d84848460016200006d565b92509050818404811115620001a757620001a662000031565b5b81810290505b9392505050565b6000819050919050565b6000620001cb82620001b4565b9150620001d883620001b4565b9250620002077fffffffffffffffffffffffffffffffffffffffffffffffffffffffffffffffff8484620000c8565b905092915050565b611a4a806200021f6000396000f3fe608060405234801561001057600080fd5b50600436106100ea5760003560e01c80639bcca8571161008c578063cf5303cf11610066578063cf5303cf1461024f578063d700d2df1461026d578063e4d00fbb1461028b578063fa8547f6146102a7576100ea565b80639bcca857146101e5578063b498c57914610215578063cead807514610231576100ea565b80635ee8d98a116100c85780635ee8d98a146101595780636203d51c14610175578063857474721461019357806387ada616146101c9576100ea565b80631d9b62f2146100ef57806335e56a1e1461010d5780634942f3581461013d575b600080fd5b6100f76102dd565b6040516101049190610dd3565b60405180910390f35b61012760048036038101906101229190610e2e565b6102e6565b6040516101349190610eeb565b60405180910390f35b61015760048036038101906101529190611042565b610386565b005b610173600480360381019061016e9190611042565b6104f2565b005b61017d61061d565b60405161018a9190610dd3565b60405180910390f35b6101ad60048036038101906101a89190610e2e565b610623565b6040516101c0979695949392919061112e565b60405180910390f35b6101e360048036038101906101de9190611042565b61081a565b005b6101ff60048036038101906101fa9190610e2e565b610945565b60405161020c9190610dd3565b60405180910390f35b61022f600480360381019061022a91906111b2565b610969565b005b61023961098e565b6040516102469190610dd3565b60405180910390f35b610257610994565b6040516102649190610eeb565b60405180910390f35b610275610a22565b6040516102829190610dd3565b60405180910390f35b6102a560048036038101906102a09190611220565b610a28565b005b6102c160048036038101906102bc9190610e2e565b610bd3565b6040516102d4979695949392919061112e565b60405180910390f35b60008054905090565b6008602052806000526040600020600091509050805461030590611330565b80601f016020809104026020016040519081016040528092919081815260200182805461033190611330565b801561037e5780601f106103535761010080835404028352916020019161037e565b820191906000526020600020905b81548152906001019060200180831161036157829003601f168201915b505050505081565b6001600481111561039a5761039961109e565b5b6009600084815260200190815260200160002060000160009054906101000a900460ff1660048111156103d0576103cf61109e565b5b14610410576040517f08c379a0000000000000000000000000000000000000000000000000000000008152600401610407906113d3565b60405180910390fd5b6000801b60086000805481526020019081526020016000206040516020016104389190611496565b604051602081830303815290604052805190602001200361045857600080fd5b60026009600084815260200190815260200160002060000160006101000a81548160ff021916908360048111156104925761049161109e565b5b021790555080600860008054815260200190815260200160002090816104b89190611644565b507f2844c95bf1b4598da931d527f903501abc60fe0199c65da52d5ce818c6c5e9616040516104e690611762565b60405180910390a15050565b600260048111156105065761050561109e565b5b6009600084815260200190815260200160002060000160009054906101000a900460ff16600481111561053c5761053b61109e565b5b1461057c576040517f08c379a0000000000000000000000000000000000000000000000000000000008152600401610573906117f4565b60405180910390fd5b42600b8190555060036009600084815260200190815260200160002060000160006101000a81548160ff021916908360048111156105bd576105bc61109e565b5b021790555080600860008054815260200190815260200160002090816105e39190611644565b507f2844c95bf1b4598da931d527f903501abc60fe0199c65da52d5ce818c6c5e96160405161061190611886565b60405180910390a15050565b600a5481565b6003818154811061063357600080fd5b90600052602060002090600702016000915090508060000160009054906101000a900460ff169080600101805461066990611330565b80601f016020809104026020016040519081016040528092919081815260200182805461069590611330565b80156106e25780601f106106b7576101008083540402835291602001916106e2565b820191906000526020600020905b8154815290600101906020018083116106c557829003601f168201915b5050505050908060020180546106f790611330565b80601f016020809104026020016040519081016040528092919081815260200182805461072390611330565b80156107705780601f1061074557610100808354040283529160200191610770565b820191906000526020600020905b81548152906001019060200180831161075357829003601f168201915b50505050509080600301805461078590611330565b80601f01602080910402602001604051908101604052809291908181526020018280546107b190611330565b80156107fe5780601f106107d3576101008083540402835291602001916107fe565b820191906000526020600020905b8154815290600101906020018083116107e157829003601f168201915b5050505050908060040154908060050154908060060154905087565b6000600481111561082e5761082d61109e565b5b6009600084815260200190815260200160002060000160009054906101000a900460ff1660048111156108645761086361109e565b5b146108a4576040517f08c379a000000000000000000000000000000000000000000000000000000000815260040161089b906117f4565b60405180910390fd5b4260068190555060016009600084815260200190815260200160002060000160006101000a81548160ff021916908360048111156108e5576108e461109e565b5b0217905550806008600080548152602001908152602001600020908161090b9190611644565b507fdefe02112824e0ae81930c3e55aeeac58d10e8b531afdcb3bad105492ec5a54560405161093990611886565b60405180910390a15050565b6004818154811061095557600080fd5b906000526020600020016000915090505481565b806008600080548152602001908152602001600020908161098a9190611644565b5050565b60005481565b600780546109a190611330565b80601f01602080910402602001604051908101604052809291908181526020018280546109cd90611330565b8015610a1a5780601f106109ef57610100808354040283529160200191610a1a565b820191906000526020600020905b8154815290600101906020018083116109fd57829003601f168201915b505050505081565b600b5481565b42600581905550858585600554604051602001610a4894939291906118f8565b6040516020818303038152906040528051906020012060001c600081905550600254600080828254610a7a9190611969565b925050819055508460096000805481526020019081526020016000206001019081610aa59190611644565b508560096000805481526020019081526020016000206003019081610aca9190611644565b508360096000805481526020019081526020016000206002019081610aef9190611644565b50816009600080548152602001908152602001600020600401819055508060096000805481526020019081526020016000206005018190555082600960008054815260200190815260200160002060000160006101000a81548160ff02191690836004811115610b6257610b6161109e565b5b0217905550600460005490806001815401808255809150506001900390600052602060002001600090919091909150557fe9850cacbeabeb04673cee1b608fedf6e3163f0a8da989d484b5348563e04d02600054604051610bc391906119e6565b60405180910390a1505050505050565b60096020528060005260406000206000915090508060000160009054906101000a900460ff1690806001018054610c0990611330565b80601f0160208091040260200160405190810160405280929190818152602001828054610c3590611330565b8015610c825780601f10610c5757610100808354040283529160200191610c82565b820191906000526020600020905b815481529060010190602001808311610c6557829003601f168201915b505050505090806002018054610c9790611330565b80601f0160208091040260200160405190810160405280929190818152602001828054610cc390611330565b8015610d105780601f10610ce557610100808354040283529160200191610d10565b820191906000526020600020905b815481529060010190602001808311610cf357829003601f168201915b505050505090806003018054610d2590611330565b80601f0160208091040260200160405190810160405280929190818152602001828054610d5190611330565b8015610d9e5780601f10610d7357610100808354040283529160200191610d9e565b820191906000526020600020905b815481529060010190602001808311610d8157829003601f168201915b5050505050908060040154908060050154908060060154905087565b6000819050919050565b610dcd81610dba565b82525050565b6000602082019050610de86000830184610dc4565b92915050565b6000604051905090565b600080fd5b600080fd5b610e0b81610dba565b8114610e1657600080fd5b50565b600081359050610e2881610e02565b92915050565b600060208284031215610e4457610e43610df8565b5b6000610e5284828501610e19565b91505092915050565b600081519050919050565b600082825260208201905092915050565b60005b83811015610e95578082015181840152602081019050610e7a565b60008484015250505050565b6000601f19601f8301169050919050565b6000610ebd82610e5b565b610ec78185610e66565b9350610ed7818560208601610e77565b610ee081610ea1565b840191505092915050565b60006020820190508181036000830152610f058184610eb2565b905092915050565b600080fd5b600080fd5b7f4e487b7100000000000000000000000000000000000000000000000000000000600052604160045260246000fd5b610f4f82610ea1565b810181811067ffffffffffffffff82111715610f6e57610f6d610f17565b5b80604052505050565b6000610f81610dee565b9050610f8d8282610f46565b919050565b600067ffffffffffffffff821115610fad57610fac610f17565b5b610fb682610ea1565b9050602081019050919050565b82818337600083830152505050565b6000610fe5610fe084610f92565b610f77565b90508281526020810184848401111561100157611000610f12565b5b61100c848285610fc3565b509392505050565b600082601f83011261102957611028610f0d565b5b8135611039848260208601610fd2565b91505092915050565b6000806040838503121561105957611058610df8565b5b600061106785828601610e19565b925050602083013567ffffffffffffffff81111561108857611087610dfd565b5b61109485828601611014565b9150509250929050565b7f4e487b7100000000000000000000000000000000000000000000000000000000600052602160045260246000fd5b600581106110de576110dd61109e565b5b50565b60008190506110ef826110cd565b919050565b60006110ff826110e1565b9050919050565b61110f816110f4565b82525050565b6000819050919050565b61112881611115565b82525050565b600060e082019050611143600083018a611106565b81810360208301526111558189610eb2565b905081810360408301526111698188610eb2565b9050818103606083015261117d8187610eb2565b905061118c6080830186610dc4565b61119960a0830185610dc4565b6111a660c083018461111f565b98975050505050505050565b6000602082840312156111c8576111c7610df8565b5b600082013567ffffffffffffffff8111156111e6576111e5610dfd565b5b6111f284828501611014565b91505092915050565b6005811061120857600080fd5b50565b60008135905061121a816111fb565b92915050565b60008060008060008060c0878903121561123d5761123c610df8565b5b600087013567ffffffffffffffff81111561125b5761125a610dfd565b5b61126789828a01611014565b965050602087013567ffffffffffffffff81111561128857611287610dfd565b5b61129489828a01611014565b955050604087013567ffffffffffffffff8111156112b5576112b4610dfd565b5b6112c189828a01611014565b94505060606112d289828a0161120b565b93505060806112e389828a01610e19565b92505060a06112f489828a01610e19565b9150509295509295509295565b7f4e487b7100000000000000000000000000000000000000000000000000000000600052602260045260246000fd5b6000600282049050600182168061134857607f821691505b60208210810361135b5761135a611301565b5b50919050565b7f6d656469636174696f6e206973206e6f7420646973706174636865642079657460008201527f2066726f6d206d616e7566616374757265720000000000000000000000000000602082015250565b60006113bd603283610e66565b91506113c882611361565b604082019050919050565b600060208201905081810360008301526113ec816113b0565b9050919050565b600081905092915050565b60008190508160005260206000209050919050565b6000815461142081611330565b61142a81866113f3565b94506001821660008114611445576001811461145a5761148d565b60ff198316865281151582028601935061148d565b611463856113fe565b60005b8381101561148557815481890152600182019150602081019050611466565b838801955050505b50505092915050565b60006114a28284611413565b915081905092915050565b60006020601f8301049050919050565b600082821b905092915050565b6000600883026114fa7fffffffffffffffffffffffffffffffffffffffffffffffffffffffffffffffff826114bd565b61150486836114bd565b95508019841693508086168417925050509392505050565b6000819050919050565b600061154161153c61153784610dba565b61151c565b610dba565b9050919050565b6000819050919050565b61155b83611526565b61156f61156782611548565b8484546114ca565b825550505050565b600090565b611584611577565b61158f818484611552565b505050565b5b818110156115b3576115a860008261157c565b600181019050611595565b5050565b601f8211156115f8576115c9816113fe565b6115d2846114ad565b810160208510156115e1578190505b6115f56115ed856114ad565b830182611594565b50505b505050565b600082821c905092915050565b600061161b600019846008026115fd565b1980831691505092915050565b6000611634838361160a565b9150826002028217905092915050565b61164d82610e5b565b67ffffffffffffffff81111561166657611665610f17565b5b6116708254611330565b61167b8282856115b7565b600060209050601f8311600181146116ae576000841561169c578287015190505b6116a68582611628565b86555061170e565b601f1984166116bc866113fe565b60005b828110156116e4578489015182556001820191506020850194506020810190506116bf565b8683101561170157848901516116fd601f89168261160a565b8355505b6001600288020188555050505b505050505050565b7f7665726669636174696f6e20436f6d706c657465000000000000000000000000600082015250565b600061174c601483610e66565b915061175782611716565b602082019050919050565b6000602082019050818103600083015261177b8161173f565b9050919050565b7f6d656469636174696f6e206973206e6f74207965742075706c6f616420696e2060008201527f636861696e000000000000000000000000000000000000000000000000000000602082015250565b60006117de602583610e66565b91506117e982611782565b604082019050919050565b6000602082019050818103600083015261180d816117d1565b9050919050565b7f4469737061746368696e6720636f6d706c657465207375636365737366756c6c60008201527f7900000000000000000000000000000000000000000000000000000000000000602082015250565b6000611870602183610e66565b915061187b82611814565b604082019050919050565b6000602082019050818103600083015261189f81611863565b9050919050565b60006118b182610e5b565b6118bb81856113f3565b93506118cb818560208601610e77565b80840191505092915050565b6000819050919050565b6118f26118ed82610dba565b6118d7565b82525050565b600061190482876118a6565b915061191082866118a6565b915061191c82856118a6565b915061192882846118e1565b60208201915081905095945050505050565b7f4e487b7100000000000000000000000000000000000000000000000000000000600052601260045260246000fd5b600061197482610dba565b915061197f83610dba565b92508261198f5761198e61193a565b5b828206905092915050565b7f73657269616c206e756d626572206f6620746865206d656469636174696f6e00600082015250565b60006119d0601f83610e66565b91506119db8261199a565b602082019050919050565b600060408201905081810360008301526119ff816119c3565b9050611a0e6020830184610dc4565b9291505056fea2646970667358221220203fbb5a1182f0a6cda4c9906a491ea4feba5c7873a5060c89a1f2d4fe14f5fb64736f6c63430008120033",
    "linkReferences": {},
    "deployedLinkReferences": {}
}