{
  "_format": "hh-sol-artifact-1",
  "contractName": "Manufacturer",
  "sourceName": "contracts/Manufacturer.sol",
  "abi": [
    {
      "anonymous": false,
      "inputs": [
        {
          "indexed": false,
          "internalType": "string",
          "name": "message",
          "type": "string"
        }
      ],
      "name": "Mdispatch",
      "type": "event"
    },
    {
      "anonymous": false,
      "inputs": [
        {
          "indexed": false,
          "internalType": "string",
          "name": "message",
          "type": "string"
        },
        {
          "indexed": false,
          "internalType": "uint256",
          "name": "_sn",
          "type": "uint256"
        }
      ],
      "name": "product",
      "type": "event"
    },
    {
      "inputs": [
        {
          "internalType": "uint256",
          "name": "",
          "type": "uint256"
        }
      ],
      "name": "IpfsRevision",
      "outputs": [
        {
          "internalType": "string",
          "name": "",
          "type": "string"
        }
      ],
      "stateMutability": "view",
      "type": "function"
    },
    {
      "inputs": [
        {
          "internalType": "uint256",
          "name": "_serialnumber",
          "type": "uint256"
        },
        {
          "internalType": "string",
          "name": "_CID12",
          "type": "string"
        }
      ],
      "name": "Mandispatch",
      "outputs": [],
      "stateMutability": "nonpayable",
      "type": "function"
    },
    {
      "inputs": [
        {
          "internalType": "string",
          "name": "_CID11",
          "type": "string"
        }
      ],
      "name": "Medicine_mapper_first",
      "outputs": [],
      "stateMutability": "nonpayable",
      "type": "function"
    },
    {
      "inputs": [],
      "name": "Serialnumbers",
      "outputs": [
        {
          "internalType": "uint256",
          "name": "",
          "type": "uint256"
        }
      ],
      "stateMutability": "view",
      "type": "function"
    },
    {
      "inputs": [
        {
          "internalType": "uint256",
          "name": "",
          "type": "uint256"
        }
      ],
      "name": "Sn",
      "outputs": [
        {
          "internalType": "uint256",
          "name": "",
          "type": "uint256"
        }
      ],
      "stateMutability": "view",
      "type": "function"
    },
    {
      "inputs": [
        {
          "internalType": "string",
          "name": "_name",
          "type": "string"
        },
        {
          "internalType": "string",
          "name": "_batchno",
          "type": "string"
        },
        {
          "internalType": "string",
          "name": "_manufacturer",
          "type": "string"
        },
        {
          "internalType": "enum Manufacturer.SupplyChainState",
          "name": "_state",
          "type": "uint8"
        },
        {
          "internalType": "uint256",
          "name": "_Manufacturing_date",
          "type": "uint256"
        },
        {
          "internalType": "uint256",
          "name": "_Expiring_date",
          "type": "uint256"
        }
      ],
      "name": "addprouct",
      "outputs": [],
      "stateMutability": "nonpayable",
      "type": "function"
    },
    {
      "inputs": [],
      "name": "checker",
      "outputs": [
        {
          "internalType": "string",
          "name": "",
          "type": "string"
        }
      ],
      "stateMutability": "view",
      "type": "function"
    },
    {
      "inputs": [
        {
          "internalType": "uint256",
          "name": "",
          "type": "uint256"
        }
      ],
      "name": "medd",
      "outputs": [
        {
          "internalType": "enum Manufacturer.SupplyChainState",
          "name": "state",
          "type": "uint8"
        },
        {
          "internalType": "string",
          "name": "batchnumber",
          "type": "string"
        },
        {
          "internalType": "string",
          "name": "manufacturer",
          "type": "string"
        },
        {
          "internalType": "string",
          "name": "name",
          "type": "string"
        },
        {
          "internalType": "uint256",
          "name": "Manufacturing_date",
          "type": "uint256"
        },
        {
          "internalType": "uint256",
          "name": "Expiring_date",
          "type": "uint256"
        },
        {
          "internalType": "bytes32",
          "name": "ipfsCid",
          "type": "bytes32"
        }
      ],
      "stateMutability": "view",
      "type": "function"
    },
    {
      "inputs": [
        {
          "internalType": "uint256",
          "name": "",
          "type": "uint256"
        }
      ],
      "name": "medications",
      "outputs": [
        {
          "internalType": "enum Manufacturer.SupplyChainState",
          "name": "state",
          "type": "uint8"
        },
        {
          "internalType": "string",
          "name": "batchnumber",
          "type": "string"
        },
        {
          "internalType": "string",
          "name": "manufacturer",
          "type": "string"
        },
        {
          "internalType": "string",
          "name": "name",
          "type": "string"
        },
        {
          "internalType": "uint256",
          "name": "Manufacturing_date",
          "type": "uint256"
        },
        {
          "internalType": "uint256",
          "name": "Expiring_date",
          "type": "uint256"
        },
        {
          "internalType": "bytes32",
          "name": "ipfsCid",
          "type": "bytes32"
        }
      ],
      "stateMutability": "view",
      "type": "function"
    },
    {
      "inputs": [],
      "name": "serialnumber",
      "outputs": [
        {
          "internalType": "uint256",
          "name": "",
          "type": "uint256"
        }
      ],
      "stateMutability": "view",
      "type": "function"
    }
  ],
  "bytecode": "0x60806040526010600155600154600a6200001a9190620001be565b6002553480156200002a57600080fd5b506200020f565b7f4e487b7100000000000000000000000000000000000000000000000000000000600052601160045260246000fd5b60008160011c9050919050565b6000808291508390505b6001851115620000bf5780860481111562000097576200009662000031565b5b6001851615620000a75780820291505b8081029050620000b78562000060565b945062000077565b94509492505050565b600082620000da5760019050620001ad565b81620000ea5760009050620001ad565b81600181146200010357600281146200010e5762000144565b6001915050620001ad565b60ff84111562000123576200012262000031565b5b8360020a9150848211156200013d576200013c62000031565b5b50620001ad565b5060208310610133831016604e8410600b84101617156200017e5782820a90508381111562000178576200017762000031565b5b620001ad565b6200018d84848460016200006d565b92509050818404811115620001a757620001a662000031565b5b81810290505b9392505050565b6000819050919050565b6000620001cb82620001b4565b9150620001d883620001b4565b9250620002077fffffffffffffffffffffffffffffffffffffffffffffffffffffffffffffffff8484620000c8565b905092915050565b611518806200021f6000396000f3fe608060405234801561001057600080fd5b506004361061009e5760003560e01c8063b498c57911610066578063b498c57914610173578063cead80751461018f578063cf5303cf146101ad578063e4d00fbb146101cb578063fa8547f6146101e75761009e565b80631d9b62f2146100a357806335e56a1e146100c157806385747472146100f157806387ada616146101275780639bcca85714610143575b600080fd5b6100ab61021d565b6040516100b89190610a6b565b60405180910390f35b6100db60048036038101906100d69190610ac6565b610226565b6040516100e89190610b83565b60405180910390f35b61010b60048036038101906101069190610ac6565b6102c6565b60405161011e9796959493929190610c35565b60405180910390f35b610141600480360381019061013c9190610dee565b6104bd565b005b61015d60048036038101906101589190610ac6565b6105e7565b60405161016a9190610a6b565b60405180910390f35b61018d60048036038101906101889190610e4a565b61060b565b005b610197610630565b6040516101a49190610a6b565b60405180910390f35b6101b5610636565b6040516101c29190610b83565b60405180910390f35b6101e560048036038101906101e09190610eb8565b6106c4565b005b61020160048036038101906101fc9190610ac6565b61086b565b6040516102149796959493929190610c35565b60405180910390f35b60008054905090565b6008602052806000526040600020600091509050805461024590610fc8565b80601f016020809104026020016040519081016040528092919081815260200182805461027190610fc8565b80156102be5780601f10610293576101008083540402835291602001916102be565b820191906000526020600020905b8154815290600101906020018083116102a157829003601f168201915b505050505081565b600381815481106102d657600080fd5b90600052602060002090600702016000915090508060000160009054906101000a900460ff169080600101805461030c90610fc8565b80601f016020809104026020016040519081016040528092919081815260200182805461033890610fc8565b80156103855780601f1061035a57610100808354040283529160200191610385565b820191906000526020600020905b81548152906001019060200180831161036857829003601f168201915b50505050509080600201805461039a90610fc8565b80601f01602080910402602001604051908101604052809291908181526020018280546103c690610fc8565b80156104135780601f106103e857610100808354040283529160200191610413565b820191906000526020600020905b8154815290600101906020018083116103f657829003601f168201915b50505050509080600301805461042890610fc8565b80601f016020809104026020016040519081016040528092919081815260200182805461045490610fc8565b80156104a15780601f10610476576101008083540402835291602001916104a1565b820191906000526020600020905b81548152906001019060200180831161048457829003601f168201915b5050505050908060040154908060050154908060060154905087565b600060048111156104d1576104d0610ba5565b5b6009600084815260200190815260200160002060000160009054906101000a900460ff16600481111561050757610506610ba5565b5b14610547576040517f08c379a000000000000000000000000000000000000000000000000000000000815260040161053e9061106b565b60405180910390fd5b4260068190555060016009600084815260200190815260200160002060000160006101000a81548160ff0219169083600481111561058857610587610ba5565b5b0217905550806008600084815260200190815260200160002090816105ad9190611237565b507fdefe02112824e0ae81930c3e55aeeac58d10e8b531afdcb3bad105492ec5a5456040516105db9061137b565b60405180910390a15050565b600481815481106105f757600080fd5b906000526020600020016000915090505481565b806008600080548152602001908152602001600020908161062c9190611237565b5050565b60005481565b6007805461064390610fc8565b80601f016020809104026020016040519081016040528092919081815260200182805461066f90610fc8565b80156106bc5780601f10610691576101008083540402835291602001916106bc565b820191906000526020600020905b81548152906001019060200180831161069f57829003601f168201915b505050505081565b426005819055508585856040516020016106e0939291906113d7565b6040516020818303038152906040528051906020012060001c6000819055506002546000808282546107129190611437565b92505081905550846009600080548152602001908152602001600020600101908161073d9190611237565b5085600960008054815260200190815260200160002060030190816107629190611237565b5083600960008054815260200190815260200160002060020190816107879190611237565b50816009600080548152602001908152602001600020600401819055508060096000805481526020019081526020016000206005018190555082600960008054815260200190815260200160002060000160006101000a81548160ff021916908360048111156107fa576107f9610ba5565b5b0217905550600460005490806001815401808255809150506001900390600052602060002001600090919091909150557fe9850cacbeabeb04673cee1b608fedf6e3163f0a8da989d484b5348563e04d0260005460405161085b91906114b4565b60405180910390a1505050505050565b60096020528060005260406000206000915090508060000160009054906101000a900460ff16908060010180546108a190610fc8565b80601f01602080910402602001604051908101604052809291908181526020018280546108cd90610fc8565b801561091a5780601f106108ef5761010080835404028352916020019161091a565b820191906000526020600020905b8154815290600101906020018083116108fd57829003601f168201915b50505050509080600201805461092f90610fc8565b80601f016020809104026020016040519081016040528092919081815260200182805461095b90610fc8565b80156109a85780601f1061097d576101008083540402835291602001916109a8565b820191906000526020600020905b81548152906001019060200180831161098b57829003601f168201915b5050505050908060030180546109bd90610fc8565b80601f01602080910402602001604051908101604052809291908181526020018280546109e990610fc8565b8015610a365780601f10610a0b57610100808354040283529160200191610a36565b820191906000526020600020905b815481529060010190602001808311610a1957829003601f168201915b5050505050908060040154908060050154908060060154905087565b6000819050919050565b610a6581610a52565b82525050565b6000602082019050610a806000830184610a5c565b92915050565b6000604051905090565b600080fd5b600080fd5b610aa381610a52565b8114610aae57600080fd5b50565b600081359050610ac081610a9a565b92915050565b600060208284031215610adc57610adb610a90565b5b6000610aea84828501610ab1565b91505092915050565b600081519050919050565b600082825260208201905092915050565b60005b83811015610b2d578082015181840152602081019050610b12565b60008484015250505050565b6000601f19601f8301169050919050565b6000610b5582610af3565b610b5f8185610afe565b9350610b6f818560208601610b0f565b610b7881610b39565b840191505092915050565b60006020820190508181036000830152610b9d8184610b4a565b905092915050565b7f4e487b7100000000000000000000000000000000000000000000000000000000600052602160045260246000fd5b60058110610be557610be4610ba5565b5b50565b6000819050610bf682610bd4565b919050565b6000610c0682610be8565b9050919050565b610c1681610bfb565b82525050565b6000819050919050565b610c2f81610c1c565b82525050565b600060e082019050610c4a600083018a610c0d565b8181036020830152610c5c8189610b4a565b90508181036040830152610c708188610b4a565b90508181036060830152610c848187610b4a565b9050610c936080830186610a5c565b610ca060a0830185610a5c565b610cad60c0830184610c26565b98975050505050505050565b600080fd5b600080fd5b7f4e487b7100000000000000000000000000000000000000000000000000000000600052604160045260246000fd5b610cfb82610b39565b810181811067ffffffffffffffff82111715610d1a57610d19610cc3565b5b80604052505050565b6000610d2d610a86565b9050610d398282610cf2565b919050565b600067ffffffffffffffff821115610d5957610d58610cc3565b5b610d6282610b39565b9050602081019050919050565b82818337600083830152505050565b6000610d91610d8c84610d3e565b610d23565b905082815260208101848484011115610dad57610dac610cbe565b5b610db8848285610d6f565b509392505050565b600082601f830112610dd557610dd4610cb9565b5b8135610de5848260208601610d7e565b91505092915050565b60008060408385031215610e0557610e04610a90565b5b6000610e1385828601610ab1565b925050602083013567ffffffffffffffff811115610e3457610e33610a95565b5b610e4085828601610dc0565b9150509250929050565b600060208284031215610e6057610e5f610a90565b5b600082013567ffffffffffffffff811115610e7e57610e7d610a95565b5b610e8a84828501610dc0565b91505092915050565b60058110610ea057600080fd5b50565b600081359050610eb281610e93565b92915050565b60008060008060008060c08789031215610ed557610ed4610a90565b5b600087013567ffffffffffffffff811115610ef357610ef2610a95565b5b610eff89828a01610dc0565b965050602087013567ffffffffffffffff811115610f2057610f1f610a95565b5b610f2c89828a01610dc0565b955050604087013567ffffffffffffffff811115610f4d57610f4c610a95565b5b610f5989828a01610dc0565b9450506060610f6a89828a01610ea3565b9350506080610f7b89828a01610ab1565b92505060a0610f8c89828a01610ab1565b9150509295509295509295565b7f4e487b7100000000000000000000000000000000000000000000000000000000600052602260045260246000fd5b60006002820490506001821680610fe057607f821691505b602082108103610ff357610ff2610f99565b5b50919050565b7f6d656469636174696f6e206973206e6f74207965742075706c6f616420696e2060008201527f636861696e000000000000000000000000000000000000000000000000000000602082015250565b6000611055602583610afe565b915061106082610ff9565b604082019050919050565b6000602082019050818103600083015261108481611048565b9050919050565b60008190508160005260206000209050919050565b60006020601f8301049050919050565b600082821b905092915050565b6000600883026110ed7fffffffffffffffffffffffffffffffffffffffffffffffffffffffffffffffff826110b0565b6110f786836110b0565b95508019841693508086168417925050509392505050565b6000819050919050565b600061113461112f61112a84610a52565b61110f565b610a52565b9050919050565b6000819050919050565b61114e83611119565b61116261115a8261113b565b8484546110bd565b825550505050565b600090565b61117761116a565b611182818484611145565b505050565b5b818110156111a65761119b60008261116f565b600181019050611188565b5050565b601f8211156111eb576111bc8161108b565b6111c5846110a0565b810160208510156111d4578190505b6111e86111e0856110a0565b830182611187565b50505b505050565b600082821c905092915050565b600061120e600019846008026111f0565b1980831691505092915050565b600061122783836111fd565b9150826002028217905092915050565b61124082610af3565b67ffffffffffffffff81111561125957611258610cc3565b5b6112638254610fc8565b61126e8282856111aa565b600060209050601f8311600181146112a1576000841561128f578287015190505b611299858261121b565b865550611301565b601f1984166112af8661108b565b60005b828110156112d7578489015182556001820191506020850194506020810190506112b2565b868310156112f457848901516112f0601f8916826111fd565b8355505b6001600288020188555050505b505050505050565b7f4469737061746368696e6720636f6d706c657465207375636365737366756c6c60008201527f7900000000000000000000000000000000000000000000000000000000000000602082015250565b6000611365602183610afe565b915061137082611309565b604082019050919050565b6000602082019050818103600083015261139481611358565b9050919050565b600081905092915050565b60006113b182610af3565b6113bb818561139b565b93506113cb818560208601610b0f565b80840191505092915050565b60006113e382866113a6565b91506113ef82856113a6565b91506113fb82846113a6565b9150819050949350505050565b7f4e487b7100000000000000000000000000000000000000000000000000000000600052601260045260246000fd5b600061144282610a52565b915061144d83610a52565b92508261145d5761145c611408565b5b828206905092915050565b7f73657269616c206e756d626572206f6620746865206d656469636174696f6e00600082015250565b600061149e601f83610afe565b91506114a982611468565b602082019050919050565b600060408201905081810360008301526114cd81611491565b90506114dc6020830184610a5c565b9291505056fea2646970667358221220fc48cc238d73d21f0ffd749cde7a2968ab8a7e5c2895fdede2e4f55d2ba837ea64736f6c63430008120033",
  "linkReferences": {},
  "deployedLinkReferences": {}
}