{
  "_format": "hh-sol-artifact-1",
  "contractName": "Supplier",
  "sourceName": "contracts/supplier.sol",
  "abi": [
    {
      "anonymous": false,
      "inputs": [
        {
          "indexed": false,
          "internalType": "string",
          "name": "message",
          "type": "string"
        }
      ],
      "name": "Mdispatch",
      "type": "event"
    },
    {
      "anonymous": false,
      "inputs": [
        {
          "indexed": false,
          "internalType": "string",
          "name": "message",
          "type": "string"
        }
      ],
      "name": "Status",
      "type": "event"
    },
    {
      "anonymous": false,
      "inputs": [
        {
          "indexed": false,
          "internalType": "string",
          "name": "message",
          "type": "string"
        },
        {
          "indexed": false,
          "internalType": "uint256",
          "name": "_sn",
          "type": "uint256"
        }
      ],
      "name": "product",
      "type": "event"
    },
    {
      "inputs": [
        {
          "internalType": "uint256",
          "name": "",
          "type": "uint256"
        }
      ],
      "name": "IpfsRevision",
      "outputs": [
        {
          "internalType": "string",
          "name": "",
          "type": "string"
        }
      ],
      "stateMutability": "view",
      "type": "function"
    },
    {
      "inputs": [
        {
          "internalType": "uint256",
          "name": "_serialnumber",
          "type": "uint256"
        },
        {
          "internalType": "string",
          "name": "_CID12",
          "type": "string"
        }
      ],
      "name": "Mandispatch",
      "outputs": [],
      "stateMutability": "nonpayable",
      "type": "function"
    },
    {
      "inputs": [
        {
          "internalType": "string",
          "name": "_CID11",
          "type": "string"
        }
      ],
      "name": "Medicine_mapper_first",
      "outputs": [],
      "stateMutability": "nonpayable",
      "type": "function"
    },
    {
      "inputs": [],
      "name": "Serialnumbers",
      "outputs": [
        {
          "internalType": "uint256",
          "name": "",
          "type": "uint256"
        }
      ],
      "stateMutability": "view",
      "type": "function"
    },
    {
      "inputs": [
        {
          "internalType": "uint256",
          "name": "",
          "type": "uint256"
        }
      ],
      "name": "Sn",
      "outputs": [
        {
          "internalType": "uint256",
          "name": "",
          "type": "uint256"
        }
      ],
      "stateMutability": "view",
      "type": "function"
    },
    {
      "inputs": [
        {
          "internalType": "uint256",
          "name": "_serialnumber",
          "type": "uint256"
        },
        {
          "internalType": "string",
          "name": "revision22",
          "type": "string"
        }
      ],
      "name": "Supdispatch",
      "outputs": [],
      "stateMutability": "nonpayable",
      "type": "function"
    },
    {
      "inputs": [
        {
          "internalType": "string",
          "name": "_name",
          "type": "string"
        },
        {
          "internalType": "string",
          "name": "_batchno",
          "type": "string"
        },
        {
          "internalType": "string",
          "name": "_manufacturer",
          "type": "string"
        },
        {
          "internalType": "enum Manufacturer.SupplyChainState",
          "name": "_state",
          "type": "uint8"
        },
        {
          "internalType": "uint256",
          "name": "_Manufacturing_date",
          "type": "uint256"
        },
        {
          "internalType": "uint256",
          "name": "_Expiring_date",
          "type": "uint256"
        }
      ],
      "name": "addprouct",
      "outputs": [],
      "stateMutability": "nonpayable",
      "type": "function"
    },
    {
      "inputs": [],
      "name": "checker",
      "outputs": [
        {
          "internalType": "string",
          "name": "",
          "type": "string"
        }
      ],
      "stateMutability": "view",
      "type": "function"
    },
    {
      "inputs": [],
      "name": "dispatchedtimeBySupplier",
      "outputs": [
        {
          "internalType": "uint256",
          "name": "",
          "type": "uint256"
        }
      ],
      "stateMutability": "view",
      "type": "function"
    },
    {
      "inputs": [
        {
          "internalType": "uint256",
          "name": "",
          "type": "uint256"
        }
      ],
      "name": "medd",
      "outputs": [
        {
          "internalType": "enum Manufacturer.SupplyChainState",
          "name": "state",
          "type": "uint8"
        },
        {
          "internalType": "string",
          "name": "batchnumber",
          "type": "string"
        },
        {
          "internalType": "string",
          "name": "manufacturer",
          "type": "string"
        },
        {
          "internalType": "string",
          "name": "name",
          "type": "string"
        },
        {
          "internalType": "uint256",
          "name": "Manufacturing_date",
          "type": "uint256"
        },
        {
          "internalType": "uint256",
          "name": "Expiring_date",
          "type": "uint256"
        },
        {
          "internalType": "bytes32",
          "name": "ipfsCid",
          "type": "bytes32"
        }
      ],
      "stateMutability": "view",
      "type": "function"
    },
    {
      "inputs": [
        {
          "internalType": "uint256",
          "name": "",
          "type": "uint256"
        }
      ],
      "name": "medications",
      "outputs": [
        {
          "internalType": "enum Manufacturer.SupplyChainState",
          "name": "state",
          "type": "uint8"
        },
        {
          "internalType": "string",
          "name": "batchnumber",
          "type": "string"
        },
        {
          "internalType": "string",
          "name": "manufacturer",
          "type": "string"
        },
        {
          "internalType": "string",
          "name": "name",
          "type": "string"
        },
        {
          "internalType": "uint256",
          "name": "Manufacturing_date",
          "type": "uint256"
        },
        {
          "internalType": "uint256",
          "name": "Expiring_date",
          "type": "uint256"
        },
        {
          "internalType": "bytes32",
          "name": "ipfsCid",
          "type": "bytes32"
        }
      ],
      "stateMutability": "view",
      "type": "function"
    },
    {
      "inputs": [],
      "name": "recievedtimeBySupplier",
      "outputs": [
        {
          "internalType": "uint256",
          "name": "",
          "type": "uint256"
        }
      ],
      "stateMutability": "view",
      "type": "function"
    },
    {
      "inputs": [],
      "name": "serialnumber",
      "outputs": [
        {
          "internalType": "uint256",
          "name": "",
          "type": "uint256"
        }
      ],
      "stateMutability": "view",
      "type": "function"
    },
    {
      "inputs": [
        {
          "internalType": "uint256",
          "name": "_serialnumber",
          "type": "uint256"
        },
        {
          "internalType": "string",
          "name": "revision21",
          "type": "string"
        }
      ],
      "name": "verify",
      "outputs": [],
      "stateMutability": "nonpayable",
      "type": "function"
    }
  ],
  "bytecode": "0x60806040526010600155600154600a6200001a9190620001be565b6002553480156200002a57600080fd5b506200020f565b7f4e487b7100000000000000000000000000000000000000000000000000000000600052601160045260246000fd5b60008160011c9050919050565b6000808291508390505b6001851115620000bf5780860481111562000097576200009662000031565b5b6001851615620000a75780820291505b8081029050620000b78562000060565b945062000077565b94509492505050565b600082620000da5760019050620001ad565b81620000ea5760009050620001ad565b81600181146200010357600281146200010e5762000144565b6001915050620001ad565b60ff84111562000123576200012262000031565b5b8360020a9150848211156200013d576200013c62000031565b5b50620001ad565b5060208310610133831016604e8410600b84101617156200017e5782820a90508381111562000178576200017762000031565b5b620001ad565b6200018d84848460016200006d565b92509050818404811115620001a757620001a662000031565b5b81810290505b9392505050565b6000819050919050565b6000620001cb82620001b4565b9150620001d883620001b4565b9250620002077fffffffffffffffffffffffffffffffffffffffffffffffffffffffffffffffff8484620000c8565b905092915050565b611a11806200021f6000396000f3fe608060405234801561001057600080fd5b50600436106100ea5760003560e01c80639bcca8571161008c578063cf5303cf11610066578063cf5303cf1461024f578063d700d2df1461026d578063e4d00fbb1461028b578063fa8547f6146102a7576100ea565b80639bcca857146101e5578063b498c57914610215578063cead807514610231576100ea565b80635ee8d98a116100c85780635ee8d98a146101595780636203d51c14610175578063857474721461019357806387ada616146101c9576100ea565b80631d9b62f2146100ef57806335e56a1e1461010d5780634942f3581461013d575b600080fd5b6100f76102dd565b6040516101049190610dcc565b60405180910390f35b61012760048036038101906101229190610e27565b6102e6565b6040516101349190610ee4565b60405180910390f35b6101576004803603810190610152919061103b565b610386565b005b610173600480360381019061016e919061103b565b6104f1565b005b61017d61061b565b60405161018a9190610dcc565b60405180910390f35b6101ad60048036038101906101a89190610e27565b610621565b6040516101c09796959493929190611127565b60405180910390f35b6101e360048036038101906101de919061103b565b610818565b005b6101ff60048036038101906101fa9190610e27565b610942565b60405161020c9190610dcc565b60405180910390f35b61022f600480360381019061022a91906111ab565b610966565b005b61023961098b565b6040516102469190610dcc565b60405180910390f35b610257610991565b6040516102649190610ee4565b60405180910390f35b610275610a1f565b6040516102829190610dcc565b60405180910390f35b6102a560048036038101906102a09190611219565b610a25565b005b6102c160048036038101906102bc9190610e27565b610bcc565b6040516102d49796959493929190611127565b60405180910390f35b60008054905090565b6008602052806000526040600020600091509050805461030590611329565b80601f016020809104026020016040519081016040528092919081815260200182805461033190611329565b801561037e5780601f106103535761010080835404028352916020019161037e565b820191906000526020600020905b81548152906001019060200180831161036157829003601f168201915b505050505081565b6001600481111561039a57610399611097565b5b6009600084815260200190815260200160002060000160009054906101000a900460ff1660048111156103d0576103cf611097565b5b14610410576040517f08c379a0000000000000000000000000000000000000000000000000000000008152600401610407906113cc565b60405180910390fd5b6000801b6008600080548152602001908152602001600020604051602001610438919061148f565b604051602081830303815290604052805190602001200361045857600080fd5b60026009600084815260200190815260200160002060000160006101000a81548160ff0219169083600481111561049257610491611097565b5b0217905550806008600084815260200190815260200160002090816104b7919061163d565b507f2844c95bf1b4598da931d527f903501abc60fe0199c65da52d5ce818c6c5e9616040516104e59061175b565b60405180910390a15050565b6002600481111561050557610504611097565b5b6009600084815260200190815260200160002060000160009054906101000a900460ff16600481111561053b5761053a611097565b5b1461057b576040517f08c379a0000000000000000000000000000000000000000000000000000000008152600401610572906117ed565b60405180910390fd5b42600b8190555060036009600084815260200190815260200160002060000160006101000a81548160ff021916908360048111156105bc576105bb611097565b5b0217905550806008600084815260200190815260200160002090816105e1919061163d565b507f2844c95bf1b4598da931d527f903501abc60fe0199c65da52d5ce818c6c5e96160405161060f9061187f565b60405180910390a15050565b600a5481565b6003818154811061063157600080fd5b90600052602060002090600702016000915090508060000160009054906101000a900460ff169080600101805461066790611329565b80601f016020809104026020016040519081016040528092919081815260200182805461069390611329565b80156106e05780601f106106b5576101008083540402835291602001916106e0565b820191906000526020600020905b8154815290600101906020018083116106c357829003601f168201915b5050505050908060020180546106f590611329565b80601f016020809104026020016040519081016040528092919081815260200182805461072190611329565b801561076e5780601f106107435761010080835404028352916020019161076e565b820191906000526020600020905b81548152906001019060200180831161075157829003601f168201915b50505050509080600301805461078390611329565b80601f01602080910402602001604051908101604052809291908181526020018280546107af90611329565b80156107fc5780601f106107d1576101008083540402835291602001916107fc565b820191906000526020600020905b8154815290600101906020018083116107df57829003601f168201915b5050505050908060040154908060050154908060060154905087565b6000600481111561082c5761082b611097565b5b6009600084815260200190815260200160002060000160009054906101000a900460ff16600481111561086257610861611097565b5b146108a2576040517f08c379a0000000000000000000000000000000000000000000000000000000008152600401610899906117ed565b60405180910390fd5b4260068190555060016009600084815260200190815260200160002060000160006101000a81548160ff021916908360048111156108e3576108e2611097565b5b021790555080600860008481526020019081526020016000209081610908919061163d565b507fdefe02112824e0ae81930c3e55aeeac58d10e8b531afdcb3bad105492ec5a5456040516109369061187f565b60405180910390a15050565b6004818154811061095257600080fd5b906000526020600020016000915090505481565b8060086000805481526020019081526020016000209081610987919061163d565b5050565b60005481565b6007805461099e90611329565b80601f01602080910402602001604051908101604052809291908181526020018280546109ca90611329565b8015610a175780601f106109ec57610100808354040283529160200191610a17565b820191906000526020600020905b8154815290600101906020018083116109fa57829003601f168201915b505050505081565b600b5481565b42600581905550858585604051602001610a41939291906118d0565b6040516020818303038152906040528051906020012060001c600081905550600254600080828254610a739190611930565b925050819055508460096000805481526020019081526020016000206001019081610a9e919061163d565b508560096000805481526020019081526020016000206003019081610ac3919061163d565b508360096000805481526020019081526020016000206002019081610ae8919061163d565b50816009600080548152602001908152602001600020600401819055508060096000805481526020019081526020016000206005018190555082600960008054815260200190815260200160002060000160006101000a81548160ff02191690836004811115610b5b57610b5a611097565b5b0217905550600460005490806001815401808255809150506001900390600052602060002001600090919091909150557fe9850cacbeabeb04673cee1b608fedf6e3163f0a8da989d484b5348563e04d02600054604051610bbc91906119ad565b60405180910390a1505050505050565b60096020528060005260406000206000915090508060000160009054906101000a900460ff1690806001018054610c0290611329565b80601f0160208091040260200160405190810160405280929190818152602001828054610c2e90611329565b8015610c7b5780601f10610c5057610100808354040283529160200191610c7b565b820191906000526020600020905b815481529060010190602001808311610c5e57829003601f168201915b505050505090806002018054610c9090611329565b80601f0160208091040260200160405190810160405280929190818152602001828054610cbc90611329565b8015610d095780601f10610cde57610100808354040283529160200191610d09565b820191906000526020600020905b815481529060010190602001808311610cec57829003601f168201915b505050505090806003018054610d1e90611329565b80601f0160208091040260200160405190810160405280929190818152602001828054610d4a90611329565b8015610d975780601f10610d6c57610100808354040283529160200191610d97565b820191906000526020600020905b815481529060010190602001808311610d7a57829003601f168201915b5050505050908060040154908060050154908060060154905087565b6000819050919050565b610dc681610db3565b82525050565b6000602082019050610de16000830184610dbd565b92915050565b6000604051905090565b600080fd5b600080fd5b610e0481610db3565b8114610e0f57600080fd5b50565b600081359050610e2181610dfb565b92915050565b600060208284031215610e3d57610e3c610df1565b5b6000610e4b84828501610e12565b91505092915050565b600081519050919050565b600082825260208201905092915050565b60005b83811015610e8e578082015181840152602081019050610e73565b60008484015250505050565b6000601f19601f8301169050919050565b6000610eb682610e54565b610ec08185610e5f565b9350610ed0818560208601610e70565b610ed981610e9a565b840191505092915050565b60006020820190508181036000830152610efe8184610eab565b905092915050565b600080fd5b600080fd5b7f4e487b7100000000000000000000000000000000000000000000000000000000600052604160045260246000fd5b610f4882610e9a565b810181811067ffffffffffffffff82111715610f6757610f66610f10565b5b80604052505050565b6000610f7a610de7565b9050610f868282610f3f565b919050565b600067ffffffffffffffff821115610fa657610fa5610f10565b5b610faf82610e9a565b9050602081019050919050565b82818337600083830152505050565b6000610fde610fd984610f8b565b610f70565b905082815260208101848484011115610ffa57610ff9610f0b565b5b611005848285610fbc565b509392505050565b600082601f83011261102257611021610f06565b5b8135611032848260208601610fcb565b91505092915050565b6000806040838503121561105257611051610df1565b5b600061106085828601610e12565b925050602083013567ffffffffffffffff81111561108157611080610df6565b5b61108d8582860161100d565b9150509250929050565b7f4e487b7100000000000000000000000000000000000000000000000000000000600052602160045260246000fd5b600581106110d7576110d6611097565b5b50565b60008190506110e8826110c6565b919050565b60006110f8826110da565b9050919050565b611108816110ed565b82525050565b6000819050919050565b6111218161110e565b82525050565b600060e08201905061113c600083018a6110ff565b818103602083015261114e8189610eab565b905081810360408301526111628188610eab565b905081810360608301526111768187610eab565b90506111856080830186610dbd565b61119260a0830185610dbd565b61119f60c0830184611118565b98975050505050505050565b6000602082840312156111c1576111c0610df1565b5b600082013567ffffffffffffffff8111156111df576111de610df6565b5b6111eb8482850161100d565b91505092915050565b6005811061120157600080fd5b50565b600081359050611213816111f4565b92915050565b60008060008060008060c0878903121561123657611235610df1565b5b600087013567ffffffffffffffff81111561125457611253610df6565b5b61126089828a0161100d565b965050602087013567ffffffffffffffff81111561128157611280610df6565b5b61128d89828a0161100d565b955050604087013567ffffffffffffffff8111156112ae576112ad610df6565b5b6112ba89828a0161100d565b94505060606112cb89828a01611204565b93505060806112dc89828a01610e12565b92505060a06112ed89828a01610e12565b9150509295509295509295565b7f4e487b7100000000000000000000000000000000000000000000000000000000600052602260045260246000fd5b6000600282049050600182168061134157607f821691505b602082108103611354576113536112fa565b5b50919050565b7f6d656469636174696f6e206973206e6f7420646973706174636865642079657460008201527f2066726f6d206d616e7566616374757265720000000000000000000000000000602082015250565b60006113b6603283610e5f565b91506113c18261135a565b604082019050919050565b600060208201905081810360008301526113e5816113a9565b9050919050565b600081905092915050565b60008190508160005260206000209050919050565b6000815461141981611329565b61142381866113ec565b9450600182166000811461143e576001811461145357611486565b60ff1983168652811515820286019350611486565b61145c856113f7565b60005b8381101561147e5781548189015260018201915060208101905061145f565b838801955050505b50505092915050565b600061149b828461140c565b915081905092915050565b60006020601f8301049050919050565b600082821b905092915050565b6000600883026114f37fffffffffffffffffffffffffffffffffffffffffffffffffffffffffffffffff826114b6565b6114fd86836114b6565b95508019841693508086168417925050509392505050565b6000819050919050565b600061153a61153561153084610db3565b611515565b610db3565b9050919050565b6000819050919050565b6115548361151f565b61156861156082611541565b8484546114c3565b825550505050565b600090565b61157d611570565b61158881848461154b565b505050565b5b818110156115ac576115a1600082611575565b60018101905061158e565b5050565b601f8211156115f1576115c2816113f7565b6115cb846114a6565b810160208510156115da578190505b6115ee6115e6856114a6565b83018261158d565b50505b505050565b600082821c905092915050565b6000611614600019846008026115f6565b1980831691505092915050565b600061162d8383611603565b9150826002028217905092915050565b61164682610e54565b67ffffffffffffffff81111561165f5761165e610f10565b5b6116698254611329565b6116748282856115b0565b600060209050601f8311600181146116a75760008415611695578287015190505b61169f8582611621565b865550611707565b601f1984166116b5866113f7565b60005b828110156116dd578489015182556001820191506020850194506020810190506116b8565b868310156116fa57848901516116f6601f891682611603565b8355505b6001600288020188555050505b505050505050565b7f7665726669636174696f6e20436f6d706c657465000000000000000000000000600082015250565b6000611745601483610e5f565b91506117508261170f565b602082019050919050565b6000602082019050818103600083015261177481611738565b9050919050565b7f6d656469636174696f6e206973206e6f74207965742075706c6f616420696e2060008201527f636861696e000000000000000000000000000000000000000000000000000000602082015250565b60006117d7602583610e5f565b91506117e28261177b565b604082019050919050565b60006020820190508181036000830152611806816117ca565b9050919050565b7f4469737061746368696e6720636f6d706c657465207375636365737366756c6c60008201527f7900000000000000000000000000000000000000000000000000000000000000602082015250565b6000611869602183610e5f565b91506118748261180d565b604082019050919050565b600060208201905081810360008301526118988161185c565b9050919050565b60006118aa82610e54565b6118b481856113ec565b93506118c4818560208601610e70565b80840191505092915050565b60006118dc828661189f565b91506118e8828561189f565b91506118f4828461189f565b9150819050949350505050565b7f4e487b7100000000000000000000000000000000000000000000000000000000600052601260045260246000fd5b600061193b82610db3565b915061194683610db3565b92508261195657611955611901565b5b828206905092915050565b7f73657269616c206e756d626572206f6620746865206d656469636174696f6e00600082015250565b6000611997601f83610e5f565b91506119a282611961565b602082019050919050565b600060408201905081810360008301526119c68161198a565b90506119d56020830184610dbd565b9291505056fea26469706673582212207cf0a4bf6e1da6cb8a0c68416e966b389e11b666105e11ee2a90dd8f1a72d26764736f6c63430008120033",
  "linkReferences": {},
  "deployedLinkReferences": {}
}