{
  "_format": "hh-sol-artifact-1",
  "contractName": "Pharmacist",
  "sourceName": "contracts/pharmacist.sol",
  "abi": [
    {
      "anonymous": false,
      "inputs": [
        {
          "indexed": false,
          "internalType": "string",
          "name": "message",
          "type": "string"
        }
      ],
      "name": "Mdispatch",
      "type": "event"
    },
    {
      "anonymous": false,
      "inputs": [
        {
          "indexed": false,
          "internalType": "string",
          "name": "message",
          "type": "string"
        }
      ],
      "name": "Pdispatch",
      "type": "event"
    },
    {
      "anonymous": false,
      "inputs": [
        {
          "indexed": false,
          "internalType": "string",
          "name": "message",
          "type": "string"
        }
      ],
      "name": "Status",
      "type": "event"
    },
    {
      "anonymous": false,
      "inputs": [
        {
          "indexed": false,
          "internalType": "string",
          "name": "message",
          "type": "string"
        },
        {
          "indexed": false,
          "internalType": "uint256",
          "name": "_sn",
          "type": "uint256"
        }
      ],
      "name": "product",
      "type": "event"
    },
    {
      "anonymous": false,
      "inputs": [
        {
          "indexed": false,
          "internalType": "string",
          "name": "message",
          "type": "string"
        }
      ],
      "name": "verification",
      "type": "event"
    },
    {
      "inputs": [
        {
          "internalType": "uint256",
          "name": "",
          "type": "uint256"
        }
      ],
      "name": "IpfsRevision",
      "outputs": [
        {
          "internalType": "string",
          "name": "",
          "type": "string"
        }
      ],
      "stateMutability": "view",
      "type": "function"
    },
    {
      "inputs": [
        {
          "internalType": "uint256",
          "name": "_serialnumber",
          "type": "uint256"
        },
        {
          "internalType": "string",
          "name": "_CID12",
          "type": "string"
        }
      ],
      "name": "Mandispatch",
      "outputs": [],
      "stateMutability": "nonpayable",
      "type": "function"
    },
    {
      "inputs": [
        {
          "internalType": "string",
          "name": "_CID11",
          "type": "string"
        }
      ],
      "name": "Medicine_mapper_first",
      "outputs": [],
      "stateMutability": "nonpayable",
      "type": "function"
    },
    {
      "inputs": [
        {
          "internalType": "uint256",
          "name": "_serialnumber",
          "type": "uint256"
        },
        {
          "internalType": "string",
          "name": "revision31",
          "type": "string"
        }
      ],
      "name": "Pverify",
      "outputs": [],
      "stateMutability": "nonpayable",
      "type": "function"
    },
    {
      "inputs": [],
      "name": "Serialnumbers",
      "outputs": [
        {
          "internalType": "uint256",
          "name": "",
          "type": "uint256"
        }
      ],
      "stateMutability": "view",
      "type": "function"
    },
    {
      "inputs": [
        {
          "internalType": "uint256",
          "name": "",
          "type": "uint256"
        }
      ],
      "name": "Sn",
      "outputs": [
        {
          "internalType": "uint256",
          "name": "",
          "type": "uint256"
        }
      ],
      "stateMutability": "view",
      "type": "function"
    },
    {
      "inputs": [
        {
          "internalType": "uint256",
          "name": "_serialnumber",
          "type": "uint256"
        },
        {
          "internalType": "string",
          "name": "revision22",
          "type": "string"
        }
      ],
      "name": "Supdispatch",
      "outputs": [],
      "stateMutability": "nonpayable",
      "type": "function"
    },
    {
      "inputs": [
        {
          "internalType": "string",
          "name": "_name",
          "type": "string"
        },
        {
          "internalType": "string",
          "name": "_batchno",
          "type": "string"
        },
        {
          "internalType": "string",
          "name": "_manufacturer",
          "type": "string"
        },
        {
          "internalType": "enum Manufacturer.SupplyChainState",
          "name": "_state",
          "type": "uint8"
        },
        {
          "internalType": "uint256",
          "name": "_Manufacturing_date",
          "type": "uint256"
        },
        {
          "internalType": "uint256",
          "name": "_Expiring_date",
          "type": "uint256"
        }
      ],
      "name": "addprouct",
      "outputs": [],
      "stateMutability": "nonpayable",
      "type": "function"
    },
    {
      "inputs": [],
      "name": "checker",
      "outputs": [
        {
          "internalType": "string",
          "name": "",
          "type": "string"
        }
      ],
      "stateMutability": "view",
      "type": "function"
    },
    {
      "inputs": [],
      "name": "dispatchedTimeByPharmacist",
      "outputs": [
        {
          "internalType": "uint256",
          "name": "",
          "type": "uint256"
        }
      ],
      "stateMutability": "view",
      "type": "function"
    },
    {
      "inputs": [],
      "name": "dispatchedtimeBySupplier",
      "outputs": [
        {
          "internalType": "uint256",
          "name": "",
          "type": "uint256"
        }
      ],
      "stateMutability": "view",
      "type": "function"
    },
    {
      "inputs": [
        {
          "internalType": "uint256",
          "name": "",
          "type": "uint256"
        }
      ],
      "name": "medd",
      "outputs": [
        {
          "internalType": "enum Manufacturer.SupplyChainState",
          "name": "state",
          "type": "uint8"
        },
        {
          "internalType": "string",
          "name": "batchnumber",
          "type": "string"
        },
        {
          "internalType": "string",
          "name": "manufacturer",
          "type": "string"
        },
        {
          "internalType": "string",
          "name": "name",
          "type": "string"
        },
        {
          "internalType": "uint256",
          "name": "Manufacturing_date",
          "type": "uint256"
        },
        {
          "internalType": "uint256",
          "name": "Expiring_date",
          "type": "uint256"
        },
        {
          "internalType": "bytes32",
          "name": "ipfsCid",
          "type": "bytes32"
        }
      ],
      "stateMutability": "view",
      "type": "function"
    },
    {
      "inputs": [
        {
          "internalType": "uint256",
          "name": "",
          "type": "uint256"
        }
      ],
      "name": "medications",
      "outputs": [
        {
          "internalType": "enum Manufacturer.SupplyChainState",
          "name": "state",
          "type": "uint8"
        },
        {
          "internalType": "string",
          "name": "batchnumber",
          "type": "string"
        },
        {
          "internalType": "string",
          "name": "manufacturer",
          "type": "string"
        },
        {
          "internalType": "string",
          "name": "name",
          "type": "string"
        },
        {
          "internalType": "uint256",
          "name": "Manufacturing_date",
          "type": "uint256"
        },
        {
          "internalType": "uint256",
          "name": "Expiring_date",
          "type": "uint256"
        },
        {
          "internalType": "bytes32",
          "name": "ipfsCid",
          "type": "bytes32"
        }
      ],
      "stateMutability": "view",
      "type": "function"
    },
    {
      "inputs": [],
      "name": "mssg",
      "outputs": [
        {
          "internalType": "string",
          "name": "",
          "type": "string"
        }
      ],
      "stateMutability": "view",
      "type": "function"
    },
    {
      "inputs": [],
      "name": "recievedTimeByPharmacist",
      "outputs": [
        {
          "internalType": "uint256",
          "name": "",
          "type": "uint256"
        }
      ],
      "stateMutability": "view",
      "type": "function"
    },
    {
      "inputs": [],
      "name": "recievedtimeBySupplier",
      "outputs": [
        {
          "internalType": "uint256",
          "name": "",
          "type": "uint256"
        }
      ],
      "stateMutability": "view",
      "type": "function"
    },
    {
      "inputs": [],
      "name": "serialnumber",
      "outputs": [
        {
          "internalType": "uint256",
          "name": "",
          "type": "uint256"
        }
      ],
      "stateMutability": "view",
      "type": "function"
    },
    {
      "inputs": [
        {
          "internalType": "uint256",
          "name": "_serialnumber",
          "type": "uint256"
        },
        {
          "internalType": "string",
          "name": "revision21",
          "type": "string"
        }
      ],
      "name": "verify",
      "outputs": [],
      "stateMutability": "nonpayable",
      "type": "function"
    }
  ],
  "bytecode": "0x60806040526010600155600154600a6200001a9190620001be565b6002553480156200002a57600080fd5b506200020f565b7f4e487b7100000000000000000000000000000000000000000000000000000000600052601160045260246000fd5b60008160011c9050919050565b6000808291508390505b6001851115620000bf5780860481111562000097576200009662000031565b5b6001851615620000a75780820291505b8081029050620000b78562000060565b945062000077565b94509492505050565b600082620000da5760019050620001ad565b81620000ea5760009050620001ad565b81600181146200010357600281146200010e5762000144565b6001915050620001ad565b60ff84111562000123576200012262000031565b5b8360020a9150848211156200013d576200013c62000031565b5b50620001ad565b5060208310610133831016604e8410600b84101617156200017e5782820a90508381111562000178576200017762000031565b5b620001ad565b6200018d84848460016200006d565b92509050818404811115620001a757620001a662000031565b5b81810290505b9392505050565b6000819050919050565b6000620001cb82620001b4565b9150620001d883620001b4565b9250620002077fffffffffffffffffffffffffffffffffffffffffffffffffffffffffffffffff8484620000c8565b905092915050565b611dbd806200021f6000396000f3fe608060405234801561001057600080fd5b50600436106101165760003560e01c8063b0e51740116100a2578063cf5303cf11610071578063cf5303cf146102d3578063d700d2df146102f1578063e4d00fbb1461030f578063fa8547f61461032b578063fad568f01461036157610116565b8063b0e517401461025f578063b498c5791461027b578063bc2faa9014610297578063cead8075146102b557610116565b80636121e508116100e95780636121e508146101a15780636203d51c146101bf57806385747472146101dd57806387ada616146102135780639bcca8571461022f57610116565b80631d9b62f21461011b57806335e56a1e146101395780634942f358146101695780635ee8d98a14610185575b600080fd5b61012361037f565b604051610130919061107a565b60405180910390f35b610153600480360381019061014e91906110d5565b610388565b6040516101609190611192565b60405180910390f35b610183600480360381019061017e91906112e9565b610428565b005b61019f600480360381019061019a91906112e9565b610593565b005b6101a96106bd565b6040516101b6919061107a565b60405180910390f35b6101c76106c3565b6040516101d4919061107a565b60405180910390f35b6101f760048036038101906101f291906110d5565b6106c9565b60405161020a97969594939291906113d5565b60405180910390f35b61022d600480360381019061022891906112e9565b6108c0565b005b610249600480360381019061024491906110d5565b6109ea565b604051610256919061107a565b60405180910390f35b610279600480360381019061027491906112e9565b610a0e565b005b61029560048036038101906102909190611459565b610b80565b005b61029f610ba5565b6040516102ac9190611192565b60405180910390f35b6102bd610c33565b6040516102ca919061107a565b60405180910390f35b6102db610c39565b6040516102e89190611192565b60405180910390f35b6102f9610cc7565b604051610306919061107a565b60405180910390f35b610329600480360381019061032491906114c7565b610ccd565b005b610345600480360381019061034091906110d5565b610e74565b60405161035897969594939291906113d5565b60405180910390f35b61036961105b565b604051610376919061107a565b60405180910390f35b60008054905090565b600860205280600052604060002060009150905080546103a7906115d7565b80601f01602080910402602001604051908101604052809291908181526020018280546103d3906115d7565b80156104205780601f106103f557610100808354040283529160200191610420565b820191906000526020600020905b81548152906001019060200180831161040357829003601f168201915b505050505081565b6001600481111561043c5761043b611345565b5b6009600084815260200190815260200160002060000160009054906101000a900460ff16600481111561047257610471611345565b5b146104b2576040517f08c379a00000000000000000000000000000000000000000000000000000000081526004016104a99061167a565b60405180910390fd5b6000801b60086000805481526020019081526020016000206040516020016104da919061173d565b60405160208183030381529060405280519060200120036104fa57600080fd5b60026009600084815260200190815260200160002060000160006101000a81548160ff0219169083600481111561053457610533611345565b5b02179055508060086000848152602001908152602001600020908161055991906118eb565b507f2844c95bf1b4598da931d527f903501abc60fe0199c65da52d5ce818c6c5e96160405161058790611a09565b60405180910390a15050565b600260048111156105a7576105a6611345565b5b6009600084815260200190815260200160002060000160009054906101000a900460ff1660048111156105dd576105dc611345565b5b1461061d576040517f08c379a000000000000000000000000000000000000000000000000000000000815260040161061490611a9b565b60405180910390fd5b42600b8190555060036009600084815260200190815260200160002060000160006101000a81548160ff0219169083600481111561065e5761065d611345565b5b02179055508060086000848152602001908152602001600020908161068391906118eb565b507f2844c95bf1b4598da931d527f903501abc60fe0199c65da52d5ce818c6c5e9616040516106b190611b2d565b60405180910390a15050565b60125481565b600a5481565b600381815481106106d957600080fd5b90600052602060002090600702016000915090508060000160009054906101000a900460ff169080600101805461070f906115d7565b80601f016020809104026020016040519081016040528092919081815260200182805461073b906115d7565b80156107885780601f1061075d57610100808354040283529160200191610788565b820191906000526020600020905b81548152906001019060200180831161076b57829003601f168201915b50505050509080600201805461079d906115d7565b80601f01602080910402602001604051908101604052809291908181526020018280546107c9906115d7565b80156108165780601f106107eb57610100808354040283529160200191610816565b820191906000526020600020905b8154815290600101906020018083116107f957829003601f168201915b50505050509080600301805461082b906115d7565b80601f0160208091040260200160405190810160405280929190818152602001828054610857906115d7565b80156108a45780601f10610879576101008083540402835291602001916108a4565b820191906000526020600020905b81548152906001019060200180831161088757829003601f168201915b5050505050908060040154908060050154908060060154905087565b600060048111156108d4576108d3611345565b5b6009600084815260200190815260200160002060000160009054906101000a900460ff16600481111561090a57610909611345565b5b1461094a576040517f08c379a000000000000000000000000000000000000000000000000000000000815260040161094190611a9b565b60405180910390fd5b4260068190555060016009600084815260200190815260200160002060000160006101000a81548160ff0219169083600481111561098b5761098a611345565b5b0217905550806008600084815260200190815260200160002090816109b091906118eb565b507fdefe02112824e0ae81930c3e55aeeac58d10e8b531afdcb3bad105492ec5a5456040516109de90611b2d565b60405180910390a15050565b600481815481106109fa57600080fd5b906000526020600020016000915090505481565b60036004811115610a2257610a21611345565b5b6009600084815260200190815260200160002060000160009054906101000a900460ff166004811115610a5857610a57611345565b5b14610a98576040517f08c379a0000000000000000000000000000000000000000000000000000000008152600401610a8f90611bbf565b60405180910390fd5b6000801b6008600080548152602001908152602001600020604051602001610ac0919061173d565b6040516020818303038152906040528051906020012003610ae057600080fd5b60046009600084815260200190815260200160002060000160006101000a81548160ff02191690836004811115610b1a57610b19611345565b5b021790555080600860008481526020019081526020016000209081610b3f91906118eb565b50426012819055507f53ba0944807ae1d42e8a5684aa3ca1409f174f9d9a86d93409ef4379966b3eee604051610b7490611c2b565b60405180910390a15050565b8060086000805481526020019081526020016000209081610ba191906118eb565b5050565b60108054610bb2906115d7565b80601f0160208091040260200160405190810160405280929190818152602001828054610bde906115d7565b8015610c2b5780601f10610c0057610100808354040283529160200191610c2b565b820191906000526020600020905b815481529060010190602001808311610c0e57829003601f168201915b505050505081565b60005481565b60078054610c46906115d7565b80601f0160208091040260200160405190810160405280929190818152602001828054610c72906115d7565b8015610cbf5780601f10610c9457610100808354040283529160200191610cbf565b820191906000526020600020905b815481529060010190602001808311610ca257829003601f168201915b505050505081565b600b5481565b42600581905550858585604051602001610ce993929190611c7c565b6040516020818303038152906040528051906020012060001c600081905550600254600080828254610d1b9190611cdc565b925050819055508460096000805481526020019081526020016000206001019081610d4691906118eb565b508560096000805481526020019081526020016000206003019081610d6b91906118eb565b508360096000805481526020019081526020016000206002019081610d9091906118eb565b50816009600080548152602001908152602001600020600401819055508060096000805481526020019081526020016000206005018190555082600960008054815260200190815260200160002060000160006101000a81548160ff02191690836004811115610e0357610e02611345565b5b0217905550600460005490806001815401808255809150506001900390600052602060002001600090919091909150557fe9850cacbeabeb04673cee1b608fedf6e3163f0a8da989d484b5348563e04d02600054604051610e649190611d59565b60405180910390a1505050505050565b60096020528060005260406000206000915090508060000160009054906101000a900460ff1690806001018054610eaa906115d7565b80601f0160208091040260200160405190810160405280929190818152602001828054610ed6906115d7565b8015610f235780601f10610ef857610100808354040283529160200191610f23565b820191906000526020600020905b815481529060010190602001808311610f0657829003601f168201915b505050505090806002018054610f38906115d7565b80601f0160208091040260200160405190810160405280929190818152602001828054610f64906115d7565b8015610fb15780601f10610f8657610100808354040283529160200191610fb1565b820191906000526020600020905b815481529060010190602001808311610f9457829003601f168201915b505050505090806003018054610fc6906115d7565b80601f0160208091040260200160405190810160405280929190818152602001828054610ff2906115d7565b801561103f5780601f106110145761010080835404028352916020019161103f565b820191906000526020600020905b81548152906001019060200180831161102257829003601f168201915b5050505050908060040154908060050154908060060154905087565b60115481565b6000819050919050565b61107481611061565b82525050565b600060208201905061108f600083018461106b565b92915050565b6000604051905090565b600080fd5b600080fd5b6110b281611061565b81146110bd57600080fd5b50565b6000813590506110cf816110a9565b92915050565b6000602082840312156110eb576110ea61109f565b5b60006110f9848285016110c0565b91505092915050565b600081519050919050565b600082825260208201905092915050565b60005b8381101561113c578082015181840152602081019050611121565b60008484015250505050565b6000601f19601f8301169050919050565b600061116482611102565b61116e818561110d565b935061117e81856020860161111e565b61118781611148565b840191505092915050565b600060208201905081810360008301526111ac8184611159565b905092915050565b600080fd5b600080fd5b7f4e487b7100000000000000000000000000000000000000000000000000000000600052604160045260246000fd5b6111f682611148565b810181811067ffffffffffffffff82111715611215576112146111be565b5b80604052505050565b6000611228611095565b905061123482826111ed565b919050565b600067ffffffffffffffff821115611254576112536111be565b5b61125d82611148565b9050602081019050919050565b82818337600083830152505050565b600061128c61128784611239565b61121e565b9050828152602081018484840111156112a8576112a76111b9565b5b6112b384828561126a565b509392505050565b600082601f8301126112d0576112cf6111b4565b5b81356112e0848260208601611279565b91505092915050565b60008060408385031215611300576112ff61109f565b5b600061130e858286016110c0565b925050602083013567ffffffffffffffff81111561132f5761132e6110a4565b5b61133b858286016112bb565b9150509250929050565b7f4e487b7100000000000000000000000000000000000000000000000000000000600052602160045260246000fd5b6005811061138557611384611345565b5b50565b600081905061139682611374565b919050565b60006113a682611388565b9050919050565b6113b68161139b565b82525050565b6000819050919050565b6113cf816113bc565b82525050565b600060e0820190506113ea600083018a6113ad565b81810360208301526113fc8189611159565b905081810360408301526114108188611159565b905081810360608301526114248187611159565b9050611433608083018661106b565b61144060a083018561106b565b61144d60c08301846113c6565b98975050505050505050565b60006020828403121561146f5761146e61109f565b5b600082013567ffffffffffffffff81111561148d5761148c6110a4565b5b611499848285016112bb565b91505092915050565b600581106114af57600080fd5b50565b6000813590506114c1816114a2565b92915050565b60008060008060008060c087890312156114e4576114e361109f565b5b600087013567ffffffffffffffff811115611502576115016110a4565b5b61150e89828a016112bb565b965050602087013567ffffffffffffffff81111561152f5761152e6110a4565b5b61153b89828a016112bb565b955050604087013567ffffffffffffffff81111561155c5761155b6110a4565b5b61156889828a016112bb565b945050606061157989828a016114b2565b935050608061158a89828a016110c0565b92505060a061159b89828a016110c0565b9150509295509295509295565b7f4e487b7100000000000000000000000000000000000000000000000000000000600052602260045260246000fd5b600060028204905060018216806115ef57607f821691505b602082108103611602576116016115a8565b5b50919050565b7f6d656469636174696f6e206973206e6f7420646973706174636865642079657460008201527f2066726f6d206d616e7566616374757265720000000000000000000000000000602082015250565b600061166460328361110d565b915061166f82611608565b604082019050919050565b6000602082019050818103600083015261169381611657565b9050919050565b600081905092915050565b60008190508160005260206000209050919050565b600081546116c7816115d7565b6116d1818661169a565b945060018216600081146116ec576001811461170157611734565b60ff1983168652811515820286019350611734565b61170a856116a5565b60005b8381101561172c5781548189015260018201915060208101905061170d565b838801955050505b50505092915050565b600061174982846116ba565b915081905092915050565b60006020601f8301049050919050565b600082821b905092915050565b6000600883026117a17fffffffffffffffffffffffffffffffffffffffffffffffffffffffffffffffff82611764565b6117ab8683611764565b95508019841693508086168417925050509392505050565b6000819050919050565b60006117e86117e36117de84611061565b6117c3565b611061565b9050919050565b6000819050919050565b611802836117cd565b61181661180e826117ef565b848454611771565b825550505050565b600090565b61182b61181e565b6118368184846117f9565b505050565b5b8181101561185a5761184f600082611823565b60018101905061183c565b5050565b601f82111561189f57611870816116a5565b61187984611754565b81016020851015611888578190505b61189c61189485611754565b83018261183b565b50505b505050565b600082821c905092915050565b60006118c2600019846008026118a4565b1980831691505092915050565b60006118db83836118b1565b9150826002028217905092915050565b6118f482611102565b67ffffffffffffffff81111561190d5761190c6111be565b5b61191782546115d7565b61192282828561185e565b600060209050601f8311600181146119555760008415611943578287015190505b61194d85826118cf565b8655506119b5565b601f198416611963866116a5565b60005b8281101561198b57848901518255600182019150602085019450602081019050611966565b868310156119a857848901516119a4601f8916826118b1565b8355505b6001600288020188555050505b505050505050565b7f7665726669636174696f6e20436f6d706c657465000000000000000000000000600082015250565b60006119f360148361110d565b91506119fe826119bd565b602082019050919050565b60006020820190508181036000830152611a22816119e6565b9050919050565b7f6d656469636174696f6e206973206e6f74207965742075706c6f616420696e2060008201527f636861696e000000000000000000000000000000000000000000000000000000602082015250565b6000611a8560258361110d565b9150611a9082611a29565b604082019050919050565b60006020820190508181036000830152611ab481611a78565b9050919050565b7f4469737061746368696e6720636f6d706c657465207375636365737366756c6c60008201527f7900000000000000000000000000000000000000000000000000000000000000602082015250565b6000611b1760218361110d565b9150611b2282611abb565b604082019050919050565b60006020820190508181036000830152611b4681611b0a565b9050919050565b7f6d656469636174696f6e206973206e6f7420796574206469737061746368656460008201527f2066726f6d20537570706c696572000000000000000000000000000000000000602082015250565b6000611ba9602e8361110d565b9150611bb482611b4d565b604082019050919050565b60006020820190508181036000830152611bd881611b9c565b9050919050565b7f76726572696669636174696f6e20436f6d706c65746500000000000000000000600082015250565b6000611c1560168361110d565b9150611c2082611bdf565b602082019050919050565b60006020820190508181036000830152611c4481611c08565b9050919050565b6000611c5682611102565b611c60818561169a565b9350611c7081856020860161111e565b80840191505092915050565b6000611c888286611c4b565b9150611c948285611c4b565b9150611ca08284611c4b565b9150819050949350505050565b7f4e487b7100000000000000000000000000000000000000000000000000000000600052601260045260246000fd5b6000611ce782611061565b9150611cf283611061565b925082611d0257611d01611cad565b5b828206905092915050565b7f73657269616c206e756d626572206f6620746865206d656469636174696f6e00600082015250565b6000611d43601f8361110d565b9150611d4e82611d0d565b602082019050919050565b60006040820190508181036000830152611d7281611d36565b9050611d81602083018461106b565b9291505056fea2646970667358221220acc74369e33d3589d39d8e6fd9fc630b839428af0be5ac94a3454394f8a0eedd64736f6c63430008120033",
  "linkReferences": {},
  "deployedLinkReferences": {}
}